{
  "address": "0x4821C36C03E8d178e0cde67e5B46C55D46d38eb5",
  "abi": [
    {
      "inputs": [],
      "stateMutability": "nonpayable",
      "type": "constructor"
    },
    {
      "anonymous": false,
      "inputs": [
        {
          "indexed": true,
          "internalType": "address",
          "name": "previousOwner",
          "type": "address"
        },
        {
          "indexed": true,
          "internalType": "address",
          "name": "newOwner",
          "type": "address"
        }
      ],
      "name": "OwnershipTransferred",
      "type": "event"
    },
    {
      "anonymous": false,
      "inputs": [],
      "name": "TemplatesUpdated",
      "type": "event"
    },
    {
      "inputs": [
        {
          "internalType": "address",
          "name": "adminProxy",
          "type": "address"
        },
        {
          "internalType": "address",
          "name": "rollup",
          "type": "address"
        },
        {
          "internalType": "address",
          "name": "sequencer",
          "type": "address"
        }
      ],
      "name": "createBridge",
      "outputs": [
        {
          "internalType": "contract Bridge",
          "name": "",
          "type": "address"
        },
        {
          "internalType": "contract SequencerInbox",
          "name": "",
          "type": "address"
        },
        {
          "internalType": "contract Inbox",
          "name": "",
          "type": "address"
        },
        {
          "internalType": "contract RollupEventBridge",
          "name": "",
          "type": "address"
        },
        {
          "internalType": "contract Outbox",
          "name": "",
          "type": "address"
        }
      ],
      "stateMutability": "nonpayable",
      "type": "function"
    },
    {
      "inputs": [],
      "name": "delayedBridgeTemplate",
      "outputs": [
        {
          "internalType": "contract Bridge",
          "name": "",
          "type": "address"
        }
      ],
      "stateMutability": "view",
      "type": "function"
    },
    {
      "inputs": [],
      "name": "inboxTemplate",
      "outputs": [
        {
          "internalType": "contract Inbox",
          "name": "",
          "type": "address"
        }
      ],
      "stateMutability": "view",
      "type": "function"
    },
    {
      "inputs": [],
      "name": "outboxTemplate",
      "outputs": [
        {
          "internalType": "contract Outbox",
          "name": "",
          "type": "address"
        }
      ],
      "stateMutability": "view",
      "type": "function"
    },
    {
      "inputs": [],
      "name": "owner",
      "outputs": [
        {
          "internalType": "address",
          "name": "",
          "type": "address"
        }
      ],
      "stateMutability": "view",
      "type": "function"
    },
    {
      "inputs": [],
      "name": "renounceOwnership",
      "outputs": [],
      "stateMutability": "nonpayable",
      "type": "function"
    },
    {
      "inputs": [],
      "name": "rollupEventBridgeTemplate",
      "outputs": [
        {
          "internalType": "contract RollupEventBridge",
          "name": "",
          "type": "address"
        }
      ],
      "stateMutability": "view",
      "type": "function"
    },
    {
      "inputs": [],
      "name": "sequencerInboxTemplate",
      "outputs": [
        {
          "internalType": "contract SequencerInbox",
          "name": "",
          "type": "address"
        }
      ],
      "stateMutability": "view",
      "type": "function"
    },
    {
      "inputs": [
        {
          "internalType": "address",
          "name": "newOwner",
          "type": "address"
        }
      ],
      "name": "transferOwnership",
      "outputs": [],
      "stateMutability": "nonpayable",
      "type": "function"
    },
    {
      "inputs": [
        {
          "internalType": "address",
          "name": "_delayedBridgeTemplate",
          "type": "address"
        },
        {
          "internalType": "address",
          "name": "_sequencerInboxTemplate",
          "type": "address"
        },
        {
          "internalType": "address",
          "name": "_inboxTemplate",
          "type": "address"
        },
        {
          "internalType": "address",
          "name": "_rollupEventBridgeTemplate",
          "type": "address"
        },
        {
          "internalType": "address",
          "name": "_outboxTemplate",
          "type": "address"
        }
      ],
      "name": "updateTemplates",
      "outputs": [],
      "stateMutability": "nonpayable",
      "type": "function"
    }
  ],
  "transactionHash": "0x5ea4314fe000ace1b398184f2e085ae1a7c81c6a8fb9a757c7862098f47c37b5",
  "args": [],
  "numDeployments": 1,
  "solcInputHash": "5f404ffad369d1e6fd2cf1f0ce010b90",
  "bytecode": "0x60806040523480156200001157600080fd5b506000620000276001600160e01b03620001f316565b600080546001600160a01b0319166001600160a01b0383169081178255604051929350917f8be0079c531659141344cd1fd0a4f28419497f9722a3daafe3b4186f6b6457e0908290a3506040516200007f90620001f7565b604051809103906000f0801580156200009c573d6000803e3d6000fd5b50600180546001600160a01b0319166001600160a01b0392909216919091179055604051620000cb9062000205565b604051809103906000f080158015620000e8573d6000803e3d6000fd5b50600280546001600160a01b0319166001600160a01b0392909216919091179055604051620001179062000213565b604051809103906000f08015801562000134573d6000803e3d6000fd5b50600380546001600160a01b0319166001600160a01b0392909216919091179055604051620001639062000221565b604051809103906000f08015801562000180573d6000803e3d6000fd5b50600480546001600160a01b0319166001600160a01b0392909216919091179055604051620001af906200022f565b604051809103906000f080158015620001cc573d6000803e3d6000fd5b50600580546001600160a01b0319166001600160a01b03929092169190911790556200023d565b3390565b6112fe806200228783390190565b611e4d806200358583390190565b611eb580620053d283390190565b6108b4806200728783390190565b6113428062007b3b83390190565b61203a806200024d6000396000f3fe60806040523480156200001157600080fd5b5060043610620000ac5760003560e01c80638da5cb5b116200006f5780638da5cb5b1462000142578063953b2219146200014c578063e6027a8714620001c3578063f2fde38b14620001cd578063fc6a2ed014620001f657620000ac565b806319f82a2d14620000b15780632147e58e14620000d75780636f75af6f1462000124578063715018a6146200012e5780637ba0e8571462000138575b600080fd5b620000bb62000200565b604080516001600160a01b039092168252519081900360200190f35b62000122600480360360a0811015620000ef57600080fd5b506001600160a01b038135811691602081013582169160408201358116916060810135821691608090910135166200020f565b005b620000bb620002fd565b620001226200030c565b620000bb620003be565b620000bb620003cd565b62000187600480360360608110156200016457600080fd5b506001600160a01b038135811691602081013582169160409091013516620003dc565b604080516001600160a01b0396871681529486166020860152928516848401529084166060840152909216608082015290519081900360a00190f35b620000bb62000a7c565b6200012260048036036020811015620001e557600080fd5b50356001600160a01b031662000a8b565b620000bb62000b95565b6001546001600160a01b031681565b6200021962000ba4565b6001600160a01b03166200022c620003cd565b6001600160a01b03161462000277576040805162461bcd60e51b8152602060048201819052602482015260008051602062001fe5833981519152604482015290519081900360640190fd5b600180546001600160a01b03199081166001600160a01b0388811691909117909255600280548216878416179055600380548216868416179055600480548216858416179055600580549091169183169190911790556040517fc9d3947d22fa124aaec4c7e8c919f79016e2d7b48eee10568375d98b86460d1b90600090a15050505050565b6004546001600160a01b031681565b6200031662000ba4565b6001600160a01b031662000329620003cd565b6001600160a01b03161462000374576040805162461bcd60e51b8152602060048201819052602482015260008051602062001fe5833981519152604482015290519081900360640190fd5b600080546040516001600160a01b03909116907f8be0079c531659141344cd1fd0a4f28419497f9722a3daafe3b4186f6b6457e0908390a3600080546001600160a01b0319169055565b6003546001600160a01b031681565b6000546001600160a01b031690565b6000806000806000620003ee62000ba8565b6001546040516001600160a01b03909116908a906200040d9062000be4565b6001600160a01b03928316815291166020820152606060408083018290526000918301829052519182900360a0019190f08015801562000451573d6000803e3d6000fd5b506001600160a01b0390811660208301526002546040519116908a90620004789062000be4565b6001600160a01b03928316815291166020820152606060408083018290526000918301829052519182900360a0019190f080158015620004bc573d6000803e3d6000fd5b506001600160a01b0390811660408084019190915260035490519116908a90620004e69062000be4565b6001600160a01b03928316815291166020820152606060408083018290526000918301829052519182900360a0019190f0801580156200052a573d6000803e3d6000fd5b506001600160a01b0390811660608301526004546040519116908a90620005519062000be4565b6001600160a01b03928316815291166020820152606060408083018290526000918301829052519182900360a0019190f08015801562000595573d6000803e3d6000fd5b506001600160a01b0390811660808301526005546040519116908a90620005bc9062000be4565b6001600160a01b03928316815291166020820152606060408083018290526000918301829052519182900360a0019190f08015801562000600573d6000803e3d6000fd5b506001600160a01b031660a08201526040516200061d9062000bf2565b604051809103906000f0801580156200063a573d6000803e3d6000fd5b508160c001906001600160a01b031690816001600160a01b03168152505080602001516001600160a01b0316638129fc1c6040518163ffffffff1660e01b8152600401600060405180830381600087803b1580156200069857600080fd5b505af1158015620006ad573d6000803e3d6000fd5b505050506040818101516020830151825163c0c53b8b60e01b81526001600160a01b0391821660048201528a821660248201528b82166044820152925191169163c0c53b8b91606480830192600092919082900301818387803b1580156200071457600080fd5b505af115801562000729573d6000803e3d6000fd5b5050505080606001516001600160a01b031663485cc95582602001518360c001516040518363ffffffff1660e01b815260040180836001600160a01b03166001600160a01b03168152602001826001600160a01b03166001600160a01b0316815260200192505050600060405180830381600087803b158015620007ac57600080fd5b505af1158015620007c1573d6000803e3d6000fd5b5050505080608001516001600160a01b031663485cc95582602001518a6040518363ffffffff1660e01b815260040180836001600160a01b03166001600160a01b03168152602001826001600160a01b03166001600160a01b0316815260200192505050600060405180830381600087803b1580156200084057600080fd5b505af115801562000855573d6000803e3d6000fd5b505050508060a001516001600160a01b031663485cc9558983602001516040518363ffffffff1660e01b815260040180836001600160a01b03166001600160a01b03168152602001826001600160a01b03166001600160a01b0316815260200192505050600060405180830381600087803b158015620008d457600080fd5b505af1158015620008e9573d6000803e3d6000fd5b50505050602081015160608201516040805163722dbe7360e11b81526001600160a01b039283166004820152600160248201529051919092169163e45b7ce691604480830192600092919082900301818387803b1580156200094a57600080fd5b505af11580156200095f573d6000803e3d6000fd5b5050505080602001516001600160a01b031663f2fde38b896040518263ffffffff1660e01b815260040180826001600160a01b03166001600160a01b03168152602001915050600060405180830381600087803b158015620009c057600080fd5b505af1158015620009d5573d6000803e3d6000fd5b505050508060c001516001600160a01b03166313af4035896040518263ffffffff1660e01b815260040180826001600160a01b03166001600160a01b03168152602001915050600060405180830381600087803b15801562000a3657600080fd5b505af115801562000a4b573d6000803e3d6000fd5b50505050602081015160408201516060830151608084015160a090940151929c919b50995091975095509350505050565b6002546001600160a01b031681565b62000a9562000ba4565b6001600160a01b031662000aa8620003cd565b6001600160a01b03161462000af3576040805162461bcd60e51b8152602060048201819052602482015260008051602062001fe5833981519152604482015290519081900360640190fd5b6001600160a01b03811662000b3a5760405162461bcd60e51b815260040180806020018281038252602681526020018062001fbf6026913960400191505060405180910390fd5b600080546040516001600160a01b03808516939216917f8be0079c531659141344cd1fd0a4f28419497f9722a3daafe3b4186f6b6457e091a3600080546001600160a01b0319166001600160a01b0392909216919091179055565b6005546001600160a01b031681565b3390565b6040805160e081018252600080825260208201819052918101829052606081018290526080810182905260a0810182905260c081019190915290565b610d608062000c0183390190565b61065e80620019618339019056fe608060405260405162000d6038038062000d60833981810160405260608110156200002957600080fd5b815160208301516040808501805191519395929483019291846401000000008211156200005557600080fd5b9083019060208201858111156200006b57600080fd5b82516401000000008111828201881017156200008657600080fd5b82525081516020918201929091019080838360005b83811015620000b55781810151838201526020016200009b565b50505050905090810190601f168015620000e35780820380516001836020036101000a031916815260200191505b5060408181527f656970313936372e70726f78792e696d706c656d656e746174696f6e0000000082525190819003601c01902086935084925060008051602062000cbd8339815191526000199091011490506200013c57fe5b62000150826001600160e01b03620001e016565b80511562000171576200016f82826200024660201b620003841760201c565b505b5050604080517f656970313936372e70726f78792e61646d696e000000000000000000000000008152905190819003601301902060008051602062000c9d83398151915260001990910114620001c357fe5b620001d7826001600160e01b036200027e16565b50505062000461565b620001f6816200029160201b620003b01760201c565b620002335760405162461bcd60e51b815260040180806020018281038252603681526020018062000d046036913960400191505060405180910390fd5b60008051602062000cbd83398151915255565b606062000277838360405180606001604052806027815260200162000cdd602791396001600160e01b036200029716565b9392505050565b60008051602062000c9d83398151915255565b3b151590565b6060620002ad846001600160e01b036200029116565b620002ea5760405162461bcd60e51b815260040180806020018281038252602681526020018062000d3a6026913960400191505060405180910390fd5b60006060856001600160a01b0316856040518082805190602001908083835b602083106200032a5780518252601f19909201916020918201910162000309565b6001836020036101000a038019825116818451168082178552505050505050905001915050600060405180830381855af49150503d80600081146200038c576040519150601f19603f3d011682016040523d82523d6000602084013e62000391565b606091505b509092509050620003ad8282866001600160e01b03620003b716565b9695505050505050565b60608315620003c857508162000277565b825115620003d95782518084602001fd5b8160405162461bcd60e51b81526004018080602001828103825283818151815260200191508051906020019080838360005b83811015620004255781810151838201526020016200040b565b50505050905090810190601f168015620004535780820380516001836020036101000a031916815260200191505b509250505060405180910390fd5b61082c80620004716000396000f3fe60806040526004361061004e5760003560e01c80633659cfe6146100655780634f1ef286146100985780635c60da1b146101185780638f28397014610149578063f851a4401461017c5761005d565b3661005d5761005b610191565b005b61005b610191565b34801561007157600080fd5b5061005b6004803603602081101561008857600080fd5b50356001600160a01b03166101ab565b61005b600480360360408110156100ae57600080fd5b6001600160a01b0382351691908101906040810160208201356401000000008111156100d957600080fd5b8201836020820111156100eb57600080fd5b8035906020019184600183028401116401000000008311171561010d57600080fd5b5090925090506101e5565b34801561012457600080fd5b5061012d610262565b604080516001600160a01b039092168252519081900360200190f35b34801561015557600080fd5b5061005b6004803603602081101561016c57600080fd5b50356001600160a01b031661029f565b34801561018857600080fd5b5061012d610359565b6101996103b6565b6101a96101a4610416565b61043b565b565b6101b361045f565b6001600160a01b0316336001600160a01b031614156101da576101d581610484565b6101e2565b6101e2610191565b50565b6101ed61045f565b6001600160a01b0316336001600160a01b031614156102555761020f83610484565b61024f8383838080601f01602080910402602001604051908101604052809392919081815260200183838082843760009201919091525061038492505050565b5061025d565b61025d610191565b505050565b600061026c61045f565b6001600160a01b0316336001600160a01b031614156102945761028d610416565b905061029c565b61029c610191565b90565b6102a761045f565b6001600160a01b0316336001600160a01b031614156101da576001600160a01b0381166103055760405162461bcd60e51b815260040180806020018281038252603a8152602001806106f8603a913960400191505060405180910390fd5b7f7e644d79422f17c01e4894b5f4f588d331ebfa28653d42ae832dc59e38c9798f61032e61045f565b604080516001600160a01b03928316815291841660208301528051918290030190a16101d5816104c4565b600061036361045f565b6001600160a01b0316336001600160a01b031614156102945761028d61045f565b60606103a98383604051806060016040528060278152602001610732602791396104e8565b9392505050565b3b151590565b6103be61045f565b6001600160a01b0316336001600160a01b0316141561040e5760405162461bcd60e51b81526004018080602001828103825260428152602001806107b56042913960600191505060405180910390fd5b6101a96101a9565b7f360894a13ba1a3210667c828492db98dca3e2076cc3735a920a3ca505d382bbc5490565b3660008037600080366000845af43d6000803e80801561045a573d6000f35b3d6000fd5b7fb53127684a568b3173ae13b9f8a6016e243e63b6e8ee1178d6a717850b5d61035490565b61048d816105eb565b6040516001600160a01b038216907fbc7cd75a20ee27fd9adebab32041f755214dbc6bffa90cc0225b39da2e5c2d3b90600090a250565b7fb53127684a568b3173ae13b9f8a6016e243e63b6e8ee1178d6a717850b5d610355565b60606104f3846103b0565b61052e5760405162461bcd60e51b815260040180806020018281038252602681526020018061078f6026913960400191505060405180910390fd5b60006060856001600160a01b0316856040518082805190602001908083835b6020831061056c5780518252601f19909201916020918201910161054d565b6001836020036101000a038019825116818451168082178552505050505050905001915050600060405180830381855af49150503d80600081146105cc576040519150601f19603f3d011682016040523d82523d6000602084013e6105d1565b606091505b50915091506105e1828286610653565b9695505050505050565b6105f4816103b0565b61062f5760405162461bcd60e51b81526004018080602001828103825260368152602001806107596036913960400191505060405180910390fd5b7f360894a13ba1a3210667c828492db98dca3e2076cc3735a920a3ca505d382bbc55565b606083156106625750816103a9565b8251156106725782518084602001fd5b8160405162461bcd60e51b81526004018080602001828103825283818151815260200191508051906020019080838360005b838110156106bc5781810151838201526020016106a4565b50505050905090810190601f1680156106e95780820380516001836020036101000a031916815260200191505b509250505060405180910390fdfe5472616e73706172656e745570677261646561626c6550726f78793a206e65772061646d696e20697320746865207a65726f2061646472657373416464726573733a206c6f772d6c6576656c2064656c65676174652063616c6c206661696c65645570677261646561626c6550726f78793a206e657720696d706c656d656e746174696f6e206973206e6f74206120636f6e7472616374416464726573733a2064656c65676174652063616c6c20746f206e6f6e2d636f6e74726163745472616e73706172656e745570677261646561626c6550726f78793a2061646d696e2063616e6e6f742066616c6c6261636b20746f2070726f787920746172676574a2646970667358221220175110956fa0a7ff1615f55e1422acff6edcec0099d7ea0bae101f4f6228c8bd64736f6c634300060b0033b53127684a568b3173ae13b9f8a6016e243e63b6e8ee1178d6a717850b5d6103360894a13ba1a3210667c828492db98dca3e2076cc3735a920a3ca505d382bbc416464726573733a206c6f772d6c6576656c2064656c65676174652063616c6c206661696c65645570677261646561626c6550726f78793a206e657720696d706c656d656e746174696f6e206973206e6f74206120636f6e7472616374416464726573733a2064656c65676174652063616c6c20746f206e6f6e2d636f6e7472616374608060405234801561001057600080fd5b50600080546001600160a01b0319163317905561062c806100326000396000f3fe608060405234801561001057600080fd5b50600436106100575760003560e01c806313af40351461005c57806337ca2617146100845780633b99adf7146101355780638da5cb5b14610258578063babcc5391461027c575b600080fd5b6100826004803603602081101561007257600080fd5b50356001600160a01b03166102b6565b005b6100826004803603604081101561009a57600080fd5b6001600160a01b038235169190810190604081016020820135600160201b8111156100c457600080fd5b8201836020820111156100d657600080fd5b803590602001918460208302840111600160201b831117156100f757600080fd5b919080806020026020016040519081016040528093929190818152602001838360200280828437600092019190915250929550610356945050505050565b6100826004803603604081101561014b57600080fd5b810190602081018135600160201b81111561016557600080fd5b82018360208201111561017757600080fd5b803590602001918460208302840111600160201b8311171561019857600080fd5b9190808060200260200160405190810160405280939291908181526020018383602002808284376000920191909152509295949360208101935035915050600160201b8111156101e757600080fd5b8201836020820111156101f957600080fd5b803590602001918460208302840111600160201b8311171561021a57600080fd5b9190808060200260200160405190810160405280939291908181526020018383602002808284376000920191909152509295506104d1945050505050565b6102606105d2565b604080516001600160a01b039092168252519081900360200190f35b6102a26004803603602081101561029257600080fd5b50356001600160a01b03166105e1565b604080519115158252519081900360200190f35b6000546001600160a01b03163314610302576040805162461bcd60e51b815260206004820152600a60248201526927a7262cafa7aba722a960b11b604482015290519081900360640190fd5b600080546001600160a01b0383166001600160a01b0319909116811790915560408051918252517f4ffd725fc4a22075e9ec71c59edf9c38cdeb588a91b24fc5b61388c5be41282b9181900360200190a150565b6000546001600160a01b031633146103a2576040805162461bcd60e51b815260206004820152600a60248201526927a7262cafa7aba722a960b11b604482015290519081900360640190fd5b60005b815181101561043d578181815181106103ba57fe5b60200260200101516001600160a01b03166347466f98846040518263ffffffff1660e01b815260040180826001600160a01b03166001600160a01b03168152602001915050600060405180830381600087803b15801561041957600080fd5b505af115801561042d573d6000803e3d6000fd5b5050600190920191506103a59050565b507fd86884520a0656812619831f2b97aa7c77f8064735a7c312f358b9943d30eb78828260405180836001600160a01b03166001600160a01b0316815260200180602001828103825283818151815260200191508051906020019060200280838360005b838110156104b95781810151838201526020016104a1565b50505050905001935050505060405180910390a15050565b6000546001600160a01b0316331461051d576040805162461bcd60e51b815260206004820152600a60248201526927a7262cafa7aba722a960b11b604482015290519081900360640190fd5b8051825114610563576040805162461bcd60e51b815260206004820152600d60248201526c1253959053125117d253941555609a1b604482015290519081900360640190fd5b60005b82518110156105cd5781818151811061057b57fe5b60200260200101516001600085848151811061059357fe5b6020908102919091018101516001600160a01b03168252810191909152604001600020805460ff1916911515919091179055600101610566565b505050565b6000546001600160a01b031681565b60016020526000908152604090205460ff168156fea2646970667358221220915b69a94e7cea52741f789a179906fe738f312cf8e3e79db5c2ccb8581063b564736f6c634300060b00334f776e61626c653a206e6577206f776e657220697320746865207a65726f20616464726573734f776e61626c653a2063616c6c6572206973206e6f7420746865206f776e6572a2646970667358221220fe0ab0f7f3dffe70a813a9ffde556aaf533bdcdd3cf7cb2fa7dfe059aabdbd9864736f6c634300060b0033608060405234801561001057600080fd5b506112de806100206000396000f3fe6080604052600436106100c85760003560e01c8063945e11471161007a578063945e1147146101f75780639e5d4c4914610221578063ab5d894314610336578063c29372de1461034b578063cee3d7281461037e578063d9dd67ab146103b9578063e45b7ce6146103e3578063f2fde38b1461041e576100c8565b806302bbfad1146100cd5780633dbcc8d114610114578063413b35bd14610129578063715018a6146101705780637ee94329146101875780638129fc1c146101cd5780638da5cb5b146101e2575b600080fd5b610102600480360360608110156100e357600080fd5b5060ff813516906001600160a01b036020820135169060400135610451565b60408051918252519081900360200190f35b34801561012057600080fd5b506101026104bf565b34801561013557600080fd5b5061015c6004803603602081101561014c57600080fd5b50356001600160a01b03166104c5565b604080519115158252519081900360200190f35b34801561017c57600080fd5b506101856104e6565b005b34801561019357600080fd5b506101b1600480360360208110156101aa57600080fd5b5035610580565b604080516001600160a01b039092168252519081900360200190f35b3480156101d957600080fd5b506101856105a7565b3480156101ee57600080fd5b506101b1610651565b34801561020357600080fd5b506101b16004803603602081101561021a57600080fd5b5035610660565b34801561022d57600080fd5b506102b36004803603606081101561024457600080fd5b6001600160a01b038235169160208101359181019060608101604082013564010000000081111561027457600080fd5b82018360208201111561028657600080fd5b803590602001918460018302840111640100000000831117156102a857600080fd5b50909250905061066d565b604051808315151515815260200180602001828103825283818151815260200191508051906020019080838360005b838110156102fa5781810151838201526020016102e2565b50505050905090810190601f1680156103275780820380516001836020036101000a031916815260200191505b50935050505060405180910390f35b34801561034257600080fd5b506101b1610841565b34801561035757600080fd5b5061015c6004803603602081101561036e57600080fd5b50356001600160a01b0316610850565b34801561038a57600080fd5b50610185600480360360408110156103a157600080fd5b506001600160a01b0381351690602001351515610871565b3480156103c557600080fd5b50610102600480360360208110156103dc57600080fd5b5035610aea565b3480156103ef57600080fd5b506101856004803603604081101561040657600080fd5b506001600160a01b0381351690602001351515610b08565b34801561042a57600080fd5b506101856004803603602081101561044157600080fd5b50356001600160a01b0316610d7f565b3360009081526065602052604081206001015460ff166104a9576040805162461bcd60e51b815260206004820152600e60248201526d09c9ea8be8ca49e9abe929c849eb60931b604482015290519081900360640190fd5b6104b7848443423a87610e70565b949350505050565b606a5490565b6001600160a01b031660009081526066602052604090206001015460ff1690565b6104ee610f33565b6001600160a01b03166104ff610651565b6001600160a01b031614610548576040805162461bcd60e51b81526020600482018190526024820152600080516020611269833981519152604482015290519081900360640190fd5b6033546040516000916001600160a01b031690600080516020611289833981519152908390a3603380546001600160a01b0319169055565b6067818154811061058d57fe5b6000918252602090912001546001600160a01b0316905081565b600054610100900460ff16806105c057506105c0610f37565b806105ce575060005460ff16155b6106095760405162461bcd60e51b815260040180806020018281038252602e81526020018061123b602e913960400191505060405180910390fd5b600054610100900460ff16158015610634576000805460ff1961ff0019909116610100171660011790555b61063c610f48565b801561064e576000805461ff00191690555b50565b6033546001600160a01b031690565b6068818154811061058d57fe5b3360009081526066602052604081206001015460609060ff166106c9576040805162461bcd60e51b815260206004820152600f60248201526e09c9ea8be8ca49e9abe9eaaa8849eb608b1b604482015290519081900360640190fd5b8215610724576106e1866001600160a01b0316610fe5565b610724576040805162461bcd60e51b815260206004820152600f60248201526e1393d7d0d3d11157d05517d11154d5608a1b604482015290519081900360640190fd5b606980546001600160a01b0319811633179091556040516001600160a01b0391821691881690879087908790808383808284376040519201945060009350909150508083038185875af1925050503d806000811461079e576040519150601f19603f3d011682016040523d82523d6000602084013e6107a3565b606091505b50606980546001600160a01b0319166001600160a01b0385811691909117909155604080518a81526020810182815291810189905293965091945089169133917f2d9d115ef3e4a606d698913b1eae831a3cdfe20d9a83d48007b0526749c3d466918a918a918a9160608201848480828437600083820152604051601f909101601f1916909201829003965090945050505050a35094509492505050565b6069546001600160a01b031681565b6001600160a01b031660009081526065602052604090206001015460ff1690565b610879610f33565b6001600160a01b031661088a610651565b6001600160a01b0316146108d3576040805162461bcd60e51b81526020600482018190526024820152600080516020611269833981519152604482015290519081900360640190fd5b6001600160a01b0382166000818152606660209081526040918290206001810154835186151581529351919460ff9091169390927f49477e7356dbcb654ab85d7534b50126772d938130d1350e23e2540370c8dffa92918290030190a280801561093a5750825b8061094c57508015801561094c575082155b15610958575050610ae6565b82156109e757604080518082018252606880548252600160208084018281526001600160a01b038a16600081815260669093529582209451855551938201805460ff1916941515949094179093558154908101825591527fa2153420d844928b4421650203c77babc8b33d7f2e7b450e2966db0c220977530180546001600160a01b0319169091179055610ae3565b6068805460001981019081106109f957fe5b6000918252602090912001548254606880546001600160a01b03909316929091908110610a2257fe5b9060005260206000200160006101000a8154816001600160a01b0302191690836001600160a01b031602179055508160000154606660006068856000015481548110610a6a57fe5b60009182526020808320909101546001600160a01b031683528201929092526040019020556068805480610a9a57fe5b60008281526020808220830160001990810180546001600160a01b03191690559092019092556001600160a01b03861682526066905260408120908155600101805460ff191690555b50505b5050565b606a8181548110610af757fe5b600091825260209091200154905081565b610b10610f33565b6001600160a01b0316610b21610651565b6001600160a01b031614610b6a576040805162461bcd60e51b81526020600482018190526024820152600080516020611269833981519152604482015290519081900360640190fd5b6001600160a01b0382166000818152606560209081526040918290206001810154835186151581529351919460ff9091169390927f6675ce8882cb71637de5903a193d218cc0544be9c0650cb83e0955f6aa2bf52192918290030190a2808015610bd15750825b80610be3575080158015610be3575082155b15610bef575050610ae6565b8215610c7e57604080518082018252606780548252600160208084018281526001600160a01b038a16600081815260659093529582209451855551938201805460ff1916941515949094179093558154908101825591527f9787eeb91fe3101235e4a76063c7023ecb40f923f97916639c598592fa30d6ae0180546001600160a01b0319169091179055610ae3565b606780546000198101908110610c9057fe5b6000918252602090912001548254606780546001600160a01b03909316929091908110610cb957fe5b9060005260206000200160006101000a8154816001600160a01b0302191690836001600160a01b031602179055508160000154606560006067856000015481548110610d0157fe5b60009182526020808320909101546001600160a01b031683528201929092526040019020556067805480610d3157fe5b60008281526020808220830160001990810180546001600160a01b03191690559092019092556001600160a01b03861682526065905260408120908155600101805460ff1916905550505050565b610d87610f33565b6001600160a01b0316610d98610651565b6001600160a01b031614610de1576040805162461bcd60e51b81526020600482018190526024820152600080516020611269833981519152604482015290519081900360640190fd5b6001600160a01b038116610e265760405162461bcd60e51b81526004018080602001828103825260268152602001806112156026913960400191505060405180910390fd5b6033546040516001600160a01b0380841692169060008051602061128983398151915290600090a3603380546001600160a01b0319166001600160a01b0392909216919091179055565b606a5460009081610e8689898989868a8a610feb565b905060008215610eae57606a6001840381548110610ea057fe5b906000526020600020015490505b606a610eba8284611061565b8154600181018355600092835260209283902001556040805133815260ff8d16928101929092526001600160a01b038b16828201526060820187905251829185917f23be8e12e420b5da9fb98d8102572f640fb3c11a0085060472dfc0ed194b3cf79181900360800190a3509098975050505050505050565b3390565b6000610f4230610fe5565b15905090565b600054610100900460ff1680610f615750610f61610f37565b80610f6f575060005460ff16155b610faa5760405162461bcd60e51b815260040180806020018281038252602e81526020018061123b602e913960400191505060405180910390fd5b600054610100900460ff16158015610fd5576000805460ff1961ff0019909116610100171660011790555b610fdd61108d565b61063c61112d565b3b151590565b6040805160f89890981b6001600160f81b0319166020808a019190915260609790971b6bffffffffffffffffffffffff19166021890152603588019590955260558701939093526075860191909152609585015260b5808501919091528151808503909101815260d59093019052815191012090565b604080516020808201949094528082019290925280518083038201815260609092019052805191012090565b600054610100900460ff16806110a657506110a6610f37565b806110b4575060005460ff16155b6110ef5760405162461bcd60e51b815260040180806020018281038252602e81526020018061123b602e913960400191505060405180910390fd5b600054610100900460ff1615801561063c576000805460ff1961ff001990911661010017166001179055801561064e576000805461ff001916905550565b600054610100900460ff16806111465750611146610f37565b80611154575060005460ff16155b61118f5760405162461bcd60e51b815260040180806020018281038252602e81526020018061123b602e913960400191505060405180910390fd5b600054610100900460ff161580156111ba576000805460ff1961ff0019909116610100171660011790555b60006111c4610f33565b603380546001600160a01b0319166001600160a01b03831690811790915560405191925090600090600080516020611289833981519152908290a350801561064e576000805461ff00191690555056fe4f776e61626c653a206e6577206f776e657220697320746865207a65726f2061646472657373496e697469616c697a61626c653a20636f6e747261637420697320616c726561647920696e697469616c697a65644f776e61626c653a2063616c6c6572206973206e6f7420746865206f776e65728be0079c531659141344cd1fd0a4f28419497f9722a3daafe3b4186f6b6457e0a2646970667358221220a38aa991fe7cf08f2acb1ab305d2972c008682f02b4d210d0832d8dc66d021ac64736f6c634300060b0033608060405234801561001057600080fd5b506000805460ff19166001179055611e208061002d6000396000f3fe608060405234801561001057600080fd5b50600436106101375760003560e01c80636f791d29116100b8578063c0c53b8b1161007c578063c0c53b8b14610643578063cb23bcb51461067b578063d9b141ff14610683578063d9dd67ab1461068b578063dc1b7b1f1461013c578063e367a2c1146106a857610137565b80636f791d29146105065780637fa3a40e1461050e5780638a2df18d1461051657806395fcea7814610633578063b71939b11461063b57610137565b80633dbcc8d1116100ff5780633dbcc8d11461036f57806344c7cc30146103775780634d480faa146104855780635c1bba38146104a85780636d46e987146104cc57610137565b806306cc91b21461013c5780630c4a1e59146101c35780631a734229146102195780631f95663214610327578063342025fa14610355575b600080fd5b6101aa6004803603604081101561015257600080fd5b810190602081018135600160201b81111561016c57600080fd5b82018360208201111561017e57600080fd5b803590602001918460018302840111600160201b8311171561019f57600080fd5b9193509150356106b0565b6040805192835260208301919091528051918290030190f35b61021760048036036101208110156101da57600080fd5b5080359060ff60208201351690604081019060808101359060a0810135906001600160a01b0360c0820135169060e08101359061010001356106cb565b005b6102176004803603608081101561022f57600080fd5b810190602081018135600160201b81111561024957600080fd5b82018360208201111561025b57600080fd5b803590602001918460018302840111600160201b8311171561027c57600080fd5b919390929091602081019035600160201b81111561029957600080fd5b8201836020820111156102ab57600080fd5b803590602001918460208302840111600160201b831117156102cc57600080fd5b919390929091602081019035600160201b8111156102e957600080fd5b8201836020820111156102fb57600080fd5b803590602001918460208302840111600160201b8311171561031c57600080fd5b919350915035610a37565b6102176004803603604081101561033d57600080fd5b506001600160a01b0381351690602001351515610b90565b61035d610c41565b60408051918252519081900360200190f35b61035d610c47565b6102176004803603608081101561038d57600080fd5b810190602081018135600160201b8111156103a757600080fd5b8201836020820111156103b957600080fd5b803590602001918460018302840111600160201b831117156103da57600080fd5b919390929091602081019035600160201b8111156103f757600080fd5b82018360208201111561040957600080fd5b803590602001918460208302840111600160201b8311171561042a57600080fd5b919390929091602081019035600160201b81111561044757600080fd5b82018360208201111561045957600080fd5b803590602001918460208302840111600160201b8311171561047a57600080fd5b919350915035610c4d565b6102176004803603604081101561049b57600080fd5b5080359060200135610d3a565b6104b0610dd0565b604080516001600160a01b039092168252519081900360200190f35b6104f2600480360360208110156104e257600080fd5b50356001600160a01b0316610ddf565b604080519115158252519081900360200190f35b6104f2610df4565b61035d610dfd565b610217600480360360a081101561052c57600080fd5b810190602081018135600160201b81111561054657600080fd5b82018360208201111561055857600080fd5b803590602001918460018302840111600160201b8311171561057957600080fd5b919390929091602081019035600160201b81111561059657600080fd5b8201836020820111156105a857600080fd5b803590602001918460208302840111600160201b831117156105c957600080fd5b919390929091602081019035600160201b8111156105e657600080fd5b8201836020820111156105f857600080fd5b803590602001918460208302840111600160201b8311171561061957600080fd5b9193509150803590602001356001600160a01b0316610e03565b610217610f9d565b6104b0610ffa565b6102176004803603606081101561065957600080fd5b506001600160a01b038135811691602081013582169160409091013516611009565b6104b06110a0565b61035d6110af565b61035d600480360360208110156106a157600080fd5b50356110b5565b61035d6110d3565b6000806106be8585856110d9565b915091505b935093915050565b6003548811610715576040805162461bcd60e51b815260206004820152601160248201527044454c415945445f4241434b574152445360781b604482015290519081900360640190fd5b600061072b8885893560208b01358a8a89611226565b6008549091504388359091011061077c576040805162461bcd60e51b815260206004820152601060248201526f4d41585f44454c41595f424c4f434b5360801b604482015290519081900360640190fd5b600954426020890135909101106107cb576040805162461bcd60e51b815260206004820152600e60248201526d4d41585f44454c41595f54494d4560901b604482015290519081900360640190fd5b600060018a111561085557600480546040805163d9dd67ab60e01b81526001198e0193810193909352516001600160a01b039091169163d9dd67ab916024808301926020929190829003018186803b15801561082657600080fd5b505afa15801561083a573d6000803e3d6000fd5b505050506040513d602081101561085057600080fd5b505190505b61085f818361129c565b600480546040805163d9dd67ab60e01b81526000198f0193810193909352516001600160a01b039091169163d9dd67ab916024808301926020929190829003018186803b1580156108af57600080fd5b505afa1580156108c3573d6000803e3d6000fd5b505050506040513d60208110156108d957600080fd5b505114610923576040805162461bcd60e51b81526020600482015260136024820152722222a620aca2a22fa0a1a1aaa6aaa620aa27a960691b604482015290519081900360640190fd5b5050600254600154600090156109535760018054600019810190811061094557fe5b906000526020600020015490505b60008061096483858e43428a6112c8565b9150915060018290806001815401808255809150506001900390600052602060002001600090919091909150558060028190555082847f85b6a949bf20bfd6bc6e20f98fb490c7944ab61dcfa5a30b5dae543412c9a8a0838f60405180604001604052808881526020018b81525060018080549050036040518085815260200184815260200183600260200280838360005b83811015610a0e5781810151838201526020016109f6565b5050505090500182815260200194505050505060405180910390a3505050505050505050505050565b600060025490506000610a8689898080601f0160208091040260200160405190810160405280939291908181526020018383808284376000920191909152508b92508a9150899050888861152c565b905080827f3bf85aebd2a1dc6c510ffc4795a3785e786b5817ab30144f88501d4c6456c986600254868d8d8d8d8d8d600180805490500333604051808b81526020018a8152602001806020018060200180602001868152602001856001600160a01b03166001600160a01b0316815260200184810384528c8c82818152602001925080828437600083820152601f01601f191690910185810384528a8152602090810191508b908b0280828437600083820152601f01601f19169091018581038352888152602090810191508990890280828437600083820152604051601f909101601f19169092018290039f50909d5050505050505050505050505050a3505050505050505050565b6006546001600160a01b03163314610bdd576040805162461bcd60e51b815260206004820152600b60248201526a04f4e4c595f524f4c4c55560ac1b604482015290519081900360640190fd5b6001600160a01b038216600081815260076020908152604091829020805460ff191685151590811790915582519384529083015280517fce86e570206e55533301cb66529b33afbd75e991c575b85adeaca10146be8cb49281900390910190a15050565b60095481565b60025481565b333214610c8f576040805162461bcd60e51b815260206004820152600b60248201526a6f726967696e206f6e6c7960a81b604482015290519081900360640190fd5b600060025490506000610cde89898080601f0160208091040260200160405190810160405280939291908181526020018383808284376000920191909152508b92508a9150899050888861152c565b60025460015460408051928352602083018790526000199091018282015251919250829184917f10e0571aafaf282151fd5b0215b5495521c549509cb0de3a3f8310bd2e344682919081900360600190a3505050505050505050565b6006546001600160a01b03163314610d87576040805162461bcd60e51b815260206004820152600b60248201526a04f4e4c595f524f4c4c55560ac1b604482015290519081900360640190fd5b60088290556009819055604080518381526020810183905281517f3bcd3c6d4304309e4b36d94f90517baf304582bb1ac828906808577e067e6b6e929181900390910190a15050565b6005546001600160a01b031690565b60076020526000908152604090205460ff1681565b60005460ff1690565b60035481565b333214610e45576040805162461bcd60e51b815260206004820152600b60248201526a6f726967696e206f6e6c7960a81b604482015290519081900360640190fd5b60005a600254604080516020601f8d018190048102820181019092528b81529293503692600091610e9891908e908e90819084018382808284376000920191909152508e92508d91508c90508b8b61152c565b60025460015460408051928352602083018a90526000199091018282015251919250829184917f10e0571aafaf282151fd5b0215b5495521c549509cb0de3a3f8310bd2e344682919081900360600190a36001600160a01b03851615610f8f57846001600160a01b031663e3db8a49335a8703866040518463ffffffff1660e01b815260040180846001600160a01b03166001600160a01b031681526020018381526020018281526020019350505050602060405180830381600087803b158015610f6257600080fd5b505af1158015610f76573d6000803e3d6000fd5b505050506040513d6020811015610f8c57600080fd5b50505b505050505050505050505050565b6000610fa7611aaa565b9050336001600160a01b03821614610ff7576040805162461bcd60e51b815260206004820152600e60248201526d2727aa2fa32927a6afa0a226a4a760911b604482015290519081900360640190fd5b50565b6004546001600160a01b031681565b6004546001600160a01b031615611056576040805162461bcd60e51b815260206004820152600c60248201526b1053149150511657d253925560a21b604482015290519081900360640190fd5b600480546001600160a01b039485166001600160a01b0319918216179091559183166000908152600760205260409020805460ff1916600117905560068054919093169116179055565b6006546001600160a01b031681565b60015490565b600181815481106110c257fe5b600091825260209091200154905081565b60085481565b600080826110ec575060009050806106c3565b60008061112e87878080601f01602080910402602001604051908101604052809392919081815260200183838082843760009201829052509250611acf915050565b9092509050600081156111665761116088888560018087038154811061115057fe5b9060005260206000200154611b43565b90935090505b60006001838154811061117557fe5b9060005260206000200154905060006111908a8a8785611b43565b90955090508288116111d7576040805162461bcd60e51b815260206004820152600b60248201526a10905510d217d4d510549560aa1b604482015290519081900360640190fd5b80881115611218576040805162461bcd60e51b815260206004820152600960248201526810905510d217d1539160ba1b604482015290519081900360640190fd5b999098509650505050505050565b6040805160f89890981b6001600160f81b0319166020808a019190915260609790971b6bffffffffffffffffffffffff19166021890152603588019590955260558701939093526075860191909152609585015260b5808501919091528151808503909101815260d59093019052815191012090565b604080516020808201949094528082019290925280518083038201815260609092019052805191012090565b6004805460408051633dbcc8d160e01b8152905160009384936001600160a01b031692633dbcc8d19281830192602092829003018186803b15801561130c57600080fd5b505afa158015611320573d6000803e3d6000fd5b505050506040513d602081101561133657600080fd5b505186111561137e576040805162461bcd60e51b815260206004820152600f60248201526e2222a620aca2a22faa27a7afa320a960891b604482015290519081900360640190fd5b600480546040805163d9dd67ab60e01b81526000198a0193810193909352516001600160a01b039091169163d9dd67ab916024808301926020929190829003018186803b1580156113ce57600080fd5b505afa1580156113e2573d6000803e3d6000fd5b505050506040513d60208110156113f857600080fd5b5051831461143b576040805162461bcd60e51b815260206004820152600b60248201526a44454c415945445f41434360a81b604482015290519081900360640190fd5b50506003805460408051702232b630bcb2b21036b2b9b9b0b3b2b99d60791b602080830191909152603182019a909a5260518101899052607181018390526091810188905260b1808201959095528151808203909501855260d1810182528451948a0194909420600060f186015261010585019690965261012580850195909552805180850390950185526101458401815284519489019490942060605160802061016585019690965290860390960161018583018190526101a58301969096526101c580830194909452825180830390940184526101e59091019091528151919094012092559091600190910190565b3360009081526007602052604081205460ff16611581576040805162461bcd60e51b815260206004820152600e60248201526d27a7262cafa9a2a8aaa2a721a2a960911b604482015290519081900360640190fd5b600154156115a95760018054600019810190811061159b57fe5b906000526020600020015490505b60025481600060208a01815b6005810188106119435760008989836001018181106115d057fe5b9050602002013590504360085482011015611622576040805162461bcd60e51b815260206004820152600d60248201526c109313d0d2d7d513d3d7d3d311609a1b604482015290519081900360640190fd5b43811115611667576040805162461bcd60e51b815260206004820152600d60248201526c424c4f434b5f544f4f5f4e455760981b604482015290519081900360640190fd5b50600089898360020181811061167957fe5b90506020020135905042600954820110156116ca576040805162461bcd60e51b815260206004820152600c60248201526b1512535157d513d3d7d3d31160a21b604482015290519081900360640190fd5b4281111561170e576040805162461bcd60e51b815260206004820152600c60248201526b54494d455f544f4f5f4e455760a01b604482015290519081900360640190fd5b506000338a8a8460010181811061172157fe5b905060200201358b8b8560020181811061173757fe5b9050602002013560405160200180846001600160a01b03166001600160a01b031660601b8152601401838152602001828152602001935050505060405160208183030381529060405280519060200120905060008a8a8481811061179757fe5b9050602002013590506117b0848e8e8885878d8d611d03565b9098509096509401939250600090508989600384018181106117ce57fe5b905060200201359050600354811015611822576040805162461bcd60e51b815260206004820152601160248201527044454c415945445f4241434b574152445360781b604482015290519081900360640190fd5b600181101561186c576040805162461bcd60e51b8152602060048201526011602482015270135554d517d111531056515117d2539255607a1b604482015290519081900360640190fd5b6001600354101580611890575089898381811061188557fe5b905060200201356000145b6118db576040805162461bcd60e51b8152602060048201526017602482015276135554d517d111531056515117d253925517d4d5105495604a1b604482015290519081900360640190fd5b60035481111561193a576119358587838d8d876001018181106118fa57fe5b905060200201358e8e8860020181811061191057fe5b905060200201358f8f8960040181811061192657fe5b9050602002013560001b6112c8565b965094505b506005016115b5565b5060208b018082101561198f576040805162461bcd60e51b815260206004820152600f60248201526e4f46465345545f4f564552464c4f5760881b604482015290519081900360640190fd5b8b5181018211156119de576040805162461bcd60e51b81526020600482015260146024820152732a2920a729a0a1aa24a7a729afa7ab22a9292aa760611b604482015290519081900360640190fd5b6002548511611a22576040805162461bcd60e51b815260206004820152600b60248201526a08a9aa0a8b2be8482a886960ab1b604482015290519081900360640190fd5b6001805480820182556000919091527fb10e2d527612073b26eecdfd717e6a320cf44b4afac2b0732d9fcbe2b7fa0cf6018490556002859055868414611a9b576040805162461bcd60e51b815260206004820152600960248201526841465445525f41434360b81b604482015290519081900360640190fd5b50505050509695505050505050565b7fb53127684a568b3173ae13b9f8a6016e243e63b6e8ee1178d6a717850b5d61035490565b60008082845110158015611ae7575060208385510310155b611b24576040805162461bcd60e51b81526020600482015260096024820152681d1bdbc81cda1bdc9d60ba1b604482015290519081900360640190fd5b60208301611b38858563ffffffff611d9116565b915091509250929050565b6000806000806000806000611b8f8b8b8080601f0160208091040260200160405190810160405280939291908181526020018383808284376000920191909152508d9250611acf915050565b809550819a505050611bd88b8b8080601f0160208091040260200160405190810160405280939291908181526020018383808284376000920191909152508d9250611acf915050565b809450819a505050611c218b8b8080601f0160208091040260200160405190810160405280939291908181526020018383808284376000920191909152508d9250611acf915050565b809350819a505050611c6a8b8b8080601f0160208091040260200160405190810160405280939291908181526020018383808284376000920191909152508d9250611acf915050565b604080516020808201989098528082018790526060810186905260808082018490528251808303909101815260a09091019091528051960195909520909950600184019550939050878414611cf2576040805162461bcd60e51b815260206004820152600960248201526842415443485f41434360b81b604482015290519081900360640190fd5b509699929850919650505050505050565b92840192808289875b87811015611d825760008b8b83818110611d2257fe5b60209081029290920135808620604080518086019a909a5289810189905260608a018d90526080808b01929092528051808b03909201825260a0909901909852875197909201969096209550600194850194930192919091019050611d0c565b50985098509895505050505050565b60008160200183511015611de1576040805162461bcd60e51b815260206004820152601260248201527152656164206f7574206f6620626f756e647360701b604482015290519081900360640190fd5b5001602001519056fea26469706673582212201e3ad7c74a67aed9eb7b1284d754dbfbaf58515630d9d28ea9e94832533ffdbf64736f6c634300060b0033608060405234801561001057600080fd5b506000805460ff60a01b1916600160a01b179055611e82806100336000396000f3fe60806040526004361061011f5760003560e01c80636f791d29116100a05780639fe12da5116100645780639fe12da514610681578063b4d9ec4414610696578063b75436bb146106ab578063e78cea9214610726578063fdebb9b31461073b5761011f565b80636f791d2914610561578063794cfd511461058a5780637ae8d8b31461059f5780638a631aa6146105b457806393e59dc1146106505761011f565b8063485cc955116100e7578063485cc955146102c15780635075788b146102fc5780635e9167581461039f578063679b6ded1461042957806367ef3ab8146104d25761011f565b80630f4d14e9146101245780631b871c8d146101535780631fe927cf146101fc5780632b40609a1461027757806347466f981461028e575b600080fd5b6101416004803603602081101561013a57600080fd5b5035610750565b60408051918252519081900360200190f35b610141600480360361010081101561016a57600080fd5b6001600160a01b038235811692602081013592604082013592606083013581169260808101359091169160a08201359160c081013591810190610100810160e0820135600160201b8111156101be57600080fd5b8201836020820111156101d057600080fd5b803590602001918460018302840111600160201b831117156101f157600080fd5b50909250905061093d565b34801561020857600080fd5b506101416004803603602081101561021f57600080fd5b810190602081018135600160201b81111561023957600080fd5b82018360208201111561024b57600080fd5b803590602001918460018302840111600160201b8311171561026c57600080fd5b509092509050610b1d565b34801561028357600080fd5b5061028c610c8a565b005b34801561029a57600080fd5b5061028c600480360360208110156102b157600080fd5b50356001600160a01b0316610e52565b3480156102cd57600080fd5b5061028c600480360360408110156102e457600080fd5b506001600160a01b0381358116916020013516610ef5565b34801561030857600080fd5b50610141600480360360c081101561031f57600080fd5b8135916020810135916040820135916001600160a01b03606082013516916080820135919081019060c0810160a0820135600160201b81111561036157600080fd5b82018360208201111561037357600080fd5b803590602001918460018302840111600160201b8311171561039457600080fd5b509092509050610f70565b610141600480360360808110156103b557600080fd5b8135916020810135916001600160a01b036040830135169190810190608081016060820135600160201b8111156103eb57600080fd5b8201836020820111156103fd57600080fd5b803590602001918460018302840111600160201b8311171561041e57600080fd5b5090925090506110c5565b610141600480360361010081101561044057600080fd5b6001600160a01b038235811692602081013592604082013592606083013581169260808101359091169160a08201359160c081013591810190610100810160e0820135600160201b81111561049457600080fd5b8201836020820111156104a657600080fd5b803590602001918460018302840111600160201b831117156104c757600080fd5b509092509050611210565b610141600480360360a08110156104e857600080fd5b8135916020810135916040820135916001600160a01b036060820135169181019060a081016080820135600160201b81111561052357600080fd5b82018360208201111561053557600080fd5b803590602001918460018302840111600160201b8311171561055657600080fd5b509092509050611349565b34801561056d57600080fd5b5061057661149d565b604080519115158252519081900360200190f35b34801561059657600080fd5b5061028c6114ad565b3480156105ab57600080fd5b5061028c61166f565b3480156105c057600080fd5b50610141600480360360a08110156105d757600080fd5b8135916020810135916001600160a01b036040830135169160608101359181019060a081016080820135600160201b81111561061257600080fd5b82018360208201111561062457600080fd5b803590602001918460018302840111600160201b8311171561064557600080fd5b50909250905061183a565b34801561065c57600080fd5b5061066561197b565b604080516001600160a01b039092168252519081900360200190f35b34801561068d57600080fd5b5061028c61198a565b3480156106a257600080fd5b50610576611b49565b3480156106b757600080fd5b50610141600480360360208110156106ce57600080fd5b810190602081018135600160201b8111156106e857600080fd5b8201836020820111156106fa57600080fd5b803590602001918460018302840111600160201b8311171561071b57600080fd5b509092509050611b59565b34801561073257600080fd5b50610665611cb9565b34801561074757600080fd5b50610576611cc8565b600080546001600160a01b03161561081c576000546040805163babcc53960e01b815233600482015290516001600160a01b039092169163babcc53991602480820192602092909190829003018186803b1580156107ad57600080fd5b505afa1580156107c1573d6000803e3d6000fd5b505050506040513d60208110156107d757600080fd5b505161081c576040805162461bcd60e51b815260206004820152600f60248201526e1393d517d5d2125511531254d51151608a1b604482015290519081900360640190fd5b600154600160a01b900460ff1615610876576040805162461bcd60e51b815260206004820152601860248201527710d49150551157d4915514965050931154d7d4105554d15160421b604482015290519081900360640190fd5b60015433908190600160a81b900460ff16156108c25761089582611cd8565b1580156108a157503233145b156108b6576108af82611cde565b91506108c2565b6108bf81611ced565b90505b604080516001600160a01b0383166020820181905260008284018190523460608401526080830188905260a0830182905260c083019190915260e0820181905261010082018190526101208083019190915282518083039091018152610140909101909152610935906009908490611cfb565b949350505050565b600080546001600160a01b031615610a09576000546040805163babcc53960e01b815233600482015290516001600160a01b039092169163babcc53991602480820192602092909190829003018186803b15801561099a57600080fd5b505afa1580156109ae573d6000803e3d6000fd5b505050506040513d60208110156109c457600080fd5b5051610a09576040805162461bcd60e51b815260206004820152600f60248201526e1393d517d5d2125511531254d51151608a1b604482015290519081900360640190fd5b600154600160a01b900460ff1615610a63576040805162461bcd60e51b815260206004820152601860248201527710d49150551157d4915514965050931154d7d4105554d15160421b604482015290519081900360640190fd5b610b0f6009338c60601b60601c6001600160a01b03168c348d8d60601b60601c6001600160a01b03168d60601b60601c6001600160a01b03168d8d8d8d90508e8e604051602001808c81526020018b81526020018a8152602001898152602001888152602001878152602001868152602001858152602001848152602001838380828437808301925050509b505050505050505050505050604051602081830303815290604052611cfb565b9a9950505050505050505050565b600080546001600160a01b031615610be9576000546040805163babcc53960e01b815233600482015290516001600160a01b039092169163babcc53991602480820192602092909190829003018186803b158015610b7a57600080fd5b505afa158015610b8e573d6000803e3d6000fd5b505050506040513d6020811015610ba457600080fd5b5051610be9576040805162461bcd60e51b815260206004820152600f60248201526e1393d517d5d2125511531254d51151608a1b604482015290519081900360640190fd5b333214610c2b576040805162461bcd60e51b815260206004820152600b60248201526a6f726967696e206f6e6c7960a81b604482015290519081900360640190fd5b6000610c5560033386866040518083838082843760405192018290039091209350611db492505050565b60405190915081907fab532385be8f1005a4b6ba8fa20a2245facb346134ac739fe9a5198dc1580b9c90600090a29392505050565b60015460408051638da5cb5b60e01b815290516000926001600160a01b031691638da5cb5b916004808301926020929190829003018186803b158015610ccf57600080fd5b505afa158015610ce3573d6000803e3d6000fd5b505050506040513d6020811015610cf957600080fd5b505160408051638da5cb5b60e01b815290519192506000916001600160a01b03841691638da5cb5b916004808301926020929190829003018186803b158015610d4157600080fd5b505afa158015610d55573d6000803e3d6000fd5b505050506040513d6020811015610d6b57600080fd5b50519050336001600160a01b03821614610db9576040805162461bcd60e51b815260206004820152600a60248201526904e4f545f524f4c4c55560b41b604482015290519081900360640190fd5b600154600160a01b900460ff1615610e09576040805162461bcd60e51b815260206004820152600e60248201526d1053149150511657d4105554d15160921b604482015290519081900360640190fd5b6001805460ff60a01b1916600160a01b17815560408051918252517f9077d36bc00859b5c3f320310707208543dd35092cb0a0fe117d0c6a558b148b9181900360200190a15050565b6000546001600160a01b03163314610ea1576040805162461bcd60e51b815260206004820152600d60248201526c1393d517d19493d357d31254d5609a1b604482015290519081900360640190fd5b600080546001600160a01b0383166001600160a01b0319909116811790915560408051918252517f37389c47920d5cc3229678a0205d0455002c07541a4139ebdce91ac2274657779181900360200190a150565b6001546001600160a01b031615610f42576040805162461bcd60e51b815260206004820152600c60248201526b1053149150511657d253925560a21b604482015290519081900360640190fd5b600180546001600160a01b039384166001600160a01b03199182161790915560008054929093169116179055565b600080546001600160a01b03161561103c576000546040805163babcc53960e01b815233600482015290516001600160a01b039092169163babcc53991602480820192602092909190829003018186803b158015610fcd57600080fd5b505afa158015610fe1573d6000803e3d6000fd5b505050506040513d6020811015610ff757600080fd5b505161103c576040805162461bcd60e51b815260206004820152600f60248201526e1393d517d5d2125511531254d51151608a1b604482015290519081900360640190fd5b6110b960033360008b8b8b8b60601b60601c6001600160a01b03168b8b8b604051602001808960ff1660ff1660f81b81526001018881526020018781526020018681526020018581526020018481526020018383808284378083019250505098505050505050505050604051602081830303815290604052611cfb565b98975050505050505050565b600080546001600160a01b031615611191576000546040805163babcc53960e01b815233600482015290516001600160a01b039092169163babcc53991602480820192602092909190829003018186803b15801561112257600080fd5b505afa158015611136573d6000803e3d6000fd5b505050506040513d602081101561114c57600080fd5b5051611191576040805162461bcd60e51b815260206004820152600f60248201526e1393d517d5d2125511531254d51151608a1b604482015290519081900360640190fd5b611206600733600189898960601b60601c6001600160a01b0316348a8a604051602001808860ff1660ff1660f81b815260010187815260200186815260200185815260200184815260200183838082843780830192505050975050505050505050604051602081830303815290604052611cfb565b9695505050505050565b600080546001600160a01b0316156112dc576000546040805163babcc53960e01b815233600482015290516001600160a01b039092169163babcc53991602480820192602092909190829003018186803b15801561126d57600080fd5b505afa158015611281573d6000803e3d6000fd5b505050506040513d602081101561129757600080fd5b50516112dc576040805162461bcd60e51b815260206004820152600f60248201526e1393d517d5d2125511531254d51151608a1b604482015290519081900360640190fd5b600154600160a81b900460ff1680156112f957506112f987611cd8565b1561130a5761130787611ced565b96505b600154600160a81b900460ff168015611327575061132786611cd8565b156113385761133586611ced565b95505b610b0f8a8a8a8a8a8a8a8a8a61093d565b600080546001600160a01b031615611415576000546040805163babcc53960e01b815233600482015290516001600160a01b039092169163babcc53991602480820192602092909190829003018186803b1580156113a657600080fd5b505afa1580156113ba573d6000803e3d6000fd5b505050506040513d60208110156113d057600080fd5b5051611415576040805162461bcd60e51b815260206004820152600f60248201526e1393d517d5d2125511531254d51151608a1b604482015290519081900360640190fd5b61149260073360008a8a8a8a60601b60601c6001600160a01b0316348b8b604051602001808960ff1660ff1660f81b81526001018881526020018781526020018681526020018581526020018481526020018383808284378083019250505098505050505050505050604051602081830303815290604052611cfb565b979650505050505050565b600054600160a01b900460ff1690565b60015460408051638da5cb5b60e01b815290516000926001600160a01b031691638da5cb5b916004808301926020929190829003018186803b1580156114f257600080fd5b505afa158015611506573d6000803e3d6000fd5b505050506040513d602081101561151c57600080fd5b505160408051638da5cb5b60e01b815290519192506000916001600160a01b03841691638da5cb5b916004808301926020929190829003018186803b15801561156457600080fd5b505afa158015611578573d6000803e3d6000fd5b505050506040513d602081101561158e57600080fd5b50519050336001600160a01b038216146115dc576040805162461bcd60e51b815260206004820152600a60248201526904e4f545f524f4c4c55560b41b604482015290519081900360640190fd5b600154600160a81b900460ff1661162a576040805162461bcd60e51b815260206004820152600d60248201526c4e4f545f524557524954494e4760981b604482015290519081900360640190fd5b6001805460ff60a81b19169055604080516000815290517fab1ea65fd25ce96d303e895d1bd43edddb89841544a3705d3e61fc947a5fc25b9181900360200190a15050565b60015460408051638da5cb5b60e01b815290516000926001600160a01b031691638da5cb5b916004808301926020929190829003018186803b1580156116b457600080fd5b505afa1580156116c8573d6000803e3d6000fd5b505050506040513d60208110156116de57600080fd5b505160408051638da5cb5b60e01b815290519192506000916001600160a01b03841691638da5cb5b916004808301926020929190829003018186803b15801561172657600080fd5b505afa15801561173a573d6000803e3d6000fd5b505050506040513d602081101561175057600080fd5b50519050336001600160a01b0382161461179e576040805162461bcd60e51b815260206004820152600a60248201526904e4f545f524f4c4c55560b41b604482015290519081900360640190fd5b600154600160a81b900460ff16156117f1576040805162461bcd60e51b8152602060048201526011602482015270414c52454144595f524557524954494e4760781b604482015290519081900360640190fd5b6001805460ff60a81b1916600160a81b17815560408051918252517fab1ea65fd25ce96d303e895d1bd43edddb89841544a3705d3e61fc947a5fc25b9181900360200190a15050565b600080546001600160a01b031615611906576000546040805163babcc53960e01b815233600482015290516001600160a01b039092169163babcc53991602480820192602092909190829003018186803b15801561189757600080fd5b505afa1580156118ab573d6000803e3d6000fd5b505050506040513d60208110156118c157600080fd5b5051611906576040805162461bcd60e51b815260206004820152600f60248201526e1393d517d5d2125511531254d51151608a1b604482015290519081900360640190fd5b61149260033360018a8a8a60601b60601c6001600160a01b03168a8a8a604051602001808860ff1660ff1660f81b815260010187815260200186815260200185815260200184815260200183838082843780830192505050975050505050505050604051602081830303815290604052611cfb565b6000546001600160a01b031681565b60015460408051638da5cb5b60e01b815290516000926001600160a01b031691638da5cb5b916004808301926020929190829003018186803b1580156119cf57600080fd5b505afa1580156119e3573d6000803e3d6000fd5b505050506040513d60208110156119f957600080fd5b505160408051638da5cb5b60e01b815290519192506000916001600160a01b03841691638da5cb5b916004808301926020929190829003018186803b158015611a4157600080fd5b505afa158015611a55573d6000803e3d6000fd5b505050506040513d6020811015611a6b57600080fd5b50519050336001600160a01b03821614611ab9576040805162461bcd60e51b815260206004820152600a60248201526904e4f545f524f4c4c55560b41b604482015290519081900360640190fd5b600154600160a01b900460ff16611b04576040805162461bcd60e51b815260206004820152600a6024820152691393d517d4105554d15160b21b604482015290519081900360640190fd5b6001805460ff60a01b19169055604080516000815290517f9077d36bc00859b5c3f320310707208543dd35092cb0a0fe117d0c6a558b148b9181900360200190a15050565b600154600160a01b900460ff1681565b600080546001600160a01b031615611c25576000546040805163babcc53960e01b815233600482015290516001600160a01b039092169163babcc53991602480820192602092909190829003018186803b158015611bb657600080fd5b505afa158015611bca573d6000803e3d6000fd5b505050506040513d6020811015611be057600080fd5b5051611c25576040805162461bcd60e51b815260206004820152600f60248201526e1393d517d5d2125511531254d51151608a1b604482015290519081900360640190fd5b6000611c4f60033386866040518083838082843760405192018290039091209350611db492505050565b9050807fff64905f73a67fb594e0f940a8075a860db489ad991e032f48c81123eb52d60b858560405180806020018281038252848482818152602001925080828437600083820152604051601f909101601f19169092018290039550909350505050a29392505050565b6001546001600160a01b031681565b600154600160a81b900460ff1681565b3b151590565b61111061111160901b01190190565b61111161111160901b010190565b600080611d1085858580519060200120611db4565b9050807fff64905f73a67fb594e0f940a8075a860db489ad991e032f48c81123eb52d60b846040518080602001828103825283818151815260200191508051906020019080838360005b83811015611d72578181015183820152602001611d5a565b50505050905090810190601f168015611d9f5780820380516001836020036101000a031916815260200191505b509250505060405180910390a2949350505050565b600154604080516302bbfad160e01b815260ff861660048201526001600160a01b03858116602483015260448201859052915160009392909216916302bbfad1913491606480830192602092919082900301818588803b158015611e1757600080fd5b505af1158015611e2b573d6000803e3d6000fd5b50505050506040513d6020811015611e4257600080fd5b505194935050505056fea2646970667358221220ed792396a49edd456f5b05e40bfc6c2098d2037e24a28a983ff70e1f51cdd64564736f6c634300060b0033608060405234801561001057600080fd5b506000805460ff191660011790556108878061002d6000396000f3fe608060405234801561001057600080fd5b506004361061006d5760003560e01c806316b9109b1461007257806330a826b414610091578063485cc955146100ae5780636f791d29146100dc5780638b8ca199146100f8578063bc49accb14610130578063f03c04a5146101bc575b600080fd5b61008f6004803603602081101561008857600080fd5b50356101e8565b005b61008f600480360360208110156100a757600080fd5b5035610269565b61008f600480360360408110156100c457600080fd5b506001600160a01b03813581169160200135166102e7565b6100e461036c565b604080519115158252519081900360200190f35b61008f6004803603608081101561010e57600080fd5b50803590602081013590604081013590606001356001600160a01b0316610375565b61008f6004803603608081101561014657600080fd5b8135916020810135916001600160a01b03604083013516919081019060808101606082013564010000000081111561017d57600080fd5b82018360208201111561018f57600080fd5b803590602001918460018302840111640100000000831117156101b157600080fd5b50909250905061041c565b61008f600480360360408110156101d257600080fd5b506001600160a01b038135169060200135610687565b6001546001600160a01b03163314610235576040805162461bcd60e51b815260206004820152600b60248201526a04f4e4c595f524f4c4c55560ac1b604482015290519081900360640190fd5b60408051600160f81b6020820152602180820184905282518083039091018152604190910190915261026690610721565b50565b6001546001600160a01b031633146102b6576040805162461bcd60e51b815260206004820152600b60248201526a04f4e4c595f524f4c4c55560ac1b604482015290519081900360640190fd5b60408051600160f91b6020820152602180820184905282518083039091018152604190910190915261026690610721565b6001546001600160a01b031615610334576040805162461bcd60e51b815260206004820152600c60248201526b1053149150511657d253925560a21b604482015290519081900360640190fd5b60008054610100600160a81b0319166101006001600160a01b0394851602179055600180546001600160a01b03191691909216179055565b60005460ff1690565b6001546001600160a01b031633146103c2576040805162461bcd60e51b815260206004820152600b60248201526a04f4e4c595f524f4c4c55560ac1b604482015290519081900360640190fd5b60408051600060208201526021810186905260418101859052436061820152608181018490526001600160a01b03831660a1808301919091528251808303909101815260c190910190915261041690610721565b50505050565b6001546001600160a01b03163314610469576040805162461bcd60e51b815260206004820152600b60248201526a04f4e4c595f524f4c4c55560ac1b604482015290519081900360640190fd5b60408051774368616c6c656e6765506572696f64457468426c6f636b7360401b815281519081900360180181207214dc195959131a5b5a5d14195c94d958dbdb99606a1b825291519081900360130190206060919087906064880460405180806921b430b4b727bbb732b960b11b815250600a01905060405180910390208860601b60601c6001600160a01b03168888604051602001808981526020018881526020018781526020018681526020018581526020018481526020018383808284376040805191909301818103601f190182528084526000805483516020808601919091206302bbfad160e01b8552600b60048601526024850184905260448501529551939f50909d5061010090046001600160a01b03169b506302bbfad19a5060648082019a509398509096508690039091019350849250899150889050803b1580156105b557600080fd5b505af11580156105c9573d6000803e3d6000fd5b505050506040513d60208110156105df57600080fd5b5051604080516020808252855182820152855193945084937fff64905f73a67fb594e0f940a8075a860db489ad991e032f48c81123eb52d60b938793928392918301919085019080838360005b8381101561064457818101518382015260200161062c565b50505050905090810190601f1680156106715780820380516001836020036101000a031916815260200191505b509250505060405180910390a250505050505050565b6001546001600160a01b031633146106d4576040805162461bcd60e51b815260206004820152600b60248201526a04f4e4c595f524f4c4c55560ac1b604482015290519081900360640190fd5b60408051600360f81b60208201526001600160a01b0384166021820152604181018390524360618083019190915282518083039091018152608190910190915261071d90610721565b5050565b600080548251602080850191909120604080516302bbfad160e01b8152600860048201523360248201526044810192909252516101009093046001600160a01b0316936302bbfad193606480840194939192918390030190829087803b15801561078a57600080fd5b505af115801561079e573d6000803e3d6000fd5b505050506040513d60208110156107b457600080fd5b505160408051602080825284518282015284517fff64905f73a67fb594e0f940a8075a860db489ad991e032f48c81123eb52d60b938693928392918301919085019080838360005b838110156108145781810151838201526020016107fc565b50505050905090810190601f1680156108415780820380516001836020036101000a031916815260200191505b509250505060405180910390a25056fea264697066735822122088b967009dc1bb1421c1227dab50fdedd3f9c23f8c919c0cced5186e63410eae64736f6c634300060b0033608060405234801561001057600080fd5b506000805460ff191660011790556113158061002d6000396000f3fe608060405234801561001057600080fd5b50600436106100ea5760003560e01c80638515bc6a116100925780638515bc6a146102ed5780639229bab6146102f55780639c5cfe0b146103125780639f0c04bf1461040e578063b0f30537146104ad578063c75184df146104b5578063cb23bcb5146104d9578063e78cea92146104e1578063f1fd3a39146104e9576100ea565b80627436d3146100ef5780630c726847146101a75780631198527114610267578063465477901461026f578063485cc955146102775780636f791d29146102a557806372f2a8c7146102c157806380648b02146102c9575b600080fd5b6101956004803603606081101561010557600080fd5b810190602081018135600160201b81111561011f57600080fd5b82018360208201111561013157600080fd5b803590602001918460208302840111600160201b8311171561015257600080fd5b9190808060200260200160405190810160405280939291908181526020018383602002808284376000920191909152509295505082359350505060200135610506565b60408051918252519081900360200190f35b610265600480360360408110156101bd57600080fd5b810190602081018135600160201b8111156101d757600080fd5b8201836020820111156101e957600080fd5b803590602001918460018302840111600160201b8311171561020a57600080fd5b919390929091602081019035600160201b81111561022757600080fd5b82018360208201111561023957600080fd5b803590602001918460208302840111600160201b8311171561025a57600080fd5b509092509050610541565b005b61019561062d565b610195610643565b6102656004803603604081101561028d57600080fd5b506001600160a01b0381358116916020013516610652565b6102ad6106dc565b604080519115158252519081900360200190f35b6101956106e5565b6102d16106eb565b604080516001600160a01b039092168252519081900360200190f35b6101956106fa565b6101956004803603602081101561030b57600080fd5b5035610710565b610265600480360361014081101561032957600080fd5b81359190810190604081016020820135600160201b81111561034a57600080fd5b82018360208201111561035c57600080fd5b803590602001918460208302840111600160201b8311171561037d57600080fd5b919390928235926001600160a01b03602082013581169360408301359091169260608301359260808101359260a08201359260c08301359261010081019060e00135600160201b8111156103d057600080fd5b8201836020820111156103e257600080fd5b803590602001918460018302840111600160201b8311171561040357600080fd5b509092509050610722565b610195600480360360e081101561042457600080fd5b6001600160a01b03823581169260208101359091169160408201359160608101359160808201359160a08101359181019060e0810160c0820135600160201b81111561046f57600080fd5b82018360208201111561048157600080fd5b803590602001918460018302840111600160201b831117156104a257600080fd5b509092509050610afa565b610195610b9a565b6104bd610ba9565b604080516001600160801b039092168252519081900360200190f35b6102d1610bae565b6102d1610bc2565b6102ad600480360360208110156104ff57600080fd5b5035610bd1565b60006105398484846040516020018082815260200191505060405160208183030381529060405280519060200120610be5565b949350505050565b60005461010090046001600160a01b03163314610593576040805162461bcd60e51b815260206004820152600b60248201526a04f4e4c595f524f4c4c55560ac1b604482015290519081900360640190fd5b806000805b82811015610624576106028783888888868181106105b257fe5b905060200201358601926105c8939291906112b7565b8080601f016020809104026020016040519081016040528093929190818152602001838380828437600092019190915250610cb392505050565b84848281811061060e57fe5b6020029190910135929092019150600101610598565b50505050505050565b600454600160801b90046001600160801b031690565b6003546001600160801b031690565b60005461010090046001600160a01b0316156106a4576040805162461bcd60e51b815260206004820152600c60248201526b1053149150511657d253925560a21b604482015290519081900360640190fd5b60008054610100600160a81b0319166101006001600160a01b0394851602179055600180546001600160a01b03191691909216179055565b60005460ff1690565b60055490565b6006546001600160a01b031690565b600354600160801b90046001600160801b031690565b60026020526000908152604090205481565b6000806107358a8a8a8a8a8a8a8a610afa565b90506107848e8e8e80806020026020016040519081016040528093929190818152602001838360200280828437600081840152601f19601f820116905080830192505050505050508d84610e1b565b91508d8a6001600160a01b03168a6001600160a01b03167f20af7f3bbfe38132b8900ae295cd9c8d1914be7052d061a511f3f728dab189648e6040518082815260200191505060405180910390a4506107db611270565b60036040518060c00160405290816000820160009054906101000a90046001600160801b03166001600160801b03166001600160801b031681526020016000820160109054906101000a90046001600160801b03166001600160801b03166001600160801b031681526020016001820160009054906101000a90046001600160801b03166001600160801b03166001600160801b031681526020016001820160109054906101000a90046001600160801b03166001600160801b03166001600160801b03168152602001600282015481526020016003820160009054906101000a90046001600160a01b03166001600160a01b03166001600160a01b03168152505090506040518060c00160405280896001600160801b03168152602001886001600160801b03168152602001876001600160801b031681526020018f6001600160801b031681526020018381526020018b6001600160a01b0316815250600360008201518160000160006101000a8154816001600160801b0302191690836001600160801b0316021790555060208201518160000160106101000a8154816001600160801b0302191690836001600160801b0316021790555060408201518160010160006101000a8154816001600160801b0302191690836001600160801b0316021790555060608201518160010160106101000a8154816001600160801b0302191690836001600160801b031602179055506080820151816002015560a08201518160030160006101000a8154816001600160a01b0302191690836001600160a01b03160217905550905050610a6a898686868080601f016020809104026020016040519081016040528093929190818152602001838380828437600092019190915250610ffa92505050565b80516003805460208401516001600160801b03199182166001600160801b03948516178416600160801b9185168202179092556040840151600480546060870151931691851691909117841691909316909102179055608081015160055560a00151600680546001600160a01b0319166001600160a01b0390921691909117905550505050505050505050505050565b600060038960601b60601c6001600160a01b03168960601b60601c6001600160a01b0316898989898989604051602001808a60ff1660ff1660f81b815260010189815260200188815260200187815260200186815260200185815260200184815260200183838082843780830192505050995050505050505050505060405160208183030381529060405280519060200120905098975050505050505050565b6004546001600160801b031690565b600181565b60005461010090046001600160a01b031681565b6001546001600160a01b031681565b600090815260026020526040902054151590565b8251600090610100811115610bf957600080fd5b8260005b82811015610ca95760028606610c5657868181518110610c1957fe5b6020026020010151826040516020018083815260200182815260200192505050604051602081830303815290604052805190602001209150610c9b565b81878281518110610c6357fe5b602002602001015160405160200180838152602001828152602001925050506040516020818303038152906040528051906020012091505b600286049550600101610bfd565b5095945050505050565b805160009082908290610cc257fe5b01602001516001600160f81b0319161415610e18578051606114610d1a576040805162461bcd60e51b815260206004820152600a6024820152690848288be988a9c8ea8960b31b604482015290519081900360640190fd5b6000610d2d82600163ffffffff61121716565b9050610d3881610bd1565b15610d81576040805162461bcd60e51b8152602060048201526014602482015273454e5452595f414c52454144595f45584953545360601b604482015290519081900360640190fd5b6000610d9483602163ffffffff61121716565b90506000610da984604163ffffffff61121716565b9050610db36112a5565b5060408051602080820183528382526000868152600282528390208251905582518681529081018490528083018590529151909185917fe5ccc8d7080a4904b2f4e42d91e8f06b13fe6cb2181ad1fe14644e856b44c1319181900360600190a2505050505b50565b6000610100845110610e65576040805162461bcd60e51b815260206004820152600e60248201526d50524f4f465f544f4f5f4c4f4e4760901b604482015290519081900360640190fd5b835160020a8310610eb0576040805162461bcd60e51b815260206004820152601060248201526f1410551217d393d517d352539253505360821b604482015290519081900360640190fd5b6000610ebd858585610506565b6000878152600260205260409020805491925090610f14576040805162461bcd60e51b815260206004820152600f60248201526e4e4f5f4f5554424f585f454e54525960881b604482015290519081900360640190fd5b8551604080516020808201899052818301939093528151808203830181526060909101825280519083012060008181526001850190935291205460ff1615610f93576040805162461bcd60e51b815260206004820152600d60248201526c1053149150511657d4d4115395609a1b604482015290519081900360640190fd5b81548314610fd3576040805162461bcd60e51b815260206004820152600860248201526710905117d493d3d560c21b604482015290519081900360640190fd5b6000818152600192830160205260409020805460ff19169092179091559695505050505050565b600154604051639e5d4c4960e01b81526001600160a01b03858116600483019081526024830186905260606044840181815286516064860152865160009692959490921693639e5d4c49938a938a938a93909160849091019060208501908083838e5b8381101561107557818101518382015260200161105d565b50505050905090810190601f1680156110a25780820380516001836020036101000a031916815260200191505b50945050505050600060405180830381600087803b1580156110c357600080fd5b505af11580156110d7573d6000803e3d6000fd5b505050506040513d6000823e601f3d908101601f19168201604090815281101561110057600080fd5b815160208301805160405192949293830192919084600160201b82111561112657600080fd5b90830190602082018581111561113b57600080fd5b8251600160201b81118282018810171561115457600080fd5b82525081516020918201929091019080838360005b83811015611181578181015183820152602001611169565b50505050905090810190601f1680156111ae5780820380516001836020036101000a031916815260200191505b506040525050509150915081611210578051156111ce5780518082602001fd5b6040805162461bcd60e51b81526020600482015260126024820152711094925111d157d0d0531317d1905253115160721b604482015290519081900360640190fd5b5050505050565b60008160200183511015611267576040805162461bcd60e51b815260206004820152601260248201527152656164206f7574206f6620626f756e647360701b604482015290519081900360640190fd5b50016020015190565b6040805160c081018252600080825260208201819052918101829052606081018290526080810182905260a081019190915290565b60408051602081019091526000815290565b600080858511156112c6578182fd5b838611156112d2578182fd5b505082019391909203915056fea2646970667358221220767004b2eded0b2e68c20232247b168ceca5eb5578398f78770ead63ded5a1b964736f6c634300060b0033",
  "devdoc": {
    "kind": "dev",
    "methods": {
      "owner()": {
        "details": "Returns the address of the current owner."
      },
      "renounceOwnership()": {
        "details": "Leaves the contract without owner. It will not be possible to call `onlyOwner` functions anymore. Can only be called by the current owner. NOTE: Renouncing ownership will leave the contract without an owner, thereby removing any functionality that is only available to the owner."
      },
      "transferOwnership(address)": {
        "details": "Transfers ownership of the contract to a new account (`newOwner`). Can only be called by the current owner."
      }
    },
    "version": 1
  },
  "userdoc": {
    "kind": "user",
    "methods": {},
    "version": 1
  },
  "storageLayout": {
    "storage": [
      {
        "astId": 493,
        "contract": "contracts/rollup/BridgeCreator.sol:BridgeCreator",
        "label": "_owner",
        "offset": 0,
        "slot": "0",
        "type": "t_address"
      },
      {
        "astId": 21635,
        "contract": "contracts/rollup/BridgeCreator.sol:BridgeCreator",
        "label": "delayedBridgeTemplate",
        "offset": 0,
        "slot": "1",
        "type": "t_contract(Bridge)13096"
      },
      {
        "astId": 21637,
        "contract": "contracts/rollup/BridgeCreator.sol:BridgeCreator",
        "label": "sequencerInboxTemplate",
        "offset": 0,
        "slot": "2",
        "type": "t_contract(SequencerInbox)16586"
      },
      {
        "astId": 21639,
        "contract": "contracts/rollup/BridgeCreator.sol:BridgeCreator",
        "label": "inboxTemplate",
        "offset": 0,
        "slot": "3",
        "type": "t_contract(Inbox)13932"
      },
      {
        "astId": 21641,
        "contract": "contracts/rollup/BridgeCreator.sol:BridgeCreator",
        "label": "rollupEventBridgeTemplate",
        "offset": 0,
        "slot": "4",
        "type": "t_contract(RollupEventBridge)25104"
      },
      {
        "astId": 21643,
        "contract": "contracts/rollup/BridgeCreator.sol:BridgeCreator",
        "label": "outboxTemplate",
        "offset": 0,
        "slot": "5",
        "type": "t_contract(Outbox)15370"
      }
    ],
    "types": {
      "t_address": {
        "encoding": "inplace",
        "label": "address",
        "numberOfBytes": "20"
      },
      "t_contract(Bridge)13096": {
        "encoding": "inplace",
        "label": "contract Bridge",
        "numberOfBytes": "20"
      },
      "t_contract(Inbox)13932": {
        "encoding": "inplace",
        "label": "contract Inbox",
        "numberOfBytes": "20"
      },
      "t_contract(Outbox)15370": {
        "encoding": "inplace",
        "label": "contract Outbox",
        "numberOfBytes": "20"
      },
      "t_contract(RollupEventBridge)25104": {
        "encoding": "inplace",
        "label": "contract RollupEventBridge",
        "numberOfBytes": "20"
      },
      "t_contract(SequencerInbox)16586": {
        "encoding": "inplace",
        "label": "contract SequencerInbox",
        "numberOfBytes": "20"
      }
    }
  }
}