{
  "address": "0xA79C586B5F7d8E02CA2a8b8a9a997a6A48e71A70",
  "abi": [
    {
      "inputs": [],
      "stateMutability": "nonpayable",
      "type": "constructor"
    },
    {
      "anonymous": false,
      "inputs": [
        {
          "indexed": true,
          "internalType": "enum GasRefunder.CommonParameterKey",
          "name": "parameter",
          "type": "uint8"
        },
        {
          "indexed": false,
          "internalType": "uint256",
          "name": "value",
          "type": "uint256"
        }
      ],
      "name": "CommonParameterSet",
      "type": "event"
    },
    {
      "anonymous": false,
      "inputs": [
        {
          "indexed": true,
          "internalType": "address",
          "name": "addr",
          "type": "address"
        },
        {
          "indexed": true,
          "internalType": "bool",
          "name": "allowed",
          "type": "bool"
        }
      ],
      "name": "ContractAllowedSet",
      "type": "event"
    },
    {
      "anonymous": false,
      "inputs": [
        {
          "indexed": false,
          "internalType": "address",
          "name": "sender",
          "type": "address"
        },
        {
          "indexed": false,
          "internalType": "uint256",
          "name": "amount",
          "type": "uint256"
        }
      ],
      "name": "Deposited",
      "type": "event"
    },
    {
      "anonymous": false,
      "inputs": [
        {
          "indexed": true,
          "internalType": "address",
          "name": "addr",
          "type": "address"
        }
      ],
      "name": "DisallowerSet",
      "type": "event"
    },
    {
      "anonymous": false,
      "inputs": [
        {
          "indexed": true,
          "internalType": "address",
          "name": "previousOwner",
          "type": "address"
        },
        {
          "indexed": true,
          "internalType": "address",
          "name": "newOwner",
          "type": "address"
        }
      ],
      "name": "OwnershipTransferred",
      "type": "event"
    },
    {
      "anonymous": false,
      "inputs": [
        {
          "indexed": true,
          "internalType": "address",
          "name": "refundee",
          "type": "address"
        },
        {
          "indexed": true,
          "internalType": "address",
          "name": "contractAddress",
          "type": "address"
        },
        {
          "indexed": true,
          "internalType": "enum GasRefunder.RefundDenyReason",
          "name": "reason",
          "type": "uint8"
        },
        {
          "indexed": false,
          "internalType": "uint256",
          "name": "gas",
          "type": "uint256"
        }
      ],
      "name": "RefundGasCostsDenied",
      "type": "event"
    },
    {
      "anonymous": false,
      "inputs": [
        {
          "indexed": true,
          "internalType": "address",
          "name": "refundee",
          "type": "address"
        },
        {
          "indexed": true,
          "internalType": "address",
          "name": "contractAddress",
          "type": "address"
        },
        {
          "indexed": true,
          "internalType": "bool",
          "name": "success",
          "type": "bool"
        },
        {
          "indexed": false,
          "internalType": "uint256",
          "name": "gas",
          "type": "uint256"
        },
        {
          "indexed": false,
          "internalType": "uint256",
          "name": "gasPrice",
          "type": "uint256"
        },
        {
          "indexed": false,
          "internalType": "uint256",
          "name": "amountPaid",
          "type": "uint256"
        }
      ],
      "name": "RefundedGasCosts",
      "type": "event"
    },
    {
      "anonymous": false,
      "inputs": [
        {
          "indexed": true,
          "internalType": "address",
          "name": "addr",
          "type": "address"
        },
        {
          "indexed": true,
          "internalType": "bool",
          "name": "allowed",
          "type": "bool"
        }
      ],
      "name": "RefundeeAllowedSet",
      "type": "event"
    },
    {
      "anonymous": false,
      "inputs": [
        {
          "indexed": false,
          "internalType": "address",
          "name": "initiator",
          "type": "address"
        },
        {
          "indexed": false,
          "internalType": "address",
          "name": "destination",
          "type": "address"
        },
        {
          "indexed": false,
          "internalType": "uint256",
          "name": "amount",
          "type": "uint256"
        }
      ],
      "name": "Withdrawn",
      "type": "event"
    },
    {
      "inputs": [
        {
          "internalType": "address[]",
          "name": "addresses",
          "type": "address[]"
        }
      ],
      "name": "allowContracts",
      "outputs": [],
      "stateMutability": "nonpayable",
      "type": "function"
    },
    {
      "inputs": [
        {
          "internalType": "address[]",
          "name": "addresses",
          "type": "address[]"
        }
      ],
      "name": "allowRefundees",
      "outputs": [],
      "stateMutability": "nonpayable",
      "type": "function"
    },
    {
      "inputs": [
        {
          "internalType": "address",
          "name": "",
          "type": "address"
        }
      ],
      "name": "allowedContracts",
      "outputs": [
        {
          "internalType": "bool",
          "name": "",
          "type": "bool"
        }
      ],
      "stateMutability": "view",
      "type": "function"
    },
    {
      "inputs": [
        {
          "internalType": "address",
          "name": "",
          "type": "address"
        }
      ],
      "name": "allowedRefundees",
      "outputs": [
        {
          "internalType": "bool",
          "name": "",
          "type": "bool"
        }
      ],
      "stateMutability": "view",
      "type": "function"
    },
    {
      "inputs": [],
      "name": "commonParams",
      "outputs": [
        {
          "internalType": "uint128",
          "name": "maxRefundeeBalance",
          "type": "uint128"
        },
        {
          "internalType": "uint32",
          "name": "extraGasMargin",
          "type": "uint32"
        },
        {
          "internalType": "uint8",
          "name": "calldataCost",
          "type": "uint8"
        },
        {
          "internalType": "uint64",
          "name": "maxGasTip",
          "type": "uint64"
        },
        {
          "internalType": "uint64",
          "name": "maxGasCost",
          "type": "uint64"
        },
        {
          "internalType": "uint32",
          "name": "maxSingleGasUsage",
          "type": "uint32"
        }
      ],
      "stateMutability": "view",
      "type": "function"
    },
    {
      "inputs": [
        {
          "internalType": "address[]",
          "name": "addresses",
          "type": "address[]"
        }
      ],
      "name": "disallowContracts",
      "outputs": [],
      "stateMutability": "nonpayable",
      "type": "function"
    },
    {
      "inputs": [
        {
          "internalType": "address[]",
          "name": "addresses",
          "type": "address[]"
        }
      ],
      "name": "disallowRefundees",
      "outputs": [],
      "stateMutability": "nonpayable",
      "type": "function"
    },
    {
      "inputs": [],
      "name": "disallower",
      "outputs": [
        {
          "internalType": "address",
          "name": "",
          "type": "address"
        }
      ],
      "stateMutability": "view",
      "type": "function"
    },
    {
      "inputs": [
        {
          "internalType": "address",
          "name": "",
          "type": "address"
        }
      ],
      "name": "lastContractRefund",
      "outputs": [
        {
          "internalType": "uint256",
          "name": "",
          "type": "uint256"
        }
      ],
      "stateMutability": "view",
      "type": "function"
    },
    {
      "inputs": [
        {
          "internalType": "address payable",
          "name": "refundee",
          "type": "address"
        },
        {
          "internalType": "uint256",
          "name": "gasUsed",
          "type": "uint256"
        },
        {
          "internalType": "uint256",
          "name": "calldataSize",
          "type": "uint256"
        }
      ],
      "name": "onGasSpent",
      "outputs": [
        {
          "internalType": "bool",
          "name": "success",
          "type": "bool"
        }
      ],
      "stateMutability": "nonpayable",
      "type": "function"
    },
    {
      "inputs": [],
      "name": "owner",
      "outputs": [
        {
          "internalType": "address",
          "name": "",
          "type": "address"
        }
      ],
      "stateMutability": "view",
      "type": "function"
    },
    {
      "inputs": [],
      "name": "renounceOwnership",
      "outputs": [],
      "stateMutability": "nonpayable",
      "type": "function"
    },
    {
      "inputs": [
        {
          "internalType": "uint8",
          "name": "newValue",
          "type": "uint8"
        }
      ],
      "name": "setCalldataCost",
      "outputs": [],
      "stateMutability": "nonpayable",
      "type": "function"
    },
    {
      "inputs": [
        {
          "internalType": "address",
          "name": "addr",
          "type": "address"
        }
      ],
      "name": "setDisallower",
      "outputs": [],
      "stateMutability": "nonpayable",
      "type": "function"
    },
    {
      "inputs": [
        {
          "internalType": "uint32",
          "name": "newValue",
          "type": "uint32"
        }
      ],
      "name": "setExtraGasMargin",
      "outputs": [],
      "stateMutability": "nonpayable",
      "type": "function"
    },
    {
      "inputs": [
        {
          "internalType": "uint64",
          "name": "newValue",
          "type": "uint64"
        }
      ],
      "name": "setMaxGasCost",
      "outputs": [],
      "stateMutability": "nonpayable",
      "type": "function"
    },
    {
      "inputs": [
        {
          "internalType": "uint64",
          "name": "newValue",
          "type": "uint64"
        }
      ],
      "name": "setMaxGasTip",
      "outputs": [],
      "stateMutability": "nonpayable",
      "type": "function"
    },
    {
      "inputs": [
        {
          "internalType": "uint128",
          "name": "newValue",
          "type": "uint128"
        }
      ],
      "name": "setMaxRefundeeBalance",
      "outputs": [],
      "stateMutability": "nonpayable",
      "type": "function"
    },
    {
      "inputs": [
        {
          "internalType": "uint32",
          "name": "newValue",
          "type": "uint32"
        }
      ],
      "name": "setMaxSingleGasUsage",
      "outputs": [],
      "stateMutability": "nonpayable",
      "type": "function"
    },
    {
      "inputs": [
        {
          "internalType": "address",
          "name": "newOwner",
          "type": "address"
        }
      ],
      "name": "transferOwnership",
      "outputs": [],
      "stateMutability": "nonpayable",
      "type": "function"
    },
    {
      "inputs": [
        {
          "internalType": "address payable",
          "name": "destination",
          "type": "address"
        },
        {
          "internalType": "uint256",
          "name": "amount",
          "type": "uint256"
        }
      ],
      "name": "withdraw",
      "outputs": [],
      "stateMutability": "nonpayable",
      "type": "function"
    },
    {
      "stateMutability": "payable",
      "type": "receive"
    }
  ],
  "transactionHash": "0x581e29a9584d5d9042bc96b7723bdb5d8826ad3a3b03a09127a170b52bec90de",
  "args": [],
  "numDeployments": 1,
  "solcInputHash": "205286ec9a2d77b982b66972fbcb42da",
  "bytecode": "0x608060405234801561001057600080fd5b5061001a336100a5565b6040805160c08101825260008152610fa06020820152600c9181019190915263773594006060820152641bf08eb0006080820152621e848060a090910152600580546001600160e81b03191678773594000c00000fa000000000000000000000000000000000179055600680546001600160601b0319166a1e84800000001bf08eb0001790556100f5565b600080546001600160a01b038381166001600160a01b0319831681178455604051919092169283917f8be0079c531659141344cd1fd0a4f28419497f9722a3daafe3b4186f6b6457e09190a35050565b61129e806101046000396000f3fe60806040526004361061012e5760003560e01c8063bffe1780116100ab578063e52074531161006f578063e520745314610433578063efe12b0114610453578063f1e845ca14610473578063f2fde38b14610493578063f3fef3a3146104b3578063f52128eb146104d357600080fd5b8063bffe178014610306578063ca10129514610326578063cd499da314610346578063d513894814610366578063e3db8a491461041357600080fd5b80637edddf45116100f25780637edddf451461022e57806386b988951461024e5780638da5cb5b1461026e578063a89d21731461029b578063bddaf01d146102cb57600080fd5b806325416bc9146101725780632ccb03f214610194578063500de431146101b457806351e0e26b146101d4578063715018a61461021957600080fd5b3661016d57604080513381523460208201527f2da466a7b24304f47e87fa2e1e5a81b9831ce54fec19055ce277ca2f39ba42c4910160405180910390a1005b600080fd5b34801561017e57600080fd5b5061019261018d366004611032565b6104f3565b005b3480156101a057600080fd5b506101926101af3660046110f5565b61053b565b3480156101c057600080fd5b506101926101cf3660046110cf565b6105b7565b3480156101e057600080fd5b506102046101ef366004610fb4565b60016020526000908152604090205460ff1681565b60405190151581526020015b60405180910390f35b34801561022557600080fd5b5061019261062b565b34801561023a57600080fd5b506101926102493660046110cf565b610666565b34801561025a57600080fd5b506101926102693660046110f5565b6106ba565b34801561027a57600080fd5b50610283610715565b6040516001600160a01b039091168152602001610210565b3480156102a757600080fd5b506102046102b6366004610fb4565b60026020526000908152604090205460ff1681565b3480156102d757600080fd5b506102f86102e6366004610fb4565b60036020526000908152604090205481565b604051908152602001610210565b34801561031257600080fd5b5061019261032136600461111e565b610724565b34801561033257600080fd5b50610192610341366004611032565b61078e565b34801561035257600080fd5b50610192610361366004611032565b6107c9565b34801561037257600080fd5b506005546006546103c5916001600160801b0381169163ffffffff600160801b830481169260ff600160a01b820416926001600160401b03600160a81b90920482169291811691600160401b9091041686565b604080516001600160801b03909716875263ffffffff958616602088015260ff909416938601939093526001600160401b0391821660608601521660808401521660a082015260c001610210565b34801561041f57600080fd5b5061020461042e366004610ffd565b610822565b34801561043f57600080fd5b5061019261044e366004611032565b610b35565b34801561045f57600080fd5b50600454610283906001600160a01b031681565b34801561047f57600080fd5b5061019261048e366004610fb4565b610b8e565b34801561049f57600080fd5b506101926104ae366004610fb4565b610c07565b3480156104bf57600080fd5b506101926104ce366004610fd1565b610ca7565b3480156104df57600080fd5b506101926104ee3660046110a6565b610db9565b336104fc610715565b6001600160a01b03161461052b5760405162461bcd60e51b815260040161052290611141565b60405180910390fd5b61053782826001610e2c565b5050565b33610544610715565b6001600160a01b03161461056a5760405162461bcd60e51b815260040161052290611141565b6006805467ffffffffffffffff19166001600160401b03831617905560045b6040516001600160401b0383168152600080516020611249833981519152906020015b60405180910390a250565b336105c0610715565b6001600160a01b0316146105e65760405162461bcd60e51b815260040161052290611141565b6006805463ffffffff60401b1916600160401b63ffffffff84160217905560055b60405163ffffffff83168152600080516020611249833981519152906020016105ac565b33610634610715565b6001600160a01b03161461065a5760405162461bcd60e51b815260040161052290611141565b6106646000610ecb565b565b3361066f610715565b6001600160a01b0316146106955760405162461bcd60e51b815260040161052290611141565b6005805463ffffffff60801b1916600160801b63ffffffff8416021790556001610607565b336106c3610715565b6001600160a01b0316146106e95760405162461bcd60e51b815260040161052290611141565b6005805467ffffffffffffffff60a81b1916600160a81b6001600160401b038416021790556003610589565b6000546001600160a01b031690565b3361072d610715565b6001600160a01b0316146107535760405162461bcd60e51b815260040161052290611141565b6005805460ff60a01b1916600160a01b60ff841602179055600260405160ff83168152600080516020611249833981519152906020016105ac565b33610797610715565b6001600160a01b0316146107bd5760405162461bcd60e51b815260040161052290611141565b61053782826001610f1b565b6107d1610715565b6001600160a01b0316336001600160a01b031614806107fa57506004546001600160a01b031633145b6108165760405162461bcd60e51b815260040161052290611176565b61053782826000610e2c565b6000805a9050478061087c5760045b60405186815233906001600160a01b038916907f2b8ae00e22d9eaf5a92820a22b947c007aee773fa36502ad7a1c9a464ab4932b9060200160405180910390a4600092505050610b2e565b3360009081526001602052604090205460ff1661089a576000610831565b6001600160a01b03861660009081526002602052604090205460ff166108c1576001610831565b336000908152600360205260409020544314156108df576002610831565b33600090815260036020526040812043905560055461090e90600160a81b90046001600160401b03164861119e565b9050803a101561091b57503a5b6006546001600160401b03161580159061093f57506006546001600160401b031681115b1561095257506006546001600160401b03165b6005546006546001600160a01b03891631916001600160801b03811691600160401b900463ffffffff169061099190600160a01b900460ff16896111b6565b6005546109ab90600160801b900463ffffffff168861119e565b6109b5919061119e565b6109bf908a61119e565b98505a6109cc908a6111d5565b985080158015906109dc57508089115b156109e5578098505b60006109f18a866111b6565b90508215801590610a0a575082610a08828661119e565b115b15610a765782841115610a695760036040518b815233906001600160a01b038e16907f2b8ae00e22d9eaf5a92820a22b947c007aee773fa36502ad7a1c9a464ab4932b9060200160405180910390a46000975050505050505050610b2e565b610a7384846111d5565b90505b85811115610a815750845b6040516001600160a01b038c16908290600081818185875af1925050503d8060008114610aca576040519150601f19603f3d011682016040523d82523d6000602084013e610acf565b606091505b5050604080518c8152602081018890529081018390529098508815159033906001600160a01b038e16907fd0224505f828ccfcbc56ca0590d97442e239a7aa770f712948fd6388356b20de9060600160405180910390a4505050505050505b9392505050565b610b3d610715565b6001600160a01b0316336001600160a01b03161480610b6657506004546001600160a01b031633145b610b825760405162461bcd60e51b815260040161052290611176565b61053782826000610f1b565b33610b97610715565b6001600160a01b031614610bbd5760405162461bcd60e51b815260040161052290611141565b600480546001600160a01b0319166001600160a01b0383169081179091556040517fc388cec0895ad7ee4635898ec92207ca48d42256d4355f7042efef62c368a97990600090a250565b33610c10610715565b6001600160a01b031614610c365760405162461bcd60e51b815260040161052290611141565b6001600160a01b038116610c9b5760405162461bcd60e51b815260206004820152602660248201527f4f776e61626c653a206e6577206f776e657220697320746865207a65726f206160448201526564647265737360d01b6064820152608401610522565b610ca481610ecb565b50565b33610cb0610715565b6001600160a01b031614610cd65760405162461bcd60e51b815260040161052290611141565b6000826001600160a01b03168260405160006040518083038185875af1925050503d8060008114610d23576040519150601f19603f3d011682016040523d82523d6000602084013e610d28565b606091505b5050905080610d6b5760405162461bcd60e51b815260206004820152600f60248201526e15d2551211149055d7d19052531151608a1b6044820152606401610522565b604080513381526001600160a01b03851660208201529081018390527fd1c19fbcd4551a5edfb66d43d2e337c04837afda3482b42bdf569a8fccdae5fb9060600160405180910390a1505050565b33610dc2610715565b6001600160a01b031614610de85760405162461bcd60e51b815260040161052290611141565b600580546001600160801b0319166001600160801b03831617905560006040516001600160801b0383168152600080516020611249833981519152906020016105ac565b60005b82811015610ec5576000848483818110610e4b57610e4b61121d565b9050602002016020810190610e609190610fb4565b6001600160a01b038116600081815260016020526040808220805460ff19168815159081179091559051939450927fb0918cd965657b8d231f8adba328fa810b6d61d800de9c795d40eb3623498c019190a35080610ebd816111ec565b915050610e2f565b50505050565b600080546001600160a01b038381166001600160a01b0319831681178455604051919092169283917f8be0079c531659141344cd1fd0a4f28419497f9722a3daafe3b4186f6b6457e09190a35050565b60005b82811015610ec5576000848483818110610f3a57610f3a61121d565b9050602002016020810190610f4f9190610fb4565b6001600160a01b038116600081815260026020526040808220805460ff19168815159081179091559051939450927ff544cca9d5484bfd447775bd759d12d53f1aa7c5f770be82c55070798ff9c63e9190a35080610fac816111ec565b915050610f1e565b600060208284031215610fc657600080fd5b8135610b2e81611233565b60008060408385031215610fe457600080fd5b8235610fef81611233565b946020939093013593505050565b60008060006060848603121561101257600080fd5b833561101d81611233565b95602085013595506040909401359392505050565b6000806020838503121561104557600080fd5b82356001600160401b038082111561105c57600080fd5b818501915085601f83011261107057600080fd5b81358181111561107f57600080fd5b8660208260051b850101111561109457600080fd5b60209290920196919550909350505050565b6000602082840312156110b857600080fd5b81356001600160801b0381168114610b2e57600080fd5b6000602082840312156110e157600080fd5b813563ffffffff81168114610b2e57600080fd5b60006020828403121561110757600080fd5b81356001600160401b0381168114610b2e57600080fd5b60006020828403121561113057600080fd5b813560ff81168114610b2e57600080fd5b6020808252818101527f4f776e61626c653a2063616c6c6572206973206e6f7420746865206f776e6572604082015260600190565b6020808252600e908201526d1393d517d055551213d49256915160921b604082015260600190565b600082198211156111b1576111b1611207565b500190565b60008160001904831182151516156111d0576111d0611207565b500290565b6000828210156111e7576111e7611207565b500390565b600060001982141561120057611200611207565b5060010190565b634e487b7160e01b600052601160045260246000fd5b634e487b7160e01b600052603260045260246000fd5b6001600160a01b0381168114610ca457600080fdfeda79b6b81f905f788560507c685a42d5a8ab209ee26538cbcf3ce3caed601f9ba2646970667358221220fdeee11c218174733500b8452427fe156a870239d05929b61c9dd37518aa696b64736f6c63430008070033",
  "devdoc": {
    "kind": "dev",
    "methods": {
      "owner()": {
        "details": "Returns the address of the current owner."
      },
      "renounceOwnership()": {
        "details": "Leaves the contract without owner. It will not be possible to call `onlyOwner` functions anymore. Can only be called by the current owner. NOTE: Renouncing ownership will leave the contract without an owner, thereby removing any functionality that is only available to the owner."
      },
      "transferOwnership(address)": {
        "details": "Transfers ownership of the contract to a new account (`newOwner`). Can only be called by the current owner."
      }
    },
    "version": 1
  },
  "userdoc": {
    "kind": "user",
    "methods": {},
    "version": 1
  },
  "storageLayout": {
    "storage": [
      {
        "astId": 7,
        "contract": "contracts/validator/GasRefunder.sol:GasRefunder",
        "label": "_owner",
        "offset": 0,
        "slot": "0",
        "type": "t_address"
      },
      {
        "astId": 138,
        "contract": "contracts/validator/GasRefunder.sol:GasRefunder",
        "label": "allowedContracts",
        "offset": 0,
        "slot": "1",
        "type": "t_mapping(t_address,t_bool)"
      },
      {
        "astId": 142,
        "contract": "contracts/validator/GasRefunder.sol:GasRefunder",
        "label": "allowedRefundees",
        "offset": 0,
        "slot": "2",
        "type": "t_mapping(t_address,t_bool)"
      },
      {
        "astId": 146,
        "contract": "contracts/validator/GasRefunder.sol:GasRefunder",
        "label": "lastContractRefund",
        "offset": 0,
        "slot": "3",
        "type": "t_mapping(t_address,t_uint256)"
      },
      {
        "astId": 148,
        "contract": "contracts/validator/GasRefunder.sol:GasRefunder",
        "label": "disallower",
        "offset": 0,
        "slot": "4",
        "type": "t_address"
      },
      {
        "astId": 164,
        "contract": "contracts/validator/GasRefunder.sol:GasRefunder",
        "label": "commonParams",
        "offset": 0,
        "slot": "5",
        "type": "t_struct(CommonParameters)161_storage"
      }
    ],
    "types": {
      "t_address": {
        "encoding": "inplace",
        "label": "address",
        "numberOfBytes": "20"
      },
      "t_bool": {
        "encoding": "inplace",
        "label": "bool",
        "numberOfBytes": "1"
      },
      "t_mapping(t_address,t_bool)": {
        "encoding": "mapping",
        "key": "t_address",
        "label": "mapping(address => bool)",
        "numberOfBytes": "32",
        "value": "t_bool"
      },
      "t_mapping(t_address,t_uint256)": {
        "encoding": "mapping",
        "key": "t_address",
        "label": "mapping(address => uint256)",
        "numberOfBytes": "32",
        "value": "t_uint256"
      },
      "t_struct(CommonParameters)161_storage": {
        "encoding": "inplace",
        "label": "struct GasRefunder.CommonParameters",
        "members": [
          {
            "astId": 150,
            "contract": "contracts/validator/GasRefunder.sol:GasRefunder",
            "label": "maxRefundeeBalance",
            "offset": 0,
            "slot": "0",
            "type": "t_uint128"
          },
          {
            "astId": 152,
            "contract": "contracts/validator/GasRefunder.sol:GasRefunder",
            "label": "extraGasMargin",
            "offset": 16,
            "slot": "0",
            "type": "t_uint32"
          },
          {
            "astId": 154,
            "contract": "contracts/validator/GasRefunder.sol:GasRefunder",
            "label": "calldataCost",
            "offset": 20,
            "slot": "0",
            "type": "t_uint8"
          },
          {
            "astId": 156,
            "contract": "contracts/validator/GasRefunder.sol:GasRefunder",
            "label": "maxGasTip",
            "offset": 21,
            "slot": "0",
            "type": "t_uint64"
          },
          {
            "astId": 158,
            "contract": "contracts/validator/GasRefunder.sol:GasRefunder",
            "label": "maxGasCost",
            "offset": 0,
            "slot": "1",
            "type": "t_uint64"
          },
          {
            "astId": 160,
            "contract": "contracts/validator/GasRefunder.sol:GasRefunder",
            "label": "maxSingleGasUsage",
            "offset": 8,
            "slot": "1",
            "type": "t_uint32"
          }
        ],
        "numberOfBytes": "64"
      },
      "t_uint128": {
        "encoding": "inplace",
        "label": "uint128",
        "numberOfBytes": "16"
      },
      "t_uint256": {
        "encoding": "inplace",
        "label": "uint256",
        "numberOfBytes": "32"
      },
      "t_uint32": {
        "encoding": "inplace",
        "label": "uint32",
        "numberOfBytes": "4"
      },
      "t_uint64": {
        "encoding": "inplace",
        "label": "uint64",
        "numberOfBytes": "8"
      },
      "t_uint8": {
        "encoding": "inplace",
        "label": "uint8",
        "numberOfBytes": "1"
      }
    }
  }
}