{
  "address": "0x993bB011dbb910a5DF7A03f7705CAA0B492002B0",
  "abi": [
    {
      "anonymous": false,
      "inputs": [
        {
          "indexed": true,
          "internalType": "uint256",
          "name": "messageNum",
          "type": "uint256"
        },
        {
          "indexed": false,
          "internalType": "bytes",
          "name": "data",
          "type": "bytes"
        }
      ],
      "name": "InboxMessageDelivered",
      "type": "event"
    },
    {
      "anonymous": false,
      "inputs": [
        {
          "indexed": true,
          "internalType": "uint256",
          "name": "messageNum",
          "type": "uint256"
        }
      ],
      "name": "InboxMessageDeliveredFromOrigin",
      "type": "event"
    },
    {
      "anonymous": false,
      "inputs": [
        {
          "indexed": false,
          "internalType": "bool",
          "name": "enabled",
          "type": "bool"
        }
      ],
      "name": "PauseToggled",
      "type": "event"
    },
    {
      "anonymous": false,
      "inputs": [
        {
          "indexed": false,
          "internalType": "bool",
          "name": "enabled",
          "type": "bool"
        }
      ],
      "name": "RewriteToggled",
      "type": "event"
    },
    {
      "anonymous": false,
      "inputs": [
        {
          "indexed": false,
          "internalType": "address",
          "name": "newSource",
          "type": "address"
        }
      ],
      "name": "WhitelistSourceUpdated",
      "type": "event"
    },
    {
      "inputs": [],
      "name": "bridge",
      "outputs": [
        {
          "internalType": "contract IBridge",
          "name": "",
          "type": "address"
        }
      ],
      "stateMutability": "view",
      "type": "function"
    },
    {
      "inputs": [
        {
          "internalType": "address",
          "name": "destAddr",
          "type": "address"
        },
        {
          "internalType": "uint256",
          "name": "l2CallValue",
          "type": "uint256"
        },
        {
          "internalType": "uint256",
          "name": "maxSubmissionCost",
          "type": "uint256"
        },
        {
          "internalType": "address",
          "name": "excessFeeRefundAddress",
          "type": "address"
        },
        {
          "internalType": "address",
          "name": "callValueRefundAddress",
          "type": "address"
        },
        {
          "internalType": "uint256",
          "name": "maxGas",
          "type": "uint256"
        },
        {
          "internalType": "uint256",
          "name": "gasPriceBid",
          "type": "uint256"
        },
        {
          "internalType": "bytes",
          "name": "data",
          "type": "bytes"
        }
      ],
      "name": "createRetryableTicket",
      "outputs": [
        {
          "internalType": "uint256",
          "name": "",
          "type": "uint256"
        }
      ],
      "stateMutability": "payable",
      "type": "function"
    },
    {
      "inputs": [
        {
          "internalType": "address",
          "name": "destAddr",
          "type": "address"
        },
        {
          "internalType": "uint256",
          "name": "l2CallValue",
          "type": "uint256"
        },
        {
          "internalType": "uint256",
          "name": "maxSubmissionCost",
          "type": "uint256"
        },
        {
          "internalType": "address",
          "name": "excessFeeRefundAddress",
          "type": "address"
        },
        {
          "internalType": "address",
          "name": "callValueRefundAddress",
          "type": "address"
        },
        {
          "internalType": "uint256",
          "name": "maxGas",
          "type": "uint256"
        },
        {
          "internalType": "uint256",
          "name": "gasPriceBid",
          "type": "uint256"
        },
        {
          "internalType": "bytes",
          "name": "data",
          "type": "bytes"
        }
      ],
      "name": "createRetryableTicketNoRefundAliasRewrite",
      "outputs": [
        {
          "internalType": "uint256",
          "name": "",
          "type": "uint256"
        }
      ],
      "stateMutability": "payable",
      "type": "function"
    },
    {
      "inputs": [
        {
          "internalType": "uint256",
          "name": "maxSubmissionCost",
          "type": "uint256"
        }
      ],
      "name": "depositEth",
      "outputs": [
        {
          "internalType": "uint256",
          "name": "",
          "type": "uint256"
        }
      ],
      "stateMutability": "payable",
      "type": "function"
    },
    {
      "inputs": [
        {
          "internalType": "contract IBridge",
          "name": "_bridge",
          "type": "address"
        },
        {
          "internalType": "address",
          "name": "_whitelist",
          "type": "address"
        }
      ],
      "name": "initialize",
      "outputs": [],
      "stateMutability": "nonpayable",
      "type": "function"
    },
    {
      "inputs": [],
      "name": "isCreateRetryablePaused",
      "outputs": [
        {
          "internalType": "bool",
          "name": "",
          "type": "bool"
        }
      ],
      "stateMutability": "view",
      "type": "function"
    },
    {
      "inputs": [],
      "name": "isMaster",
      "outputs": [
        {
          "internalType": "bool",
          "name": "",
          "type": "bool"
        }
      ],
      "stateMutability": "view",
      "type": "function"
    },
    {
      "inputs": [],
      "name": "pauseCreateRetryables",
      "outputs": [],
      "stateMutability": "nonpayable",
      "type": "function"
    },
    {
      "inputs": [
        {
          "internalType": "uint256",
          "name": "maxGas",
          "type": "uint256"
        },
        {
          "internalType": "uint256",
          "name": "gasPriceBid",
          "type": "uint256"
        },
        {
          "internalType": "address",
          "name": "destAddr",
          "type": "address"
        },
        {
          "internalType": "uint256",
          "name": "amount",
          "type": "uint256"
        },
        {
          "internalType": "bytes",
          "name": "data",
          "type": "bytes"
        }
      ],
      "name": "sendContractTransaction",
      "outputs": [
        {
          "internalType": "uint256",
          "name": "",
          "type": "uint256"
        }
      ],
      "stateMutability": "nonpayable",
      "type": "function"
    },
    {
      "inputs": [
        {
          "internalType": "uint256",
          "name": "maxGas",
          "type": "uint256"
        },
        {
          "internalType": "uint256",
          "name": "gasPriceBid",
          "type": "uint256"
        },
        {
          "internalType": "address",
          "name": "destAddr",
          "type": "address"
        },
        {
          "internalType": "bytes",
          "name": "data",
          "type": "bytes"
        }
      ],
      "name": "sendL1FundedContractTransaction",
      "outputs": [
        {
          "internalType": "uint256",
          "name": "",
          "type": "uint256"
        }
      ],
      "stateMutability": "payable",
      "type": "function"
    },
    {
      "inputs": [
        {
          "internalType": "uint256",
          "name": "maxGas",
          "type": "uint256"
        },
        {
          "internalType": "uint256",
          "name": "gasPriceBid",
          "type": "uint256"
        },
        {
          "internalType": "uint256",
          "name": "nonce",
          "type": "uint256"
        },
        {
          "internalType": "address",
          "name": "destAddr",
          "type": "address"
        },
        {
          "internalType": "bytes",
          "name": "data",
          "type": "bytes"
        }
      ],
      "name": "sendL1FundedUnsignedTransaction",
      "outputs": [
        {
          "internalType": "uint256",
          "name": "",
          "type": "uint256"
        }
      ],
      "stateMutability": "payable",
      "type": "function"
    },
    {
      "inputs": [
        {
          "internalType": "bytes",
          "name": "messageData",
          "type": "bytes"
        }
      ],
      "name": "sendL2Message",
      "outputs": [
        {
          "internalType": "uint256",
          "name": "",
          "type": "uint256"
        }
      ],
      "stateMutability": "nonpayable",
      "type": "function"
    },
    {
      "inputs": [
        {
          "internalType": "bytes",
          "name": "messageData",
          "type": "bytes"
        }
      ],
      "name": "sendL2MessageFromOrigin",
      "outputs": [
        {
          "internalType": "uint256",
          "name": "",
          "type": "uint256"
        }
      ],
      "stateMutability": "nonpayable",
      "type": "function"
    },
    {
      "inputs": [
        {
          "internalType": "uint256",
          "name": "maxGas",
          "type": "uint256"
        },
        {
          "internalType": "uint256",
          "name": "gasPriceBid",
          "type": "uint256"
        },
        {
          "internalType": "uint256",
          "name": "nonce",
          "type": "uint256"
        },
        {
          "internalType": "address",
          "name": "destAddr",
          "type": "address"
        },
        {
          "internalType": "uint256",
          "name": "amount",
          "type": "uint256"
        },
        {
          "internalType": "bytes",
          "name": "data",
          "type": "bytes"
        }
      ],
      "name": "sendUnsignedTransaction",
      "outputs": [
        {
          "internalType": "uint256",
          "name": "",
          "type": "uint256"
        }
      ],
      "stateMutability": "nonpayable",
      "type": "function"
    },
    {
      "inputs": [],
      "name": "shouldRewriteSender",
      "outputs": [
        {
          "internalType": "bool",
          "name": "",
          "type": "bool"
        }
      ],
      "stateMutability": "view",
      "type": "function"
    },
    {
      "inputs": [],
      "name": "startRewriteAddress",
      "outputs": [],
      "stateMutability": "nonpayable",
      "type": "function"
    },
    {
      "inputs": [],
      "name": "stopRewriteAddress",
      "outputs": [],
      "stateMutability": "nonpayable",
      "type": "function"
    },
    {
      "inputs": [],
      "name": "unpauseCreateRetryables",
      "outputs": [],
      "stateMutability": "nonpayable",
      "type": "function"
    },
    {
      "inputs": [
        {
          "internalType": "address",
          "name": "newSource",
          "type": "address"
        }
      ],
      "name": "updateWhitelistSource",
      "outputs": [],
      "stateMutability": "nonpayable",
      "type": "function"
    },
    {
      "inputs": [],
      "name": "whitelist",
      "outputs": [
        {
          "internalType": "address",
          "name": "",
          "type": "address"
        }
      ],
      "stateMutability": "view",
      "type": "function"
    }
  ],
  "transactionHash": "0xd3b679c5c4c93ab7cd5f0b05a9a72e1e7e30bd979fafa7312055128a64f44285",
  "args": [],
  "numDeployments": 1,
  "solcInputHash": "5f404ffad369d1e6fd2cf1f0ce010b90",
  "bytecode": "0x608060405234801561001057600080fd5b506000805460ff60a01b1916600160a01b179055611e82806100336000396000f3fe60806040526004361061011f5760003560e01c80636f791d29116100a05780639fe12da5116100645780639fe12da514610681578063b4d9ec4414610696578063b75436bb146106ab578063e78cea9214610726578063fdebb9b31461073b5761011f565b80636f791d2914610561578063794cfd511461058a5780637ae8d8b31461059f5780638a631aa6146105b457806393e59dc1146106505761011f565b8063485cc955116100e7578063485cc955146102c15780635075788b146102fc5780635e9167581461039f578063679b6ded1461042957806367ef3ab8146104d25761011f565b80630f4d14e9146101245780631b871c8d146101535780631fe927cf146101fc5780632b40609a1461027757806347466f981461028e575b600080fd5b6101416004803603602081101561013a57600080fd5b5035610750565b60408051918252519081900360200190f35b610141600480360361010081101561016a57600080fd5b6001600160a01b038235811692602081013592604082013592606083013581169260808101359091169160a08201359160c081013591810190610100810160e0820135600160201b8111156101be57600080fd5b8201836020820111156101d057600080fd5b803590602001918460018302840111600160201b831117156101f157600080fd5b50909250905061093d565b34801561020857600080fd5b506101416004803603602081101561021f57600080fd5b810190602081018135600160201b81111561023957600080fd5b82018360208201111561024b57600080fd5b803590602001918460018302840111600160201b8311171561026c57600080fd5b509092509050610b1d565b34801561028357600080fd5b5061028c610c8a565b005b34801561029a57600080fd5b5061028c600480360360208110156102b157600080fd5b50356001600160a01b0316610e52565b3480156102cd57600080fd5b5061028c600480360360408110156102e457600080fd5b506001600160a01b0381358116916020013516610ef5565b34801561030857600080fd5b50610141600480360360c081101561031f57600080fd5b8135916020810135916040820135916001600160a01b03606082013516916080820135919081019060c0810160a0820135600160201b81111561036157600080fd5b82018360208201111561037357600080fd5b803590602001918460018302840111600160201b8311171561039457600080fd5b509092509050610f70565b610141600480360360808110156103b557600080fd5b8135916020810135916001600160a01b036040830135169190810190608081016060820135600160201b8111156103eb57600080fd5b8201836020820111156103fd57600080fd5b803590602001918460018302840111600160201b8311171561041e57600080fd5b5090925090506110c5565b610141600480360361010081101561044057600080fd5b6001600160a01b038235811692602081013592604082013592606083013581169260808101359091169160a08201359160c081013591810190610100810160e0820135600160201b81111561049457600080fd5b8201836020820111156104a657600080fd5b803590602001918460018302840111600160201b831117156104c757600080fd5b509092509050611210565b610141600480360360a08110156104e857600080fd5b8135916020810135916040820135916001600160a01b036060820135169181019060a081016080820135600160201b81111561052357600080fd5b82018360208201111561053557600080fd5b803590602001918460018302840111600160201b8311171561055657600080fd5b509092509050611349565b34801561056d57600080fd5b5061057661149d565b604080519115158252519081900360200190f35b34801561059657600080fd5b5061028c6114ad565b3480156105ab57600080fd5b5061028c61166f565b3480156105c057600080fd5b50610141600480360360a08110156105d757600080fd5b8135916020810135916001600160a01b036040830135169160608101359181019060a081016080820135600160201b81111561061257600080fd5b82018360208201111561062457600080fd5b803590602001918460018302840111600160201b8311171561064557600080fd5b50909250905061183a565b34801561065c57600080fd5b5061066561197b565b604080516001600160a01b039092168252519081900360200190f35b34801561068d57600080fd5b5061028c61198a565b3480156106a257600080fd5b50610576611b49565b3480156106b757600080fd5b50610141600480360360208110156106ce57600080fd5b810190602081018135600160201b8111156106e857600080fd5b8201836020820111156106fa57600080fd5b803590602001918460018302840111600160201b8311171561071b57600080fd5b509092509050611b59565b34801561073257600080fd5b50610665611cb9565b34801561074757600080fd5b50610576611cc8565b600080546001600160a01b03161561081c576000546040805163babcc53960e01b815233600482015290516001600160a01b039092169163babcc53991602480820192602092909190829003018186803b1580156107ad57600080fd5b505afa1580156107c1573d6000803e3d6000fd5b505050506040513d60208110156107d757600080fd5b505161081c576040805162461bcd60e51b815260206004820152600f60248201526e1393d517d5d2125511531254d51151608a1b604482015290519081900360640190fd5b600154600160a01b900460ff1615610876576040805162461bcd60e51b815260206004820152601860248201527710d49150551157d4915514965050931154d7d4105554d15160421b604482015290519081900360640190fd5b60015433908190600160a81b900460ff16156108c25761089582611cd8565b1580156108a157503233145b156108b6576108af82611cde565b91506108c2565b6108bf81611ced565b90505b604080516001600160a01b0383166020820181905260008284018190523460608401526080830188905260a0830182905260c083019190915260e0820181905261010082018190526101208083019190915282518083039091018152610140909101909152610935906009908490611cfb565b949350505050565b600080546001600160a01b031615610a09576000546040805163babcc53960e01b815233600482015290516001600160a01b039092169163babcc53991602480820192602092909190829003018186803b15801561099a57600080fd5b505afa1580156109ae573d6000803e3d6000fd5b505050506040513d60208110156109c457600080fd5b5051610a09576040805162461bcd60e51b815260206004820152600f60248201526e1393d517d5d2125511531254d51151608a1b604482015290519081900360640190fd5b600154600160a01b900460ff1615610a63576040805162461bcd60e51b815260206004820152601860248201527710d49150551157d4915514965050931154d7d4105554d15160421b604482015290519081900360640190fd5b610b0f6009338c60601b60601c6001600160a01b03168c348d8d60601b60601c6001600160a01b03168d60601b60601c6001600160a01b03168d8d8d8d90508e8e604051602001808c81526020018b81526020018a8152602001898152602001888152602001878152602001868152602001858152602001848152602001838380828437808301925050509b505050505050505050505050604051602081830303815290604052611cfb565b9a9950505050505050505050565b600080546001600160a01b031615610be9576000546040805163babcc53960e01b815233600482015290516001600160a01b039092169163babcc53991602480820192602092909190829003018186803b158015610b7a57600080fd5b505afa158015610b8e573d6000803e3d6000fd5b505050506040513d6020811015610ba457600080fd5b5051610be9576040805162461bcd60e51b815260206004820152600f60248201526e1393d517d5d2125511531254d51151608a1b604482015290519081900360640190fd5b333214610c2b576040805162461bcd60e51b815260206004820152600b60248201526a6f726967696e206f6e6c7960a81b604482015290519081900360640190fd5b6000610c5560033386866040518083838082843760405192018290039091209350611db492505050565b60405190915081907fab532385be8f1005a4b6ba8fa20a2245facb346134ac739fe9a5198dc1580b9c90600090a29392505050565b60015460408051638da5cb5b60e01b815290516000926001600160a01b031691638da5cb5b916004808301926020929190829003018186803b158015610ccf57600080fd5b505afa158015610ce3573d6000803e3d6000fd5b505050506040513d6020811015610cf957600080fd5b505160408051638da5cb5b60e01b815290519192506000916001600160a01b03841691638da5cb5b916004808301926020929190829003018186803b158015610d4157600080fd5b505afa158015610d55573d6000803e3d6000fd5b505050506040513d6020811015610d6b57600080fd5b50519050336001600160a01b03821614610db9576040805162461bcd60e51b815260206004820152600a60248201526904e4f545f524f4c4c55560b41b604482015290519081900360640190fd5b600154600160a01b900460ff1615610e09576040805162461bcd60e51b815260206004820152600e60248201526d1053149150511657d4105554d15160921b604482015290519081900360640190fd5b6001805460ff60a01b1916600160a01b17815560408051918252517f9077d36bc00859b5c3f320310707208543dd35092cb0a0fe117d0c6a558b148b9181900360200190a15050565b6000546001600160a01b03163314610ea1576040805162461bcd60e51b815260206004820152600d60248201526c1393d517d19493d357d31254d5609a1b604482015290519081900360640190fd5b600080546001600160a01b0383166001600160a01b0319909116811790915560408051918252517f37389c47920d5cc3229678a0205d0455002c07541a4139ebdce91ac2274657779181900360200190a150565b6001546001600160a01b031615610f42576040805162461bcd60e51b815260206004820152600c60248201526b1053149150511657d253925560a21b604482015290519081900360640190fd5b600180546001600160a01b039384166001600160a01b03199182161790915560008054929093169116179055565b600080546001600160a01b03161561103c576000546040805163babcc53960e01b815233600482015290516001600160a01b039092169163babcc53991602480820192602092909190829003018186803b158015610fcd57600080fd5b505afa158015610fe1573d6000803e3d6000fd5b505050506040513d6020811015610ff757600080fd5b505161103c576040805162461bcd60e51b815260206004820152600f60248201526e1393d517d5d2125511531254d51151608a1b604482015290519081900360640190fd5b6110b960033360008b8b8b8b60601b60601c6001600160a01b03168b8b8b604051602001808960ff1660ff1660f81b81526001018881526020018781526020018681526020018581526020018481526020018383808284378083019250505098505050505050505050604051602081830303815290604052611cfb565b98975050505050505050565b600080546001600160a01b031615611191576000546040805163babcc53960e01b815233600482015290516001600160a01b039092169163babcc53991602480820192602092909190829003018186803b15801561112257600080fd5b505afa158015611136573d6000803e3d6000fd5b505050506040513d602081101561114c57600080fd5b5051611191576040805162461bcd60e51b815260206004820152600f60248201526e1393d517d5d2125511531254d51151608a1b604482015290519081900360640190fd5b611206600733600189898960601b60601c6001600160a01b0316348a8a604051602001808860ff1660ff1660f81b815260010187815260200186815260200185815260200184815260200183838082843780830192505050975050505050505050604051602081830303815290604052611cfb565b9695505050505050565b600080546001600160a01b0316156112dc576000546040805163babcc53960e01b815233600482015290516001600160a01b039092169163babcc53991602480820192602092909190829003018186803b15801561126d57600080fd5b505afa158015611281573d6000803e3d6000fd5b505050506040513d602081101561129757600080fd5b50516112dc576040805162461bcd60e51b815260206004820152600f60248201526e1393d517d5d2125511531254d51151608a1b604482015290519081900360640190fd5b600154600160a81b900460ff1680156112f957506112f987611cd8565b1561130a5761130787611ced565b96505b600154600160a81b900460ff168015611327575061132786611cd8565b156113385761133586611ced565b95505b610b0f8a8a8a8a8a8a8a8a8a61093d565b600080546001600160a01b031615611415576000546040805163babcc53960e01b815233600482015290516001600160a01b039092169163babcc53991602480820192602092909190829003018186803b1580156113a657600080fd5b505afa1580156113ba573d6000803e3d6000fd5b505050506040513d60208110156113d057600080fd5b5051611415576040805162461bcd60e51b815260206004820152600f60248201526e1393d517d5d2125511531254d51151608a1b604482015290519081900360640190fd5b61149260073360008a8a8a8a60601b60601c6001600160a01b0316348b8b604051602001808960ff1660ff1660f81b81526001018881526020018781526020018681526020018581526020018481526020018383808284378083019250505098505050505050505050604051602081830303815290604052611cfb565b979650505050505050565b600054600160a01b900460ff1690565b60015460408051638da5cb5b60e01b815290516000926001600160a01b031691638da5cb5b916004808301926020929190829003018186803b1580156114f257600080fd5b505afa158015611506573d6000803e3d6000fd5b505050506040513d602081101561151c57600080fd5b505160408051638da5cb5b60e01b815290519192506000916001600160a01b03841691638da5cb5b916004808301926020929190829003018186803b15801561156457600080fd5b505afa158015611578573d6000803e3d6000fd5b505050506040513d602081101561158e57600080fd5b50519050336001600160a01b038216146115dc576040805162461bcd60e51b815260206004820152600a60248201526904e4f545f524f4c4c55560b41b604482015290519081900360640190fd5b600154600160a81b900460ff1661162a576040805162461bcd60e51b815260206004820152600d60248201526c4e4f545f524557524954494e4760981b604482015290519081900360640190fd5b6001805460ff60a81b19169055604080516000815290517fab1ea65fd25ce96d303e895d1bd43edddb89841544a3705d3e61fc947a5fc25b9181900360200190a15050565b60015460408051638da5cb5b60e01b815290516000926001600160a01b031691638da5cb5b916004808301926020929190829003018186803b1580156116b457600080fd5b505afa1580156116c8573d6000803e3d6000fd5b505050506040513d60208110156116de57600080fd5b505160408051638da5cb5b60e01b815290519192506000916001600160a01b03841691638da5cb5b916004808301926020929190829003018186803b15801561172657600080fd5b505afa15801561173a573d6000803e3d6000fd5b505050506040513d602081101561175057600080fd5b50519050336001600160a01b0382161461179e576040805162461bcd60e51b815260206004820152600a60248201526904e4f545f524f4c4c55560b41b604482015290519081900360640190fd5b600154600160a81b900460ff16156117f1576040805162461bcd60e51b8152602060048201526011602482015270414c52454144595f524557524954494e4760781b604482015290519081900360640190fd5b6001805460ff60a81b1916600160a81b17815560408051918252517fab1ea65fd25ce96d303e895d1bd43edddb89841544a3705d3e61fc947a5fc25b9181900360200190a15050565b600080546001600160a01b031615611906576000546040805163babcc53960e01b815233600482015290516001600160a01b039092169163babcc53991602480820192602092909190829003018186803b15801561189757600080fd5b505afa1580156118ab573d6000803e3d6000fd5b505050506040513d60208110156118c157600080fd5b5051611906576040805162461bcd60e51b815260206004820152600f60248201526e1393d517d5d2125511531254d51151608a1b604482015290519081900360640190fd5b61149260033360018a8a8a60601b60601c6001600160a01b03168a8a8a604051602001808860ff1660ff1660f81b815260010187815260200186815260200185815260200184815260200183838082843780830192505050975050505050505050604051602081830303815290604052611cfb565b6000546001600160a01b031681565b60015460408051638da5cb5b60e01b815290516000926001600160a01b031691638da5cb5b916004808301926020929190829003018186803b1580156119cf57600080fd5b505afa1580156119e3573d6000803e3d6000fd5b505050506040513d60208110156119f957600080fd5b505160408051638da5cb5b60e01b815290519192506000916001600160a01b03841691638da5cb5b916004808301926020929190829003018186803b158015611a4157600080fd5b505afa158015611a55573d6000803e3d6000fd5b505050506040513d6020811015611a6b57600080fd5b50519050336001600160a01b03821614611ab9576040805162461bcd60e51b815260206004820152600a60248201526904e4f545f524f4c4c55560b41b604482015290519081900360640190fd5b600154600160a01b900460ff16611b04576040805162461bcd60e51b815260206004820152600a6024820152691393d517d4105554d15160b21b604482015290519081900360640190fd5b6001805460ff60a01b19169055604080516000815290517f9077d36bc00859b5c3f320310707208543dd35092cb0a0fe117d0c6a558b148b9181900360200190a15050565b600154600160a01b900460ff1681565b600080546001600160a01b031615611c25576000546040805163babcc53960e01b815233600482015290516001600160a01b039092169163babcc53991602480820192602092909190829003018186803b158015611bb657600080fd5b505afa158015611bca573d6000803e3d6000fd5b505050506040513d6020811015611be057600080fd5b5051611c25576040805162461bcd60e51b815260206004820152600f60248201526e1393d517d5d2125511531254d51151608a1b604482015290519081900360640190fd5b6000611c4f60033386866040518083838082843760405192018290039091209350611db492505050565b9050807fff64905f73a67fb594e0f940a8075a860db489ad991e032f48c81123eb52d60b858560405180806020018281038252848482818152602001925080828437600083820152604051601f909101601f19169092018290039550909350505050a29392505050565b6001546001600160a01b031681565b600154600160a81b900460ff1681565b3b151590565b61111061111160901b01190190565b61111161111160901b010190565b600080611d1085858580519060200120611db4565b9050807fff64905f73a67fb594e0f940a8075a860db489ad991e032f48c81123eb52d60b846040518080602001828103825283818151815260200191508051906020019080838360005b83811015611d72578181015183820152602001611d5a565b50505050905090810190601f168015611d9f5780820380516001836020036101000a031916815260200191505b509250505060405180910390a2949350505050565b600154604080516302bbfad160e01b815260ff861660048201526001600160a01b03858116602483015260448201859052915160009392909216916302bbfad1913491606480830192602092919082900301818588803b158015611e1757600080fd5b505af1158015611e2b573d6000803e3d6000fd5b50505050506040513d6020811015611e4257600080fd5b505194935050505056fea2646970667358221220ed792396a49edd456f5b05e40bfc6c2098d2037e24a28a983ff70e1f51cdd64564736f6c634300060b0033",
  "devdoc": {
    "kind": "dev",
    "methods": {
      "createRetryableTicket(address,uint256,uint256,address,address,uint256,uint256,bytes)": {
        "details": "all msg.value will deposited to callValueRefundAddress on L2",
        "params": {
          "callValueRefundAddress": "l2Callvalue gets credited here on L2 if retryable txn times out or gets cancelled",
          "data": "ABI encoded data of L2 message",
          "destAddr": "destination L2 contract address",
          "excessFeeRefundAddress": "maxgas x gasprice - execution cost gets credited here on L2 balance",
          "gasPriceBid": "price bid for L2 execution",
          "l2CallValue": "call value for retryable L2 message",
          "maxGas": "Max gas deducted from user's L2 balance to cover L2 execution",
          "maxSubmissionCost": "Max gas deducted from user's L2 balance to cover base submission fee"
        },
        "returns": {
          "_0": "unique id for retryable transaction (keccak256(requestID, uint(0) )"
        }
      },
      "createRetryableTicketNoRefundAliasRewrite(address,uint256,uint256,address,address,uint256,uint256,bytes)": {
        "details": "Advanced usage only (does not rewrite aliases for excessFeeRefundAddress and callValueRefundAddress). createRetryableTicket method is the recommended standard.",
        "params": {
          "callValueRefundAddress": "l2Callvalue gets credited here on L2 if retryable txn times out or gets cancelled",
          "data": "ABI encoded data of L2 message",
          "destAddr": "destination L2 contract address",
          "excessFeeRefundAddress": "maxgas x gasprice - execution cost gets credited here on L2 balance",
          "gasPriceBid": "price bid for L2 execution",
          "l2CallValue": "call value for retryable L2 message",
          "maxGas": "Max gas deducted from user's L2 balance to cover L2 execution",
          "maxSubmissionCost": "Max gas deducted from user's L2 balance to cover base submission fee"
        },
        "returns": {
          "_0": "unique id for retryable transaction (keccak256(requestID, uint(0) )"
        }
      },
      "depositEth(uint256)": {
        "details": "this function should not be called inside contract constructors"
      },
      "sendL2Message(bytes)": {
        "details": "This method can be used to send any type of message that doesn't require L1 validation",
        "params": {
          "messageData": "Data of the message being sent"
        }
      },
      "sendL2MessageFromOrigin(bytes)": {
        "details": "This method is an optimization to avoid having to emit the entirety of the messageData in a log. Instead validators are expected to be able to parse the data from the transaction's input",
        "params": {
          "messageData": "Data of the message being sent"
        }
      }
    },
    "version": 1
  },
  "userdoc": {
    "kind": "user",
    "methods": {
      "createRetryableTicket(address,uint256,uint256,address,address,uint256,uint256,bytes)": {
        "notice": "Put a message in the L2 inbox that can be reexecuted for some fixed amount of time if it reverts"
      },
      "createRetryableTicketNoRefundAliasRewrite(address,uint256,uint256,address,address,uint256,uint256,bytes)": {
        "notice": "Put a message in the L2 inbox that can be reexecuted for some fixed amount of time if it reverts"
      },
      "depositEth(uint256)": {
        "notice": "deposit eth from L1 to L2"
      },
      "pauseCreateRetryables()": {
        "notice": "pauses creating retryables"
      },
      "sendL2Message(bytes)": {
        "notice": "Send a generic L2 message to the chain"
      },
      "sendL2MessageFromOrigin(bytes)": {
        "notice": "Send a generic L2 message to the chain"
      },
      "startRewriteAddress()": {
        "notice": "start rewriting addresses in eth deposits"
      },
      "stopRewriteAddress()": {
        "notice": "stop rewriting addresses in eth deposits"
      },
      "unpauseCreateRetryables()": {
        "notice": "unpauses creating retryables"
      }
    },
    "version": 1
  },
  "storageLayout": {
    "storage": [
      {
        "astId": 21433,
        "contract": "contracts/bridge/Inbox.sol:Inbox",
        "label": "whitelist",
        "offset": 0,
        "slot": "0",
        "type": "t_address"
      },
      {
        "astId": 18568,
        "contract": "contracts/bridge/Inbox.sol:Inbox",
        "label": "isMasterCopy",
        "offset": 20,
        "slot": "0",
        "type": "t_bool"
      },
      {
        "astId": 13214,
        "contract": "contracts/bridge/Inbox.sol:Inbox",
        "label": "bridge",
        "offset": 0,
        "slot": "1",
        "type": "t_contract(IBridge)16694"
      },
      {
        "astId": 13216,
        "contract": "contracts/bridge/Inbox.sol:Inbox",
        "label": "isCreateRetryablePaused",
        "offset": 20,
        "slot": "1",
        "type": "t_bool"
      },
      {
        "astId": 13218,
        "contract": "contracts/bridge/Inbox.sol:Inbox",
        "label": "shouldRewriteSender",
        "offset": 21,
        "slot": "1",
        "type": "t_bool"
      }
    ],
    "types": {
      "t_address": {
        "encoding": "inplace",
        "label": "address",
        "numberOfBytes": "20"
      },
      "t_bool": {
        "encoding": "inplace",
        "label": "bool",
        "numberOfBytes": "1"
      },
      "t_contract(IBridge)16694": {
        "encoding": "inplace",
        "label": "contract IBridge",
        "numberOfBytes": "20"
      }
    }
  }
}