{
  "address": "0x9eec69B1F15A2C7E85dfea46DD60aEa574d4bf15",
  "abi": [
    {
      "inputs": [],
      "stateMutability": "nonpayable",
      "type": "constructor"
    },
    {
      "inputs": [],
      "name": "beacon",
      "outputs": [
        {
          "internalType": "contract UpgradeableBeacon",
          "name": "",
          "type": "address"
        }
      ],
      "stateMutability": "view",
      "type": "function"
    },
    {
      "inputs": [
        {
          "internalType": "bytes32",
          "name": "_stateHash",
          "type": "bytes32"
        },
        {
          "internalType": "bytes32",
          "name": "_challengeHash",
          "type": "bytes32"
        },
        {
          "internalType": "bytes32",
          "name": "_confirmData",
          "type": "bytes32"
        },
        {
          "internalType": "uint256",
          "name": "_prev",
          "type": "uint256"
        },
        {
          "internalType": "uint256",
          "name": "_deadlineBlock",
          "type": "uint256"
        }
      ],
      "name": "createNode",
      "outputs": [
        {
          "internalType": "address",
          "name": "",
          "type": "address"
        }
      ],
      "stateMutability": "nonpayable",
      "type": "function"
    }
  ],
  "transactionHash": "0x767fa950e3f7f5eac6da22fef1793a0bf3abccb3f71401356e9932614a3b1b1c",
  "args": [],
  "numDeployments": 1,
  "solcInputHash": "5f404ffad369d1e6fd2cf1f0ce010b90",
  "bytecode": "0x608060405234801561001057600080fd5b50600060405161001f906100f2565b604051809103906000f08015801561003b573d6000803e3d6000fd5b5090508060405161004b906100ff565b6001600160a01b03909116815260405190819003602001906000f080158015610078573d6000803e3d6000fd5b50600080546001600160a01b0319166001600160a01b03928316178082556040805163f2fde38b60e01b81523360048201529051919093169263f2fde38b92602480830193919282900301818387803b1580156100d457600080fd5b505af11580156100e8573d6000803e3d6000fd5b505050505061010c565b61087b80610ba583390190565b6105d18061142083390190565b610a8a8061011b6000396000f3fe608060405234801561001057600080fd5b50600436106100365760003560e01c806359659e901461003b578063d45ab2b51461005f575b600080fd5b610043610094565b604080516001600160a01b039092168252519081900360200190f35b610043600480360360a081101561007557600080fd5b50803590602081013590604081013590606081013590608001356100a3565b6000546001600160a01b031681565b6000805460405182916001600160a01b0316906100bf9061018d565b6001600160a01b03909116815260406020820181905260008183018190529051918290036080019190f0801580156100fb573d6000803e3d6000fd5b5060408051632901acdd60e21b8152336004820152602481018a905260448101899052606481018890526084810187905260a4810186905290519192506001600160a01b0383169163a406b3749160c48082019260009290919082900301818387803b15801561016a57600080fd5b505af115801561017e573d6000803e3d6000fd5b50929998505050505050505050565b6108ba8061019b8339019056fe60806040526040516108ba3803806108ba8339818101604052604081101561002657600080fd5b81516020830180516040519294929383019291908464010000000082111561004d57600080fd5b90830190602082018581111561006257600080fd5b825164010000000081118282018810171561007c57600080fd5b82525081516020918201929091019080838360005b838110156100a9578181015183820152602001610091565b50505050905090810190601f1680156100d65780820380516001836020036101000a031916815260200191505b5060408181527f656970313936372e70726f78792e626561636f6e0000000000000000000000008252519081900360140190206000805160206107fa83398151915260001990910114925061012a91505057fe5b61013d82826001600160e01b0361014416565b50506104f3565b610157826102a260201b6100311760201c565b6101925760405162461bcd60e51b815260040180806020018281038252602581526020018061083b6025913960400191505060405180910390fd5b61020a826001600160a01b0316635c60da1b6040518163ffffffff1660e01b815260040160206040518083038186803b1580156101ce57600080fd5b505afa1580156101e2573d6000803e3d6000fd5b505050506040513d60208110156101f857600080fd5b50516102a2602090811b61003117901c565b6102455760405162461bcd60e51b81526004018080602001828103825260348152602001806108866034913960400191505060405180910390fd5b6000805160206107fa83398151915282815581511561029d5761029b6102726001600160e01b036102a816565b8360405180606001604052806021815260200161081a6021913961032460201b6100371760201c565b505b505050565b3b151590565b60006102bb6001600160e01b0361043c16565b6001600160a01b0316635c60da1b6040518163ffffffff1660e01b815260040160206040518083038186803b1580156102f357600080fd5b505afa158015610307573d6000803e3d6000fd5b505050506040513d602081101561031d57600080fd5b5051905090565b6060610338846001600160e01b036102a216565b6103735760405162461bcd60e51b81526004018080602001828103825260268152602001806108606026913960400191505060405180910390fd5b60006060856001600160a01b0316856040518082805190602001908083835b602083106103b15780518252601f199092019160209182019101610392565b6001836020036101000a038019825116818451168082178552505050505050905001915050600060405180830381855af49150503d8060008114610411576040519150601f19603f3d011682016040523d82523d6000602084013e610416565b606091505b5090925090506104308282866001600160e01b0361044f16565b925050505b9392505050565b6000805160206107fa8339815191525490565b6060831561045e575081610435565b82511561046e5782518084602001fd5b8160405162461bcd60e51b81526004018080602001828103825283818151815260200191508051906020019080838360005b838110156104b85781810151838201526020016104a0565b50505050905090810190601f1680156104e55780820380516001836020036101000a031916815260200191505b509250505060405180910390fd5b6102f8806105026000396000f3fe60806040523661001357610011610017565b005b6100115b61001f61002f565b61002f61002a61013c565b6101af565b565b3b151590565b606061004284610031565b61007d5760405162461bcd60e51b815260040180806020018281038252602681526020018061029d6026913960400191505060405180910390fd5b60006060856001600160a01b0316856040518082805190602001908083835b602083106100bb5780518252601f19909201916020918201910161009c565b6001836020036101000a038019825116818451168082178552505050505050905001915050600060405180830381855af49150503d806000811461011b576040519150601f19603f3d011682016040523d82523d6000602084013e610120565b606091505b50915091506101308282866101d3565b925050505b9392505050565b6000610146610277565b6001600160a01b0316635c60da1b6040518163ffffffff1660e01b815260040160206040518083038186803b15801561017e57600080fd5b505afa158015610192573d6000803e3d6000fd5b505050506040513d60208110156101a857600080fd5b5051905090565b3660008037600080366000845af43d6000803e8080156101ce573d6000f35b3d6000fd5b606083156101e2575081610135565b8251156101f25782518084602001fd5b8160405162461bcd60e51b81526004018080602001828103825283818151815260200191508051906020019080838360005b8381101561023c578181015183820152602001610224565b50505050905090810190601f1680156102695780820380516001836020036101000a031916815260200191505b509250505060405180910390fd5b7fa3f0ad74e5423aebfd80d3ef4346578335a9a72aeaee59ff6cb3582b35133d50549056fe416464726573733a2064656c65676174652063616c6c20746f206e6f6e2d636f6e7472616374a264697066735822122053dcbd8c0863f6517a5117ac7b858fc300ba6a67685a286f909e85f8150b82c764736f6c634300060b0033a3f0ad74e5423aebfd80d3ef4346578335a9a72aeaee59ff6cb3582b35133d50426561636f6e50726f78793a2066756e6374696f6e2063616c6c206661696c6564426561636f6e50726f78793a20626561636f6e206973206e6f74206120636f6e7472616374416464726573733a2064656c65676174652063616c6c20746f206e6f6e2d636f6e7472616374426561636f6e50726f78793a20626561636f6e20696d706c656d656e746174696f6e206973206e6f74206120636f6e7472616374a26469706673582212201c7808e51890d65964007cea1cd560c6393b50bef68af6b3deb91da38a4eeb8364736f6c634300060b0033608060405234801561001057600080fd5b506000805460ff1916600117905561084e8061002d6000396000f3fe608060405234801561001057600080fd5b506004361061012c5760003560e01c806388d221c6116100ad578063a406b37411610071578063a406b37414610255578063cb23bcb514610299578063d7ff5e35146102bd578063dff69787146102c5578063f0dd77ff146102cd5761012c565b806388d221c6146101f15780639168ae72146101f957806396a9fdc01461021f57806397bdc51014610245578063a0369c141461024d5761012c565b80635b8b2280116100f45780635b8b2280146101a05780636971dfe5146101a85780636f791d29146101c5578063701da98e146101e157806383197ef0146101e95761012c565b80631bc09d0a146101315780632466696e146101505780632edfb42a146101885780633aa1927414610190578063479c925414610198575b600080fd5b61014e6004803603602081101561014757600080fd5b50356102d5565b005b6101766004803603602081101561016657600080fd5b50356001600160a01b0316610333565b60408051918252519081900360200190f35b610176610416565b61014e61041c565b610176610468565b61017661046e565b61014e600480360360208110156101be57600080fd5b5035610474565b6101cd6104c6565b604080519115158252519081900360200190f35b6101766104cf565b61014e6104d5565b61014e61052b565b6101cd6004803603602081101561020f57600080fd5b50356001600160a01b0316610574565b61014e6004803603602081101561023557600080fd5b50356001600160a01b0316610589565b61017661065b565b610176610661565b61014e600480360360c081101561026b57600080fd5b506001600160a01b038135169060208101359060408101359060608101359060808101359060a00135610667565b6102a161073a565b604080516001600160a01b039092168252519081900360200190f35b610176610749565b61017661074f565b610176610755565b6009546001600160a01b03163314610322576040805162461bcd60e51b815260206004820152600b60248201526a524f4c4c55505f4f4e4c5960a81b604482015290519081900360640190fd5b600a5461032e5743600a555b600b55565b6009546000906001600160a01b03163314610383576040805162461bcd60e51b815260206004820152600b60248201526a524f4c4c55505f4f4e4c5960a81b604482015290519081900360640190fd5b6001600160a01b03821660009081526008602052604090205460ff16156103e2576040805162461bcd60e51b815260206004820152600e60248201526d1053149150511657d4d51052d15160921b604482015290519081900360640190fd5b506001600160a01b03166000908152600860205260409020805460ff19166001908117909155600780549091019081905590565b60055481565b600654431015610466576040805162461bcd60e51b815260206004820152601060248201526f10d212531117d513d3d7d49150d1539560821b604482015290519081900360640190fd5b565b60045481565b60025481565b6009546001600160a01b031633146104c1576040805162461bcd60e51b815260206004820152600b60248201526a524f4c4c55505f4f4e4c5960a81b604482015290519081900360640190fd5b600655565b60005460ff1690565b60015481565b6009546001600160a01b03163314610522576040805162461bcd60e51b815260206004820152600b60248201526a524f4c4c55505f4f4e4c5960a81b604482015290519081900360640190fd5b6104663361075b565b600554431015610466576040805162461bcd60e51b815260206004820152600f60248201526e4245464f52455f444541444c494e4560881b604482015290519081900360640190fd5b60086020526000908152604090205460ff1681565b6009546001600160a01b031633146105d6576040805162461bcd60e51b815260206004820152600b60248201526a524f4c4c55505f4f4e4c5960a81b604482015290519081900360640190fd5b6001600160a01b03811660009081526008602052604090205460ff16610630576040805162461bcd60e51b815260206004820152600a6024820152691393d517d4d51052d15160b21b604482015290519081900360640190fd5b6001600160a01b03166000908152600860205260409020805460ff1916905560078054600019019055565b60035481565b60065481565b6001600160a01b0386166106b0576040805162461bcd60e51b815260206004820152600b60248201526a2927a6262aa82fa0a2222960a91b604482015290519081900360640190fd5b6009546001600160a01b0316156106fd576040805162461bcd60e51b815260206004820152600c60248201526b1053149150511657d253925560a21b604482015290519081900360640190fd5b600980546001600160a01b0319166001600160a01b0397909716969096179095556001939093556002919091556003556004556005819055600655565b6009546001600160a01b031681565b600a5481565b60075481565b600b5481565b6000546040805180820190915260098152684e4f545f434c4f4e4560b81b60208201529060ff161561080b5760405162461bcd60e51b81526004018080602001828103825283818151815260200191508051906020019080838360005b838110156107d05781810151838201526020016107b8565b50505050905090810190601f1680156107fd5780820380516001836020036101000a031916815260200191505b509250505060405180910390fd5b50806001600160a01b0316fffea26469706673582212203a8c6cd0754ce30fac0a025ae9bf8214862eb7455a8d97511f7a4245f8e3a11f64736f6c634300060b0033608060405234801561001057600080fd5b506040516105d13803806105d18339818101604052602081101561003357600080fd5b505160006100486001600160e01b036100aa16565b600080546001600160a01b0319166001600160a01b0383169081178255604051929350917f8be0079c531659141344cd1fd0a4f28419497f9722a3daafe3b4186f6b6457e0908290a3506100a4816001600160e01b036100ae16565b50610124565b3390565b6100c18161011e60201b61034c1760201c565b6100fc5760405162461bcd60e51b815260040180806020018281038252603381526020018061059e6033913960400191505060405180910390fd5b600180546001600160a01b0319166001600160a01b0392909216919091179055565b3b151590565b61046b806101336000396000f3fe608060405234801561001057600080fd5b50600436106100575760003560e01c80633659cfe61461005c5780635c60da1b14610084578063715018a6146100a85780638da5cb5b146100b0578063f2fde38b146100b8575b600080fd5b6100826004803603602081101561007257600080fd5b50356001600160a01b03166100de565b005b61008c610180565b604080516001600160a01b039092168252519081900360200190f35b61008261018f565b61008c61023b565b610082600480360360208110156100ce57600080fd5b50356001600160a01b031661024a565b6100e6610352565b6001600160a01b03166100f761023b565b6001600160a01b031614610140576040805162461bcd60e51b81526020600482018190526024820152600080516020610416833981519152604482015290519081900360640190fd5b61014981610356565b6040516001600160a01b038216907fbc7cd75a20ee27fd9adebab32041f755214dbc6bffa90cc0225b39da2e5c2d3b90600090a250565b6001546001600160a01b031690565b610197610352565b6001600160a01b03166101a861023b565b6001600160a01b0316146101f1576040805162461bcd60e51b81526020600482018190526024820152600080516020610416833981519152604482015290519081900360640190fd5b600080546040516001600160a01b03909116907f8be0079c531659141344cd1fd0a4f28419497f9722a3daafe3b4186f6b6457e0908390a3600080546001600160a01b0319169055565b6000546001600160a01b031690565b610252610352565b6001600160a01b031661026361023b565b6001600160a01b0316146102ac576040805162461bcd60e51b81526020600482018190526024820152600080516020610416833981519152604482015290519081900360640190fd5b6001600160a01b0381166102f15760405162461bcd60e51b81526004018080602001828103825260268152602001806103bd6026913960400191505060405180910390fd5b600080546040516001600160a01b03808516939216917f8be0079c531659141344cd1fd0a4f28419497f9722a3daafe3b4186f6b6457e091a3600080546001600160a01b0319166001600160a01b0392909216919091179055565b3b151590565b3390565b61035f8161034c565b61039a5760405162461bcd60e51b81526004018080602001828103825260338152602001806103e36033913960400191505060405180910390fd5b600180546001600160a01b0319166001600160a01b039290921691909117905556fe4f776e61626c653a206e6577206f776e657220697320746865207a65726f20616464726573735570677261646561626c65426561636f6e3a20696d706c656d656e746174696f6e206973206e6f74206120636f6e74726163744f776e61626c653a2063616c6c6572206973206e6f7420746865206f776e6572a2646970667358221220e082b44760d7484daad017396b93ce8fb7ce2f11f19db0d8429a61aaedbc6f4564736f6c634300060b00335570677261646561626c65426561636f6e3a20696d706c656d656e746174696f6e206973206e6f74206120636f6e7472616374",
  "devdoc": {
    "kind": "dev",
    "methods": {},
    "version": 1
  },
  "userdoc": {
    "kind": "user",
    "methods": {},
    "version": 1
  },
  "storageLayout": {
    "storage": [
      {
        "astId": 22589,
        "contract": "contracts/rollup/NodeFactory.sol:NodeFactory",
        "label": "beacon",
        "offset": 0,
        "slot": "0",
        "type": "t_contract(UpgradeableBeacon)1542"
      }
    ],
    "types": {
      "t_contract(UpgradeableBeacon)1542": {
        "encoding": "inplace",
        "label": "contract UpgradeableBeacon",
        "numberOfBytes": "20"
      }
    }
  }
}