{
  "address": "0xEEf843d2A86EE6D746f4b79f8A8eECF5459e7FB7",
  "abi": [
    {
      "inputs": [],
      "stateMutability": "nonpayable",
      "type": "constructor"
    },
    {
      "anonymous": false,
      "inputs": [
        {
          "indexed": true,
          "internalType": "address",
          "name": "previousOwner",
          "type": "address"
        },
        {
          "indexed": true,
          "internalType": "address",
          "name": "newOwner",
          "type": "address"
        }
      ],
      "name": "OwnershipTransferred",
      "type": "event"
    },
    {
      "anonymous": false,
      "inputs": [
        {
          "indexed": true,
          "internalType": "address",
          "name": "rollupAddress",
          "type": "address"
        },
        {
          "indexed": false,
          "internalType": "address",
          "name": "inboxAddress",
          "type": "address"
        },
        {
          "indexed": false,
          "internalType": "address",
          "name": "adminProxy",
          "type": "address"
        }
      ],
      "name": "RollupCreated",
      "type": "event"
    },
    {
      "anonymous": false,
      "inputs": [],
      "name": "TemplatesUpdated",
      "type": "event"
    },
    {
      "inputs": [],
      "name": "bridgeCreator",
      "outputs": [
        {
          "internalType": "contract BridgeCreator",
          "name": "",
          "type": "address"
        }
      ],
      "stateMutability": "view",
      "type": "function"
    },
    {
      "inputs": [],
      "name": "challengeFactory",
      "outputs": [
        {
          "internalType": "address",
          "name": "",
          "type": "address"
        }
      ],
      "stateMutability": "view",
      "type": "function"
    },
    {
      "inputs": [
        {
          "internalType": "bytes32",
          "name": "_machineHash",
          "type": "bytes32"
        },
        {
          "internalType": "uint256",
          "name": "_confirmPeriodBlocks",
          "type": "uint256"
        },
        {
          "internalType": "uint256",
          "name": "_extraChallengeTimeBlocks",
          "type": "uint256"
        },
        {
          "internalType": "uint256",
          "name": "_avmGasSpeedLimitPerBlock",
          "type": "uint256"
        },
        {
          "internalType": "uint256",
          "name": "_baseStake",
          "type": "uint256"
        },
        {
          "internalType": "address",
          "name": "_stakeToken",
          "type": "address"
        },
        {
          "internalType": "address",
          "name": "_rollupOwner",
          "type": "address"
        },
        {
          "internalType": "address",
          "name": "_sequencer",
          "type": "address"
        },
        {
          "internalType": "uint256",
          "name": "_sequencerDelayBlocks",
          "type": "uint256"
        },
        {
          "internalType": "uint256",
          "name": "_sequencerDelaySeconds",
          "type": "uint256"
        },
        {
          "internalType": "bytes",
          "name": "_extraConfig",
          "type": "bytes"
        }
      ],
      "name": "createRollup",
      "outputs": [
        {
          "internalType": "address",
          "name": "",
          "type": "address"
        }
      ],
      "stateMutability": "nonpayable",
      "type": "function"
    },
    {
      "inputs": [],
      "name": "nodeFactory",
      "outputs": [
        {
          "internalType": "address",
          "name": "",
          "type": "address"
        }
      ],
      "stateMutability": "view",
      "type": "function"
    },
    {
      "inputs": [],
      "name": "owner",
      "outputs": [
        {
          "internalType": "address",
          "name": "",
          "type": "address"
        }
      ],
      "stateMutability": "view",
      "type": "function"
    },
    {
      "inputs": [],
      "name": "renounceOwnership",
      "outputs": [],
      "stateMutability": "nonpayable",
      "type": "function"
    },
    {
      "inputs": [],
      "name": "rollupAdminFacet",
      "outputs": [
        {
          "internalType": "address",
          "name": "",
          "type": "address"
        }
      ],
      "stateMutability": "view",
      "type": "function"
    },
    {
      "inputs": [],
      "name": "rollupTemplate",
      "outputs": [
        {
          "internalType": "contract ICloneable",
          "name": "",
          "type": "address"
        }
      ],
      "stateMutability": "view",
      "type": "function"
    },
    {
      "inputs": [],
      "name": "rollupUserFacet",
      "outputs": [
        {
          "internalType": "address",
          "name": "",
          "type": "address"
        }
      ],
      "stateMutability": "view",
      "type": "function"
    },
    {
      "inputs": [
        {
          "internalType": "contract BridgeCreator",
          "name": "_bridgeCreator",
          "type": "address"
        },
        {
          "internalType": "contract ICloneable",
          "name": "_rollupTemplate",
          "type": "address"
        },
        {
          "internalType": "address",
          "name": "_challengeFactory",
          "type": "address"
        },
        {
          "internalType": "address",
          "name": "_nodeFactory",
          "type": "address"
        },
        {
          "internalType": "address",
          "name": "_rollupAdminFacet",
          "type": "address"
        },
        {
          "internalType": "address",
          "name": "_rollupUserFacet",
          "type": "address"
        }
      ],
      "name": "setTemplates",
      "outputs": [],
      "stateMutability": "nonpayable",
      "type": "function"
    },
    {
      "inputs": [
        {
          "internalType": "address",
          "name": "newOwner",
          "type": "address"
        }
      ],
      "name": "transferOwnership",
      "outputs": [],
      "stateMutability": "nonpayable",
      "type": "function"
    }
  ],
  "transactionHash": "0x41376f6b98e3c3b10da97a78bd826d68d347280442f88a9e4ce5f03fbd69081d",
  "args": [],
  "numDeployments": 1,
  "solcInputHash": "5f404ffad369d1e6fd2cf1f0ce010b90",
  "bytecode": "0x608060405234801561001057600080fd5b5060006100246001600160e01b0361007316565b600080546001600160a01b0319166001600160a01b0383169081178255604051929350917f8be0079c531659141344cd1fd0a4f28419497f9722a3daafe3b4186f6b6457e0908290a350610077565b3390565b612308806100866000396000f3fe60806040523480156200001157600080fd5b5060043610620000b85760003560e01c80638da5cb5b116200007b5780638da5cb5b1462000211578063b6454962146200021b578063d93fe9c41462000225578063edb18091146200022f578063f2fde38b1462000239578063f860cefa146200026257620000b8565b806301183c8914620000bd5780634b1ef03014620001105780635dbaf68b14620001f3578063715018a614620001fd5780638689d9961462000207575b600080fd5b6200010e600480360360c0811015620000d557600080fd5b506001600160a01b038135811691602081013582169160408201358116916060810135821691608082013581169160a00135166200026c565b005b620001d760048036036101608110156200012957600080fd5b8135916020810135916040820135916060810135916080820135916001600160a01b0360a082013581169260c083013582169260e08101359092169161010081013591610120820135919081019061016081016101408201356401000000008111156200019557600080fd5b820183602082011115620001a857600080fd5b80359060200191846001830284011164010000000083111715620001cb57600080fd5b50909250905062000367565b604080516001600160a01b039092168252519081900360200190f35b620001d76200041f565b6200010e6200042e565b620001d7620004e0565b620001d7620004ef565b620001d7620004fe565b620001d76200050d565b620001d76200051c565b6200010e600480360360208110156200025157600080fd5b50356001600160a01b03166200052b565b620001d762000635565b6200027662000644565b6001600160a01b031662000289620004ef565b6001600160a01b031614620002d4576040805162461bcd60e51b81526020600482018190526024820152600080516020620022b3833981519152604482015290519081900360640190fd5b600180546001600160a01b03199081166001600160a01b0389811691909117909255600280548216888416179055600380548216878416179055600480548216868416179055600580548216858416179055600680549091169183169190911790556040517fc9d3947d22fa124aaec4c7e8c919f79016e2d7b48eee10568375d98b86460d1b90600090a1505050505050565b60006200040e6040518061016001604052808f81526020018e81526020018d81526020018c81526020018b81526020018a6001600160a01b03168152602001896001600160a01b03168152602001886001600160a01b0316815260200187815260200186815260200185858080601f016020809104026020016040519081016040528093929190818152602001838380828437600092019190915250505091525062000648565b9d9c50505050505050505050505050565b6003546001600160a01b031681565b6200043862000644565b6001600160a01b03166200044b620004ef565b6001600160a01b03161462000496576040805162461bcd60e51b81526020600482018190526024820152600080516020620022b3833981519152604482015290519081900360640190fd5b600080546040516001600160a01b03909116907f8be0079c531659141344cd1fd0a4f28419497f9722a3daafe3b4186f6b6457e0908390a3600080546001600160a01b0319169055565b6002546001600160a01b031681565b6000546001600160a01b031690565b6006546001600160a01b031681565b6004546001600160a01b031681565b6005546001600160a01b031681565b6200053562000644565b6001600160a01b031662000548620004ef565b6001600160a01b03161462000593576040805162461bcd60e51b81526020600482018190526024820152600080516020620022b3833981519152604482015290519081900360640190fd5b6001600160a01b038116620005da5760405162461bcd60e51b81526004018080602001828103825260268152602001806200228d6026913960400191505060405180910390fd5b600080546040516001600160a01b03808516939216917f8be0079c531659141344cd1fd0a4f28419497f9722a3daafe3b4186f6b6457e091a3600080546001600160a01b0319166001600160a01b0392909216919091179055565b6001546001600160a01b031681565b3390565b60006200065462000bc8565b604051620006629062000c04565b604051809103906000f0801580156200067f573d6000803e3d6000fd5b506001600160a01b03908116808352600254604051921691620006a29062000c12565b6001600160a01b03928316815291166020820152606060408083018290526000918301829052519182900360a0019190f080158015620006e6573d6000803e3d6000fd5b506001600160a01b0390811660c08301819052600154835160e08701516040805163953b221960e01b81529286166004840152602483019490945284166044820152915192169163953b22199160648082019260a0929091908290030181600087803b1580156200075657600080fd5b505af11580156200076b573d6000803e3d6000fd5b505050506040513d60a08110156200078257600080fd5b5080516020808301516040808501516060808701516080978801516001600160a01b0390811660a08b015290811697890197909752908616908701529084168582015291831690840152825160c0860151825163f2fde38b60e01b81529084166004820152915192169163f2fde38b9160248082019260009290919082900301818387803b1580156200081457600080fd5b505af115801562000829573d6000803e3d6000fd5b505050508060c001516001600160a01b0316637b6abd9c8460000151604051806080016040528087602001518152602001876040015181526020018760600151815260200187608001518152508660a001518760c001518861014001516040518060c0016040528089602001516001600160a01b03166001600160a01b0316815260200189604001516001600160a01b03166001600160a01b031681526020018960a001516001600160a01b03166001600160a01b0316815260200189608001516001600160a01b03166001600160a01b03168152602001600360009054906101000a90046001600160a01b03166001600160a01b03166001600160a01b03168152602001600460009054906101000a90046001600160a01b03166001600160a01b03166001600160a01b03168152506040518060400160405280600560009054906101000a90046001600160a01b03166001600160a01b03166001600160a01b03168152602001600660009054906101000a90046001600160a01b03166001600160a01b03166001600160a01b031681525060405180604001604052808d610100015181526020018d61012001518152506040518963ffffffff1660e01b81526004018089815260200188600460200280838360005b8381101562000a1a57818101518382015260200162000a00565b5050506001600160a01b03808c169490920193845250881660208301525060408101906060018560c080838360005b8381101562000a6357818101518382015260200162000a49565b5050505090500184600260200280838360005b8381101562000a9057818101518382015260200162000a76565b5050505090500183600260200280838360005b8381101562000abd57818101518382015260200162000aa3565b50505050905001828103825286818151815260200191508051906020019080838360005b8381101562000afb57818101518382015260200162000ae1565b50505050905090810190601f16801562000b295780820380516001836020036101000a031916815260200191505b509950505050505050505050600060405180830381600087803b15801562000b5057600080fd5b505af115801562000b65573d6000803e3d6000fd5b50505060c082015160608301518351604080516001600160a01b039384168152918316602083015280519290931693507fd508a734b33000eb18068aa34f20f8014fa578d682a9d355017efcd93e1b4f1092908290030190a260c0015192915050565b6040805160e081018252600080825260208201819052918101829052606081018290526080810182905260a0810182905260c081019190915290565b61090c8062000c2183390190565b610d60806200152d8339019056fe608060405234801561001057600080fd5b5060006100246001600160e01b0361007316565b600080546001600160a01b0319166001600160a01b0383169081178255604051929350917f8be0079c531659141344cd1fd0a4f28419497f9722a3daafe3b4186f6b6457e0908290a350610077565b3390565b610886806100866000396000f3fe60806040526004361061006b5760003560e01c8063204e1c7a14610070578063715018a6146100bf5780637eff275e146100d65780638da5cb5b146101115780639623609d1461012657806399a88ec4146101e5578063f2fde38b14610220578063f3b7dead14610253575b600080fd5b34801561007c57600080fd5b506100a36004803603602081101561009357600080fd5b50356001600160a01b0316610286565b604080516001600160a01b039092168252519081900360200190f35b3480156100cb57600080fd5b506100d4610318565b005b3480156100e257600080fd5b506100d4600480360360408110156100f957600080fd5b506001600160a01b03813581169160200135166103c4565b34801561011d57600080fd5b506100a361049a565b6100d46004803603606081101561013c57600080fd5b6001600160a01b03823581169260208101359091169181019060608101604082013564010000000081111561017057600080fd5b82018360208201111561018257600080fd5b803590602001918460018302840111640100000000831117156101a457600080fd5b91908080601f0160208091040260200160405190810160405280939291908181526020018383808284376000920191909152509295506104a9945050505050565b3480156101f157600080fd5b506100d46004803603604081101561020857600080fd5b506001600160a01b03813581169160200135166105eb565b34801561022c57600080fd5b506100d46004803603602081101561024357600080fd5b50356001600160a01b03166106a5565b34801561025f57600080fd5b506100a36004803603602081101561027657600080fd5b50356001600160a01b03166107a7565b6000806060836001600160a01b03166040518080635c60da1b60e01b8152506004019050600060405180830381855afa9150503d80600081146102e5576040519150601f19603f3d011682016040523d82523d6000602084013e6102ea565b606091505b5091509150816102f957600080fd5b80806020019051602081101561030e57600080fd5b5051949350505050565b610320610806565b6001600160a01b031661033161049a565b6001600160a01b03161461037a576040805162461bcd60e51b81526020600482018190526024820152600080516020610831833981519152604482015290519081900360640190fd5b600080546040516001600160a01b03909116907f8be0079c531659141344cd1fd0a4f28419497f9722a3daafe3b4186f6b6457e0908390a3600080546001600160a01b0319169055565b6103cc610806565b6001600160a01b03166103dd61049a565b6001600160a01b031614610426576040805162461bcd60e51b81526020600482018190526024820152600080516020610831833981519152604482015290519081900360640190fd5b816001600160a01b0316638f283970826040518263ffffffff1660e01b815260040180826001600160a01b03166001600160a01b03168152602001915050600060405180830381600087803b15801561047e57600080fd5b505af1158015610492573d6000803e3d6000fd5b505050505050565b6000546001600160a01b031690565b6104b1610806565b6001600160a01b03166104c261049a565b6001600160a01b03161461050b576040805162461bcd60e51b81526020600482018190526024820152600080516020610831833981519152604482015290519081900360640190fd5b826001600160a01b0316634f1ef2863484846040518463ffffffff1660e01b815260040180836001600160a01b03166001600160a01b0316815260200180602001828103825283818151815260200191508051906020019080838360005b83811015610581578181015183820152602001610569565b50505050905090810190601f1680156105ae5780820380516001836020036101000a031916815260200191505b5093505050506000604051808303818588803b1580156105cd57600080fd5b505af11580156105e1573d6000803e3d6000fd5b5050505050505050565b6105f3610806565b6001600160a01b031661060461049a565b6001600160a01b03161461064d576040805162461bcd60e51b81526020600482018190526024820152600080516020610831833981519152604482015290519081900360640190fd5b816001600160a01b0316633659cfe6826040518263ffffffff1660e01b815260040180826001600160a01b03166001600160a01b03168152602001915050600060405180830381600087803b15801561047e57600080fd5b6106ad610806565b6001600160a01b03166106be61049a565b6001600160a01b031614610707576040805162461bcd60e51b81526020600482018190526024820152600080516020610831833981519152604482015290519081900360640190fd5b6001600160a01b03811661074c5760405162461bcd60e51b815260040180806020018281038252602681526020018061080b6026913960400191505060405180910390fd5b600080546040516001600160a01b03808516939216917f8be0079c531659141344cd1fd0a4f28419497f9722a3daafe3b4186f6b6457e091a3600080546001600160a01b0319166001600160a01b0392909216919091179055565b6000806060836001600160a01b031660405180806303e1469160e61b8152506004019050600060405180830381855afa9150503d80600081146102e5576040519150601f19603f3d011682016040523d82523d6000602084013e6102ea565b339056fe4f776e61626c653a206e6577206f776e657220697320746865207a65726f20616464726573734f776e61626c653a2063616c6c6572206973206e6f7420746865206f776e6572a264697066735822122005019646333ea388b0c67bda202f0b0f9e694623274a3b0b0cd706bdc2821b5464736f6c634300060b0033608060405260405162000d6038038062000d60833981810160405260608110156200002957600080fd5b815160208301516040808501805191519395929483019291846401000000008211156200005557600080fd5b9083019060208201858111156200006b57600080fd5b82516401000000008111828201881017156200008657600080fd5b82525081516020918201929091019080838360005b83811015620000b55781810151838201526020016200009b565b50505050905090810190601f168015620000e35780820380516001836020036101000a031916815260200191505b5060408181527f656970313936372e70726f78792e696d706c656d656e746174696f6e0000000082525190819003601c01902086935084925060008051602062000cbd8339815191526000199091011490506200013c57fe5b62000150826001600160e01b03620001e016565b80511562000171576200016f82826200024660201b620003841760201c565b505b5050604080517f656970313936372e70726f78792e61646d696e000000000000000000000000008152905190819003601301902060008051602062000c9d83398151915260001990910114620001c357fe5b620001d7826001600160e01b036200027e16565b50505062000461565b620001f6816200029160201b620003b01760201c565b620002335760405162461bcd60e51b815260040180806020018281038252603681526020018062000d046036913960400191505060405180910390fd5b60008051602062000cbd83398151915255565b606062000277838360405180606001604052806027815260200162000cdd602791396001600160e01b036200029716565b9392505050565b60008051602062000c9d83398151915255565b3b151590565b6060620002ad846001600160e01b036200029116565b620002ea5760405162461bcd60e51b815260040180806020018281038252602681526020018062000d3a6026913960400191505060405180910390fd5b60006060856001600160a01b0316856040518082805190602001908083835b602083106200032a5780518252601f19909201916020918201910162000309565b6001836020036101000a038019825116818451168082178552505050505050905001915050600060405180830381855af49150503d80600081146200038c576040519150601f19603f3d011682016040523d82523d6000602084013e62000391565b606091505b509092509050620003ad8282866001600160e01b03620003b716565b9695505050505050565b60608315620003c857508162000277565b825115620003d95782518084602001fd5b8160405162461bcd60e51b81526004018080602001828103825283818151815260200191508051906020019080838360005b83811015620004255781810151838201526020016200040b565b50505050905090810190601f168015620004535780820380516001836020036101000a031916815260200191505b509250505060405180910390fd5b61082c80620004716000396000f3fe60806040526004361061004e5760003560e01c80633659cfe6146100655780634f1ef286146100985780635c60da1b146101185780638f28397014610149578063f851a4401461017c5761005d565b3661005d5761005b610191565b005b61005b610191565b34801561007157600080fd5b5061005b6004803603602081101561008857600080fd5b50356001600160a01b03166101ab565b61005b600480360360408110156100ae57600080fd5b6001600160a01b0382351691908101906040810160208201356401000000008111156100d957600080fd5b8201836020820111156100eb57600080fd5b8035906020019184600183028401116401000000008311171561010d57600080fd5b5090925090506101e5565b34801561012457600080fd5b5061012d610262565b604080516001600160a01b039092168252519081900360200190f35b34801561015557600080fd5b5061005b6004803603602081101561016c57600080fd5b50356001600160a01b031661029f565b34801561018857600080fd5b5061012d610359565b6101996103b6565b6101a96101a4610416565b61043b565b565b6101b361045f565b6001600160a01b0316336001600160a01b031614156101da576101d581610484565b6101e2565b6101e2610191565b50565b6101ed61045f565b6001600160a01b0316336001600160a01b031614156102555761020f83610484565b61024f8383838080601f01602080910402602001604051908101604052809392919081815260200183838082843760009201919091525061038492505050565b5061025d565b61025d610191565b505050565b600061026c61045f565b6001600160a01b0316336001600160a01b031614156102945761028d610416565b905061029c565b61029c610191565b90565b6102a761045f565b6001600160a01b0316336001600160a01b031614156101da576001600160a01b0381166103055760405162461bcd60e51b815260040180806020018281038252603a8152602001806106f8603a913960400191505060405180910390fd5b7f7e644d79422f17c01e4894b5f4f588d331ebfa28653d42ae832dc59e38c9798f61032e61045f565b604080516001600160a01b03928316815291841660208301528051918290030190a16101d5816104c4565b600061036361045f565b6001600160a01b0316336001600160a01b031614156102945761028d61045f565b60606103a98383604051806060016040528060278152602001610732602791396104e8565b9392505050565b3b151590565b6103be61045f565b6001600160a01b0316336001600160a01b0316141561040e5760405162461bcd60e51b81526004018080602001828103825260428152602001806107b56042913960600191505060405180910390fd5b6101a96101a9565b7f360894a13ba1a3210667c828492db98dca3e2076cc3735a920a3ca505d382bbc5490565b3660008037600080366000845af43d6000803e80801561045a573d6000f35b3d6000fd5b7fb53127684a568b3173ae13b9f8a6016e243e63b6e8ee1178d6a717850b5d61035490565b61048d816105eb565b6040516001600160a01b038216907fbc7cd75a20ee27fd9adebab32041f755214dbc6bffa90cc0225b39da2e5c2d3b90600090a250565b7fb53127684a568b3173ae13b9f8a6016e243e63b6e8ee1178d6a717850b5d610355565b60606104f3846103b0565b61052e5760405162461bcd60e51b815260040180806020018281038252602681526020018061078f6026913960400191505060405180910390fd5b60006060856001600160a01b0316856040518082805190602001908083835b6020831061056c5780518252601f19909201916020918201910161054d565b6001836020036101000a038019825116818451168082178552505050505050905001915050600060405180830381855af49150503d80600081146105cc576040519150601f19603f3d011682016040523d82523d6000602084013e6105d1565b606091505b50915091506105e1828286610653565b9695505050505050565b6105f4816103b0565b61062f5760405162461bcd60e51b81526004018080602001828103825260368152602001806107596036913960400191505060405180910390fd5b7f360894a13ba1a3210667c828492db98dca3e2076cc3735a920a3ca505d382bbc55565b606083156106625750816103a9565b8251156106725782518084602001fd5b8160405162461bcd60e51b81526004018080602001828103825283818151815260200191508051906020019080838360005b838110156106bc5781810151838201526020016106a4565b50505050905090810190601f1680156106e95780820380516001836020036101000a031916815260200191505b509250505060405180910390fdfe5472616e73706172656e745570677261646561626c6550726f78793a206e65772061646d696e20697320746865207a65726f2061646472657373416464726573733a206c6f772d6c6576656c2064656c65676174652063616c6c206661696c65645570677261646561626c6550726f78793a206e657720696d706c656d656e746174696f6e206973206e6f74206120636f6e7472616374416464726573733a2064656c65676174652063616c6c20746f206e6f6e2d636f6e74726163745472616e73706172656e745570677261646561626c6550726f78793a2061646d696e2063616e6e6f742066616c6c6261636b20746f2070726f787920746172676574a2646970667358221220175110956fa0a7ff1615f55e1422acff6edcec0099d7ea0bae101f4f6228c8bd64736f6c634300060b0033b53127684a568b3173ae13b9f8a6016e243e63b6e8ee1178d6a717850b5d6103360894a13ba1a3210667c828492db98dca3e2076cc3735a920a3ca505d382bbc416464726573733a206c6f772d6c6576656c2064656c65676174652063616c6c206661696c65645570677261646561626c6550726f78793a206e657720696d706c656d656e746174696f6e206973206e6f74206120636f6e7472616374416464726573733a2064656c65676174652063616c6c20746f206e6f6e2d636f6e74726163744f776e61626c653a206e6577206f776e657220697320746865207a65726f20616464726573734f776e61626c653a2063616c6c6572206973206e6f7420746865206f776e6572a2646970667358221220f6b3e9aeccc922d33ca3bc41cf313aad1cf3f49ab226f49a8e36484dd4b64f8f64736f6c634300060b0033",
  "devdoc": {
    "kind": "dev",
    "methods": {
      "owner()": {
        "details": "Returns the address of the current owner."
      },
      "renounceOwnership()": {
        "details": "Leaves the contract without owner. It will not be possible to call `onlyOwner` functions anymore. Can only be called by the current owner. NOTE: Renouncing ownership will leave the contract without an owner, thereby removing any functionality that is only available to the owner."
      },
      "transferOwnership(address)": {
        "details": "Transfers ownership of the contract to a new account (`newOwner`). Can only be called by the current owner."
      }
    },
    "version": 1
  },
  "userdoc": {
    "kind": "user",
    "methods": {},
    "version": 1
  },
  "storageLayout": {
    "storage": [
      {
        "astId": 493,
        "contract": "contracts/rollup/RollupCreator.sol:RollupCreator",
        "label": "_owner",
        "offset": 0,
        "slot": "0",
        "type": "t_address"
      },
      {
        "astId": 24576,
        "contract": "contracts/rollup/RollupCreator.sol:RollupCreator",
        "label": "bridgeCreator",
        "offset": 0,
        "slot": "1",
        "type": "t_contract(BridgeCreator)21975"
      },
      {
        "astId": 24578,
        "contract": "contracts/rollup/RollupCreator.sol:RollupCreator",
        "label": "rollupTemplate",
        "offset": 0,
        "slot": "2",
        "type": "t_contract(ICloneable)18827"
      },
      {
        "astId": 24580,
        "contract": "contracts/rollup/RollupCreator.sol:RollupCreator",
        "label": "challengeFactory",
        "offset": 0,
        "slot": "3",
        "type": "t_address"
      },
      {
        "astId": 24582,
        "contract": "contracts/rollup/RollupCreator.sol:RollupCreator",
        "label": "nodeFactory",
        "offset": 0,
        "slot": "4",
        "type": "t_address"
      },
      {
        "astId": 24584,
        "contract": "contracts/rollup/RollupCreator.sol:RollupCreator",
        "label": "rollupAdminFacet",
        "offset": 0,
        "slot": "5",
        "type": "t_address"
      },
      {
        "astId": 24586,
        "contract": "contracts/rollup/RollupCreator.sol:RollupCreator",
        "label": "rollupUserFacet",
        "offset": 0,
        "slot": "6",
        "type": "t_address"
      }
    ],
    "types": {
      "t_address": {
        "encoding": "inplace",
        "label": "address",
        "numberOfBytes": "20"
      },
      "t_contract(BridgeCreator)21975": {
        "encoding": "inplace",
        "label": "contract BridgeCreator",
        "numberOfBytes": "20"
      },
      "t_contract(ICloneable)18827": {
        "encoding": "inplace",
        "label": "contract ICloneable",
        "numberOfBytes": "20"
      }
    }
  }
}