{
  "address": "0xb13C024a3ddc7c0D903935c12E8F9ebfb53F7Fc7",
  "abi": [
    {
      "anonymous": false,
      "inputs": [
        {
          "indexed": true,
          "internalType": "uint256",
          "name": "nodeNum",
          "type": "uint256"
        },
        {
          "indexed": false,
          "internalType": "bytes32",
          "name": "afterSendAcc",
          "type": "bytes32"
        },
        {
          "indexed": false,
          "internalType": "uint256",
          "name": "afterSendCount",
          "type": "uint256"
        },
        {
          "indexed": false,
          "internalType": "bytes32",
          "name": "afterLogAcc",
          "type": "bytes32"
        },
        {
          "indexed": false,
          "internalType": "uint256",
          "name": "afterLogCount",
          "type": "uint256"
        }
      ],
      "name": "NodeConfirmed",
      "type": "event"
    },
    {
      "anonymous": false,
      "inputs": [
        {
          "indexed": true,
          "internalType": "uint256",
          "name": "nodeNum",
          "type": "uint256"
        },
        {
          "indexed": true,
          "internalType": "bytes32",
          "name": "parentNodeHash",
          "type": "bytes32"
        },
        {
          "indexed": false,
          "internalType": "bytes32",
          "name": "nodeHash",
          "type": "bytes32"
        },
        {
          "indexed": false,
          "internalType": "bytes32",
          "name": "executionHash",
          "type": "bytes32"
        },
        {
          "indexed": false,
          "internalType": "uint256",
          "name": "inboxMaxCount",
          "type": "uint256"
        },
        {
          "indexed": false,
          "internalType": "uint256",
          "name": "afterInboxBatchEndCount",
          "type": "uint256"
        },
        {
          "indexed": false,
          "internalType": "bytes32",
          "name": "afterInboxBatchAcc",
          "type": "bytes32"
        },
        {
          "indexed": false,
          "internalType": "bytes32[3][2]",
          "name": "assertionBytes32Fields",
          "type": "bytes32[3][2]"
        },
        {
          "indexed": false,
          "internalType": "uint256[4][2]",
          "name": "assertionIntFields",
          "type": "uint256[4][2]"
        }
      ],
      "name": "NodeCreated",
      "type": "event"
    },
    {
      "anonymous": false,
      "inputs": [
        {
          "indexed": true,
          "internalType": "uint256",
          "name": "nodeNum",
          "type": "uint256"
        }
      ],
      "name": "NodeRejected",
      "type": "event"
    },
    {
      "anonymous": false,
      "inputs": [
        {
          "indexed": true,
          "internalType": "uint256",
          "name": "id",
          "type": "uint256"
        }
      ],
      "name": "OwnerFunctionCalled",
      "type": "event"
    },
    {
      "anonymous": false,
      "inputs": [
        {
          "indexed": false,
          "internalType": "address",
          "name": "account",
          "type": "address"
        }
      ],
      "name": "Paused",
      "type": "event"
    },
    {
      "anonymous": false,
      "inputs": [
        {
          "indexed": true,
          "internalType": "address",
          "name": "challengeContract",
          "type": "address"
        },
        {
          "indexed": false,
          "internalType": "address",
          "name": "asserter",
          "type": "address"
        },
        {
          "indexed": false,
          "internalType": "address",
          "name": "challenger",
          "type": "address"
        },
        {
          "indexed": false,
          "internalType": "uint256",
          "name": "challengedNode",
          "type": "uint256"
        }
      ],
      "name": "RollupChallengeStarted",
      "type": "event"
    },
    {
      "anonymous": false,
      "inputs": [
        {
          "indexed": false,
          "internalType": "bytes32",
          "name": "machineHash",
          "type": "bytes32"
        }
      ],
      "name": "RollupCreated",
      "type": "event"
    },
    {
      "anonymous": false,
      "inputs": [
        {
          "indexed": false,
          "internalType": "address",
          "name": "account",
          "type": "address"
        }
      ],
      "name": "Unpaused",
      "type": "event"
    },
    {
      "anonymous": false,
      "inputs": [
        {
          "indexed": true,
          "internalType": "address",
          "name": "user",
          "type": "address"
        },
        {
          "indexed": false,
          "internalType": "uint256",
          "name": "initialBalance",
          "type": "uint256"
        },
        {
          "indexed": false,
          "internalType": "uint256",
          "name": "finalBalance",
          "type": "uint256"
        }
      ],
      "name": "UserStakeUpdated",
      "type": "event"
    },
    {
      "anonymous": false,
      "inputs": [
        {
          "indexed": true,
          "internalType": "address",
          "name": "user",
          "type": "address"
        },
        {
          "indexed": false,
          "internalType": "uint256",
          "name": "initialBalance",
          "type": "uint256"
        },
        {
          "indexed": false,
          "internalType": "uint256",
          "name": "finalBalance",
          "type": "uint256"
        }
      ],
      "name": "UserWithdrawableFundsUpdated",
      "type": "event"
    },
    {
      "inputs": [],
      "name": "STORAGE_GAP_1",
      "outputs": [
        {
          "internalType": "uint256",
          "name": "",
          "type": "uint256"
        }
      ],
      "stateMutability": "view",
      "type": "function"
    },
    {
      "inputs": [],
      "name": "STORAGE_GAP_2",
      "outputs": [
        {
          "internalType": "uint256",
          "name": "",
          "type": "uint256"
        }
      ],
      "stateMutability": "view",
      "type": "function"
    },
    {
      "inputs": [
        {
          "internalType": "address",
          "name": "",
          "type": "address"
        }
      ],
      "name": "_stakerMap",
      "outputs": [
        {
          "internalType": "uint256",
          "name": "index",
          "type": "uint256"
        },
        {
          "internalType": "uint256",
          "name": "latestStakedNode",
          "type": "uint256"
        },
        {
          "internalType": "uint256",
          "name": "amountStaked",
          "type": "uint256"
        },
        {
          "internalType": "address",
          "name": "currentChallenge",
          "type": "address"
        },
        {
          "internalType": "bool",
          "name": "isStaked",
          "type": "bool"
        }
      ],
      "stateMutability": "view",
      "type": "function"
    },
    {
      "inputs": [
        {
          "internalType": "address",
          "name": "staker",
          "type": "address"
        }
      ],
      "name": "amountStaked",
      "outputs": [
        {
          "internalType": "uint256",
          "name": "",
          "type": "uint256"
        }
      ],
      "stateMutability": "view",
      "type": "function"
    },
    {
      "inputs": [],
      "name": "arbGasSpeedLimitPerBlock",
      "outputs": [
        {
          "internalType": "uint256",
          "name": "",
          "type": "uint256"
        }
      ],
      "stateMutability": "view",
      "type": "function"
    },
    {
      "inputs": [],
      "name": "avmGasSpeedLimitPerBlock",
      "outputs": [
        {
          "internalType": "uint256",
          "name": "",
          "type": "uint256"
        }
      ],
      "stateMutability": "view",
      "type": "function"
    },
    {
      "inputs": [],
      "name": "baseStake",
      "outputs": [
        {
          "internalType": "uint256",
          "name": "",
          "type": "uint256"
        }
      ],
      "stateMutability": "view",
      "type": "function"
    },
    {
      "inputs": [],
      "name": "challengeExecutionBisectionDegree",
      "outputs": [
        {
          "internalType": "uint256",
          "name": "",
          "type": "uint256"
        }
      ],
      "stateMutability": "view",
      "type": "function"
    },
    {
      "inputs": [],
      "name": "challengeFactory",
      "outputs": [
        {
          "internalType": "contract IChallengeFactory",
          "name": "",
          "type": "address"
        }
      ],
      "stateMutability": "view",
      "type": "function"
    },
    {
      "inputs": [],
      "name": "confirmPeriodBlocks",
      "outputs": [
        {
          "internalType": "uint256",
          "name": "",
          "type": "uint256"
        }
      ],
      "stateMutability": "view",
      "type": "function"
    },
    {
      "inputs": [
        {
          "internalType": "address",
          "name": "staker",
          "type": "address"
        }
      ],
      "name": "currentChallenge",
      "outputs": [
        {
          "internalType": "address",
          "name": "",
          "type": "address"
        }
      ],
      "stateMutability": "view",
      "type": "function"
    },
    {
      "inputs": [],
      "name": "delayedBridge",
      "outputs": [
        {
          "internalType": "contract IBridge",
          "name": "",
          "type": "address"
        }
      ],
      "stateMutability": "view",
      "type": "function"
    },
    {
      "inputs": [],
      "name": "extraChallengeTimeBlocks",
      "outputs": [
        {
          "internalType": "uint256",
          "name": "",
          "type": "uint256"
        }
      ],
      "stateMutability": "view",
      "type": "function"
    },
    {
      "inputs": [],
      "name": "firstUnresolvedNode",
      "outputs": [
        {
          "internalType": "uint256",
          "name": "",
          "type": "uint256"
        }
      ],
      "stateMutability": "view",
      "type": "function"
    },
    {
      "inputs": [
        {
          "internalType": "uint256",
          "name": "nodeNum",
          "type": "uint256"
        },
        {
          "internalType": "bytes32",
          "name": "beforeSendAcc",
          "type": "bytes32"
        },
        {
          "internalType": "bytes",
          "name": "sendsData",
          "type": "bytes"
        },
        {
          "internalType": "uint256[]",
          "name": "sendLengths",
          "type": "uint256[]"
        },
        {
          "internalType": "uint256",
          "name": "afterSendCount",
          "type": "uint256"
        },
        {
          "internalType": "bytes32",
          "name": "afterLogAcc",
          "type": "bytes32"
        },
        {
          "internalType": "uint256",
          "name": "afterLogCount",
          "type": "uint256"
        }
      ],
      "name": "forceConfirmNode",
      "outputs": [],
      "stateMutability": "nonpayable",
      "type": "function"
    },
    {
      "inputs": [
        {
          "internalType": "bytes32",
          "name": "expectedNodeHash",
          "type": "bytes32"
        },
        {
          "internalType": "bytes32[3][2]",
          "name": "assertionBytes32Fields",
          "type": "bytes32[3][2]"
        },
        {
          "internalType": "uint256[4][2]",
          "name": "assertionIntFields",
          "type": "uint256[4][2]"
        },
        {
          "internalType": "bytes",
          "name": "sequencerBatchProof",
          "type": "bytes"
        },
        {
          "internalType": "uint256",
          "name": "beforeProposedBlock",
          "type": "uint256"
        },
        {
          "internalType": "uint256",
          "name": "beforeInboxMaxCount",
          "type": "uint256"
        },
        {
          "internalType": "uint256",
          "name": "prevNode",
          "type": "uint256"
        }
      ],
      "name": "forceCreateNode",
      "outputs": [],
      "stateMutability": "nonpayable",
      "type": "function"
    },
    {
      "inputs": [
        {
          "internalType": "address[]",
          "name": "staker",
          "type": "address[]"
        }
      ],
      "name": "forceRefundStaker",
      "outputs": [],
      "stateMutability": "nonpayable",
      "type": "function"
    },
    {
      "inputs": [
        {
          "internalType": "address[]",
          "name": "stakerA",
          "type": "address[]"
        },
        {
          "internalType": "address[]",
          "name": "stakerB",
          "type": "address[]"
        }
      ],
      "name": "forceResolveChallenge",
      "outputs": [],
      "stateMutability": "nonpayable",
      "type": "function"
    },
    {
      "inputs": [
        {
          "internalType": "uint256",
          "name": "nodeNum",
          "type": "uint256"
        }
      ],
      "name": "getNode",
      "outputs": [
        {
          "internalType": "contract INode",
          "name": "",
          "type": "address"
        }
      ],
      "stateMutability": "view",
      "type": "function"
    },
    {
      "inputs": [
        {
          "internalType": "uint256",
          "name": "index",
          "type": "uint256"
        }
      ],
      "name": "getNodeHash",
      "outputs": [
        {
          "internalType": "bytes32",
          "name": "",
          "type": "bytes32"
        }
      ],
      "stateMutability": "view",
      "type": "function"
    },
    {
      "inputs": [
        {
          "internalType": "uint256",
          "name": "stakerNum",
          "type": "uint256"
        }
      ],
      "name": "getStakerAddress",
      "outputs": [
        {
          "internalType": "address",
          "name": "",
          "type": "address"
        }
      ],
      "stateMutability": "view",
      "type": "function"
    },
    {
      "inputs": [],
      "name": "isMaster",
      "outputs": [
        {
          "internalType": "bool",
          "name": "",
          "type": "bool"
        }
      ],
      "stateMutability": "view",
      "type": "function"
    },
    {
      "inputs": [
        {
          "internalType": "address",
          "name": "staker",
          "type": "address"
        }
      ],
      "name": "isStaked",
      "outputs": [
        {
          "internalType": "bool",
          "name": "",
          "type": "bool"
        }
      ],
      "stateMutability": "view",
      "type": "function"
    },
    {
      "inputs": [
        {
          "internalType": "address",
          "name": "staker",
          "type": "address"
        }
      ],
      "name": "isZombie",
      "outputs": [
        {
          "internalType": "bool",
          "name": "",
          "type": "bool"
        }
      ],
      "stateMutability": "view",
      "type": "function"
    },
    {
      "inputs": [],
      "name": "lastStakeBlock",
      "outputs": [
        {
          "internalType": "uint256",
          "name": "",
          "type": "uint256"
        }
      ],
      "stateMutability": "view",
      "type": "function"
    },
    {
      "inputs": [],
      "name": "latestConfirmed",
      "outputs": [
        {
          "internalType": "uint256",
          "name": "",
          "type": "uint256"
        }
      ],
      "stateMutability": "view",
      "type": "function"
    },
    {
      "inputs": [],
      "name": "latestNodeCreated",
      "outputs": [
        {
          "internalType": "uint256",
          "name": "",
          "type": "uint256"
        }
      ],
      "stateMutability": "view",
      "type": "function"
    },
    {
      "inputs": [
        {
          "internalType": "address",
          "name": "staker",
          "type": "address"
        }
      ],
      "name": "latestStakedNode",
      "outputs": [
        {
          "internalType": "uint256",
          "name": "",
          "type": "uint256"
        }
      ],
      "stateMutability": "view",
      "type": "function"
    },
    {
      "inputs": [],
      "name": "minimumAssertionPeriod",
      "outputs": [
        {
          "internalType": "uint256",
          "name": "",
          "type": "uint256"
        }
      ],
      "stateMutability": "view",
      "type": "function"
    },
    {
      "inputs": [],
      "name": "nodeFactory",
      "outputs": [
        {
          "internalType": "contract INodeFactory",
          "name": "",
          "type": "address"
        }
      ],
      "stateMutability": "view",
      "type": "function"
    },
    {
      "inputs": [],
      "name": "outbox",
      "outputs": [
        {
          "internalType": "contract IOutbox",
          "name": "",
          "type": "address"
        }
      ],
      "stateMutability": "view",
      "type": "function"
    },
    {
      "inputs": [],
      "name": "owner",
      "outputs": [
        {
          "internalType": "address",
          "name": "",
          "type": "address"
        }
      ],
      "stateMutability": "view",
      "type": "function"
    },
    {
      "inputs": [],
      "name": "pause",
      "outputs": [],
      "stateMutability": "nonpayable",
      "type": "function"
    },
    {
      "inputs": [],
      "name": "paused",
      "outputs": [
        {
          "internalType": "bool",
          "name": "",
          "type": "bool"
        }
      ],
      "stateMutability": "view",
      "type": "function"
    },
    {
      "inputs": [
        {
          "internalType": "address",
          "name": "_outbox",
          "type": "address"
        }
      ],
      "name": "removeOldOutbox",
      "outputs": [],
      "stateMutability": "nonpayable",
      "type": "function"
    },
    {
      "inputs": [],
      "name": "resume",
      "outputs": [],
      "stateMutability": "nonpayable",
      "type": "function"
    },
    {
      "inputs": [],
      "name": "rollupEventBridge",
      "outputs": [
        {
          "internalType": "contract RollupEventBridge",
          "name": "",
          "type": "address"
        }
      ],
      "stateMutability": "view",
      "type": "function"
    },
    {
      "inputs": [],
      "name": "sequencerBridge",
      "outputs": [
        {
          "internalType": "contract ISequencerInbox",
          "name": "",
          "type": "address"
        }
      ],
      "stateMutability": "view",
      "type": "function"
    },
    {
      "inputs": [
        {
          "internalType": "uint256",
          "name": "newAvmGasSpeedLimitPerBlock",
          "type": "uint256"
        }
      ],
      "name": "setAvmGasSpeedLimitPerBlock",
      "outputs": [],
      "stateMutability": "nonpayable",
      "type": "function"
    },
    {
      "inputs": [
        {
          "internalType": "uint256",
          "name": "newBaseStake",
          "type": "uint256"
        }
      ],
      "name": "setBaseStake",
      "outputs": [],
      "stateMutability": "nonpayable",
      "type": "function"
    },
    {
      "inputs": [
        {
          "internalType": "uint256",
          "name": "newChallengeExecutionBisectionDegree",
          "type": "uint256"
        }
      ],
      "name": "setChallengeExecutionBisectionDegree",
      "outputs": [],
      "stateMutability": "nonpayable",
      "type": "function"
    },
    {
      "inputs": [
        {
          "internalType": "uint256",
          "name": "newConfirmPeriod",
          "type": "uint256"
        }
      ],
      "name": "setConfirmPeriodBlocks",
      "outputs": [],
      "stateMutability": "nonpayable",
      "type": "function"
    },
    {
      "inputs": [
        {
          "internalType": "uint256",
          "name": "newExtraTimeBlocks",
          "type": "uint256"
        }
      ],
      "name": "setExtraChallengeTimeBlocks",
      "outputs": [],
      "stateMutability": "nonpayable",
      "type": "function"
    },
    {
      "inputs": [
        {
          "internalType": "address",
          "name": "newAdminFacet",
          "type": "address"
        },
        {
          "internalType": "address",
          "name": "newUserFacet",
          "type": "address"
        }
      ],
      "name": "setFacets",
      "outputs": [],
      "stateMutability": "nonpayable",
      "type": "function"
    },
    {
      "inputs": [
        {
          "internalType": "address",
          "name": "_inbox",
          "type": "address"
        },
        {
          "internalType": "bool",
          "name": "_enabled",
          "type": "bool"
        }
      ],
      "name": "setInbox",
      "outputs": [],
      "stateMutability": "nonpayable",
      "type": "function"
    },
    {
      "inputs": [
        {
          "internalType": "address",
          "name": "newSequencer",
          "type": "address"
        },
        {
          "internalType": "bool",
          "name": "isSequencer",
          "type": "bool"
        }
      ],
      "name": "setIsSequencer",
      "outputs": [],
      "stateMutability": "nonpayable",
      "type": "function"
    },
    {
      "inputs": [
        {
          "internalType": "uint256",
          "name": "newPeriod",
          "type": "uint256"
        }
      ],
      "name": "setMinimumAssertionPeriod",
      "outputs": [],
      "stateMutability": "nonpayable",
      "type": "function"
    },
    {
      "inputs": [
        {
          "internalType": "contract IOutbox",
          "name": "_outbox",
          "type": "address"
        }
      ],
      "name": "setOutbox",
      "outputs": [],
      "stateMutability": "nonpayable",
      "type": "function"
    },
    {
      "inputs": [
        {
          "internalType": "address",
          "name": "newOwner",
          "type": "address"
        }
      ],
      "name": "setOwner",
      "outputs": [],
      "stateMutability": "nonpayable",
      "type": "function"
    },
    {
      "inputs": [
        {
          "internalType": "uint256",
          "name": "newSequencerInboxMaxDelayBlocks",
          "type": "uint256"
        },
        {
          "internalType": "uint256",
          "name": "newSequencerInboxMaxDelaySeconds",
          "type": "uint256"
        }
      ],
      "name": "setSequencerInboxMaxDelay",
      "outputs": [],
      "stateMutability": "nonpayable",
      "type": "function"
    },
    {
      "inputs": [
        {
          "internalType": "address",
          "name": "newStakeToken",
          "type": "address"
        }
      ],
      "name": "setStakeToken",
      "outputs": [],
      "stateMutability": "nonpayable",
      "type": "function"
    },
    {
      "inputs": [
        {
          "internalType": "address[]",
          "name": "_validator",
          "type": "address[]"
        },
        {
          "internalType": "bool[]",
          "name": "_val",
          "type": "bool[]"
        }
      ],
      "name": "setValidator",
      "outputs": [],
      "stateMutability": "nonpayable",
      "type": "function"
    },
    {
      "inputs": [
        {
          "internalType": "address",
          "name": "whitelist",
          "type": "address"
        },
        {
          "internalType": "address[]",
          "name": "user",
          "type": "address[]"
        },
        {
          "internalType": "bool[]",
          "name": "val",
          "type": "bool[]"
        }
      ],
      "name": "setWhitelistEntries",
      "outputs": [],
      "stateMutability": "nonpayable",
      "type": "function"
    },
    {
      "inputs": [],
      "name": "stakeToken",
      "outputs": [
        {
          "internalType": "address",
          "name": "",
          "type": "address"
        }
      ],
      "stateMutability": "view",
      "type": "function"
    },
    {
      "inputs": [],
      "name": "stakerCount",
      "outputs": [
        {
          "internalType": "uint256",
          "name": "",
          "type": "uint256"
        }
      ],
      "stateMutability": "view",
      "type": "function"
    },
    {
      "inputs": [
        {
          "internalType": "address",
          "name": "whitelist",
          "type": "address"
        },
        {
          "internalType": "address",
          "name": "newWhitelist",
          "type": "address"
        },
        {
          "internalType": "address[]",
          "name": "targets",
          "type": "address[]"
        }
      ],
      "name": "updateWhitelistConsumers",
      "outputs": [],
      "stateMutability": "nonpayable",
      "type": "function"
    },
    {
      "inputs": [
        {
          "internalType": "address",
          "name": "beacon",
          "type": "address"
        },
        {
          "internalType": "address",
          "name": "newImplementation",
          "type": "address"
        }
      ],
      "name": "upgradeBeacon",
      "outputs": [],
      "stateMutability": "nonpayable",
      "type": "function"
    },
    {
      "inputs": [
        {
          "internalType": "address",
          "name": "owner",
          "type": "address"
        }
      ],
      "name": "withdrawableFunds",
      "outputs": [
        {
          "internalType": "uint256",
          "name": "",
          "type": "uint256"
        }
      ],
      "stateMutability": "view",
      "type": "function"
    },
    {
      "inputs": [
        {
          "internalType": "uint256",
          "name": "zombieNum",
          "type": "uint256"
        }
      ],
      "name": "zombieAddress",
      "outputs": [
        {
          "internalType": "address",
          "name": "",
          "type": "address"
        }
      ],
      "stateMutability": "view",
      "type": "function"
    },
    {
      "inputs": [],
      "name": "zombieCount",
      "outputs": [
        {
          "internalType": "uint256",
          "name": "",
          "type": "uint256"
        }
      ],
      "stateMutability": "view",
      "type": "function"
    },
    {
      "inputs": [
        {
          "internalType": "uint256",
          "name": "zombieNum",
          "type": "uint256"
        }
      ],
      "name": "zombieLatestStakedNode",
      "outputs": [
        {
          "internalType": "uint256",
          "name": "",
          "type": "uint256"
        }
      ],
      "stateMutability": "view",
      "type": "function"
    }
  ],
  "transactionHash": "0x6b790225787347e76534831c6826b975ebc210fa809f2164db5cdd1a98a0c710",
  "args": [],
  "numDeployments": 1,
  "solcInputHash": "5f404ffad369d1e6fd2cf1f0ce010b90",
  "bytecode": "0x608060405234801561001057600080fd5b506000805460ff19908116600117909155600b805490911690556137e2806100396000396000f3fe608060405234801561001057600080fd5b506004361061032f5760003560e01c80637c75c298116101b4578063d01e6602116100fa578063e8bd49221161009d578063e8bd492214610b97578063ef40a67014610bf3578063f33e1fac14610c19578063f38c937914610c36578063f51de41b14610d59578063f53f5afa14610d61578063f8d1f19414610e37578063ff204f3b14610e545761032f565b8063d01e660214610b1c578063d735e21d14610b39578063d7445bc814610b41578063d93fe9c414610b49578063dc72a33b14610b51578063dff6978714610b59578063e45b7ce614610b61578063e4781e1014610b8f5761032f565b806391c657e81161016257806391c657e8146107c8578063948d6588146107ee5780639e8a713f1461080b5780639ea28e6514610813578063a3ffb772146108a1578063a5cc82f8146109c4578063ce11e6ab146109e1578063cf47bb84146109e95761032f565b80637c75c298146106bc5780637f4320ce1461075d5780638456cb5914610765578063848bf9181461076d5780638640ce5f1461079b5780638da5cb5b146107a35780639161d535146107ab5761032f565b8063567ca41b1161027957806365f7f80d1161022757806365f7f80d14610597578063661d27221461059f57806369fd251c146106595780636aef131a1461067f5780636f791d291461069c57806376e7e23b146106a4578063771b2f97146106ac5780637ba9534a146106b45761032f565b8063567ca41b146104fa5780635c975abb146105205780635dbaf68b1461053c5780635e8ef106146105445780636177fd181461054c57806362a82d7d1461057257806363721d6b1461058f5761032f565b80632f30cabd116102e15780632f30cabd1461041d5780633e55c0c7146104435780633e96576e146104675780633ea410981461048d57806340b570f4146104aa57806345e38b64146104cd5780634f0f4aa9146104d557806351ed6a30146104f25761032f565b80630397d45814610334578063046f7da21461035c57806306ae58511461036457806313af4035146103815780631f956632146103a757806327035859146103d55780632e7acfa614610403575b600080fd5b61035a6004803603602081101561034a57600080fd5b50356001600160a01b0316610e7a565b005b61035a610eb2565b61035a6004803603602081101561037a57600080fd5b5035610ed6565b61035a6004803603602081101561039757600080fd5b50356001600160a01b0316610ef8565b61035a600480360360408110156103bd57600080fd5b506001600160a01b0381351690602001351515610f30565b61035a600480360360408110156103eb57600080fd5b506001600160a01b0381358116916020013516610fbc565b61040b61104c565b60408051918252519081900360200190f35b61040b6004803603602081101561043357600080fd5b50356001600160a01b0316611052565b61044b611071565b604080516001600160a01b039092168252519081900360200190f35b61040b6004803603602081101561047d57600080fd5b50356001600160a01b0316611080565b61035a600480360360208110156104a357600080fd5b503561109e565b61035a600480360360408110156104c057600080fd5b50803590602001356110c0565b61040b61114a565b61044b600480360360208110156104eb57600080fd5b5035611150565b61044b61116b565b61035a6004803603602081101561051057600080fd5b50356001600160a01b031661117a565b610528611252565b604080519115158252519081900360200190f35b61044b61125b565b61040b61126a565b6105286004803603602081101561056257600080fd5b50356001600160a01b0316611270565b61044b6004803603602081101561058857600080fd5b5035611298565b61040b6112c2565b61040b6112c8565b61035a600480360360608110156105b557600080fd5b6001600160a01b038235811692602081013590911691810190606081016040820135600160201b8111156105e857600080fd5b8201836020820111156105fa57600080fd5b803590602001918460208302840111600160201b8311171561061b57600080fd5b9190808060200260200160405190810160405280939291908181526020018383602002808284376000920191909152509295506112ce945050505050565b61044b6004803603602081101561066f57600080fd5b50356001600160a01b0316611394565b61035a6004803603602081101561069557600080fd5b50356113b5565b6105286113d7565b61040b6113e0565b61040b6113e6565b61040b6113ec565b61035a600480360360208110156106d257600080fd5b810190602081018135600160201b8111156106ec57600080fd5b8201836020820111156106fe57600080fd5b803590602001918460208302840111600160201b8311171561071f57600080fd5b9190808060200260200160405190810160405280939291908181526020018383602002808284376000920191909152509295506113f2945050505050565b61040b6114af565b61035a6114b5565b61035a6004803603604081101561078357600080fd5b506001600160a01b03813581169160200135166114d9565b61040b611567565b61044b61156d565b61035a600480360360208110156107c157600080fd5b503561157c565b610528600480360360208110156107de57600080fd5b50356001600160a01b031661159e565b61035a6004803603602081101561080457600080fd5b50356115f8565b61044b61161a565b61035a600480360361026081101561082a57600080fd5b813591602081019160e08201919081019061020081016101e0820135600160201b81111561085757600080fd5b82018360208201111561086957600080fd5b803590602001918460018302840111600160201b8311171561088a57600080fd5b919350915080359060208101359060400135611629565b61035a600480360360408110156108b757600080fd5b810190602081018135600160201b8111156108d157600080fd5b8201836020820111156108e357600080fd5b803590602001918460208302840111600160201b8311171561090457600080fd5b9190808060200260200160405190810160405280939291908181526020018383602002808284376000920191909152509295949360208101935035915050600160201b81111561095357600080fd5b82018360208201111561096557600080fd5b803590602001918460208302840111600160201b8311171561098657600080fd5b919080806020026020016040519081016040528093929190818152602001838360200280828437600092019190915250929550611889945050505050565b61035a600480360360208110156109da57600080fd5b5035611957565b61044b611979565b61035a600480360360608110156109ff57600080fd5b6001600160a01b038235169190810190604081016020820135600160201b811115610a2957600080fd5b820183602082011115610a3b57600080fd5b803590602001918460208302840111600160201b83111715610a5c57600080fd5b9190808060200260200160405190810160405280939291908181526020018383602002808284376000920191909152509295949360208101935035915050600160201b811115610aab57600080fd5b820183602082011115610abd57600080fd5b803590602001918460208302840111600160201b83111715610ade57600080fd5b919080806020026020016040519081016040528093929190818152602001838360200280828437600092019190915250929550611988945050505050565b61044b60048036036020811015610b3257600080fd5b5035611acf565b61040b611afe565b61040b611b04565b61044b611b0a565b61040b611b19565b61040b611b1f565b61035a60048036036040811015610b7757600080fd5b506001600160a01b0381351690602001351515611b25565b61040b611bb1565b610bbd60048036036020811015610bad57600080fd5b50356001600160a01b0316611bb7565b604080519586526020860194909452848401929092526001600160a01b0316606084015215156080830152519081900360a00190f35b61040b60048036036020811015610c0957600080fd5b50356001600160a01b0316611bf3565b61040b60048036036020811015610c2f57600080fd5b5035611c11565b61035a60048036036040811015610c4c57600080fd5b810190602081018135600160201b811115610c6657600080fd5b820183602082011115610c7857600080fd5b803590602001918460208302840111600160201b83111715610c9957600080fd5b9190808060200260200160405190810160405280939291908181526020018383602002808284376000920191909152509295949360208101935035915050600160201b811115610ce857600080fd5b820183602082011115610cfa57600080fd5b803590602001918460208302840111600160201b83111715610d1b57600080fd5b919080806020026020016040519081016040528093929190818152602001838360200280828437600092019190915250929550611c39945050505050565b61044b611e01565b61035a600480360360e0811015610d7757600080fd5b813591602081013591810190606081016040820135600160201b811115610d9d57600080fd5b820183602082011115610daf57600080fd5b803590602001918460018302840111600160201b83111715610dd057600080fd5b919390929091602081019035600160201b811115610ded57600080fd5b820183602082011115610dff57600080fd5b803590602001918460208302840111600160201b83111715610e2057600080fd5b919350915080359060208101359060400135611e10565b61040b60048036036020811015610e4d57600080fd5b5035611eb3565b61035a60048036036020811015610e6a57600080fd5b50356001600160a01b0316611ec5565b601780546001600160a01b0319166001600160a01b038316179055604051600d9060008051602061378d83398151915290600090a250565b610eba611f63565b60405160049060008051602061378d83398151915290600090a2565b600f819055604051600c9060008051602061378d83398151915290600090a250565b601680546001600160a01b0319166001600160a01b03831617905560405160079060008051602061378d83398151915290600090a250565b60115460408051630fcab31960e11b81526001600160a01b038581166004830152841515602483015291519190921691631f95663291604480830192600092919082900301818387803b158015610f8657600080fd5b505af1158015610f9a573d6000803e3d6000fd5b50506040516013925060008051602061378d8339815191529150600090a25050565b81601c600081548110610fcb57fe5b9060005260206000200160006101000a8154816001600160a01b0302191690836001600160a01b0316021790555080601c60018154811061100857fe5b6000918252602082200180546001600160a01b0319166001600160a01b03939093169290921790915560405160059160008051602061378d83398151915291a25050565b600c5481565b6001600160a01b0381166000908152600a60205260409020545b919050565b6011546001600160a01b031681565b6001600160a01b031660009081526008602052604090206001015490565b600c81905560405160099060008051602061378d83398151915290600090a250565b601154604080516326a407d560e11b8152600481018590526024810184905290516001600160a01b0390921691634d480faa9160448082019260009290919082900301818387803b15801561111457600080fd5b505af1158015611128573d6000803e3d6000fd5b5050604051600e925060008051602061378d8339815191529150600090a25050565b60185481565b6000908152600560205260409020546001600160a01b031690565b6017546001600160a01b031681565b6012546001600160a01b03828116911614156111ca576040805162461bcd60e51b815260206004820152600a602482015269086aaa4be9eaaa8849eb60b31b604482015290519081900360640190fd5b601054604080516319dc7ae560e31b81526001600160a01b038481166004830152600060248301819052925193169263cee3d7289260448084019391929182900301818387803b15801561121d57600080fd5b505af1158015611231573d6000803e3d6000fd5b50506040516001925060008051602061378d8339815191529150600090a250565b600b5460ff1690565b6014546001600160a01b031681565b600e5490565b6001600160a01b0316600090815260086020526040902060030154600160a01b900460ff1690565b6000600782815481106112a757fe5b6000918252602090912001546001600160a01b031692915050565b60095490565b60015490565b604080516337ca261760e01b81526001600160a01b038481166004830190815260248301938452845160448401528451918716936337ca261793879387939291606401906020808601910280838360005b8381101561133757818101518382015260200161131f565b505050509050019350505050600060405180830381600087803b15801561135d57600080fd5b505af1158015611371573d6000803e3d6000fd5b50506040516011925060008051602061378d8339815191529150600090a2505050565b6001600160a01b039081166000908152600860205260409020600301541690565b601b81905560405160109060008051602061378d83398151915290600090a250565b60005460ff1690565b600f5481565b600d5481565b60035490565b6113fa611252565b611442576040805162461bcd60e51b815260206004820152601460248201527314185d5cd8589b194e881b9bdd081c185d5cd95960621b604482015290519081900360640190fd5b60005b81518110156114915761146c82828151811061145d57fe5b60200260200101516000612003565b5061148982828151811061147c57fe5b60200260200101516120d9565b600101611445565b5060405160169060008051602061378d83398151915290600090a250565b601a5481565b6114bd61218d565b60405160039060008051602061378d83398151915290600090a2565b816001600160a01b0316633659cfe6826040518263ffffffff1660e01b815260040180826001600160a01b03166001600160a01b03168152602001915050600060405180830381600087803b15801561153157600080fd5b505af1158015611545573d6000803e3d6000fd5b50506040516014925060008051602061378d8339815191529150600090a25050565b60045490565b6016546001600160a01b031681565b600d819055604051600a9060008051602061378d83398151915290600090a250565b6000805b6009548110156115ef57600981815481106115b957fe5b60009182526020909120600290910201546001600160a01b03848116911614156115e757600191505061106c565b6001016115a2565b50600092915050565b601881905560405160089060008051602061378d83398151915290600090a250565b6013546001600160a01b031681565b611631611252565b611679576040805162461bcd60e51b815260206004820152601460248201527314185d5cd8589b194e881b9bdd081c185d5cd95960621b604482015290519081900360640190fd5b6116816112c8565b81146116cc576040805162461bcd60e51b815260206004820152601560248201527413d3931657d310551154d517d0d3d3919254935151605a1b604482015290519081900360640190fd5b6116d46136be565b60408051808201909152611807908960026000835b8282101561172a57604080516060818101909252908084028601906003908390839080828437600092019190915250505081526001909101906020016116e9565b50506040805180820190915291508a905060026000835b828210156117825760408051608081810190925290808402860190600490839083908082843760009201919091525050508152600190910190602001611741565b505050508686601160009054906101000a90046001600160a01b03166001600160a01b0316633dbcc8d16040518163ffffffff1660e01b815260040160206040518083038186803b1580156117d657600080fd5b505afa1580156117ea573d6000803e3d6000fd5b505050506040513d602081101561180057600080fd5b5051612210565b6040805160c081018252848152600c546020820152600e54918101919091526011546001600160a01b039081166060830152601354811660808301526015541660a08201529091506118639082908a908a908a908a908f61225e565b5060405160179060008051602061378d83398151915290600090a2505050505050505050565b80518251146118ce576040805162461bcd60e51b815260206004820152600c60248201526b0aea49e9c8ebe988a9c8ea8960a31b604482015290519081900360640190fd5b60005b8251811015611938578181815181106118e657fe5b6020026020010151601d60008584815181106118fe57fe5b6020908102919091018101516001600160a01b03168252810191909152604001600020805460ff19169115159190911790556001016118d1565b5060405160069060008051602061378d83398151915290600090a25050565b600e819055604051600b9060008051602061378d83398151915290600090a250565b6012546001600160a01b031681565b80518251146119ce576040805162461bcd60e51b815260206004820152600d60248201526c1253959053125117d253941555609a1b604482015290519081900360640190fd5b60408051633b99adf760e01b8152600481019182528351604482015283516001600160a01b03861692633b99adf792869286929182916024820191606401906020808801910280838360005b83811015611a32578181015183820152602001611a1a565b50505050905001838103825284818151815260200191508051906020019060200280838360005b83811015611a71578181015183820152602001611a59565b50505050905001945050505050600060405180830381600087803b158015611a9857600080fd5b505af1158015611aac573d6000803e3d6000fd5b50506040516012925060008051602061378d8339815191529150600090a2505050565b600060098281548110611ade57fe5b60009182526020909120600290910201546001600160a01b031692915050565b60025490565b600e5481565b6015546001600160a01b031681565b601b5481565b60075490565b6010546040805163722dbe7360e11b81526001600160a01b03858116600483015284151560248301529151919092169163e45b7ce691604480830192600092919082900301818387803b158015611b7b57600080fd5b505af1158015611b8f573d6000803e3d6000fd5b50506040516002925060008051602061378d8339815191529150600090a25050565b60195481565b6008602052600090815260409020805460018201546002830154600390930154919290916001600160a01b03811690600160a01b900460ff1685565b6001600160a01b031660009081526008602052604090206002015490565b600060098281548110611c2057fe5b9060005260206000209060020201600101549050919050565b611c41611252565b611c89576040805162461bcd60e51b815260206004820152601460248201527314185d5cd8589b194e881b9bdd081c185d5cd95960621b604482015290519081900360640190fd5b8051825114611cce576040805162461bcd60e51b815260206004820152600c60248201526b0aea49e9c8ebe988a9c8ea8960a31b604482015290519081900360640190fd5b60005b8251811015611de2576000611d0c848381518110611ceb57fe5b6020026020010151848481518110611cff57fe5b6020026020010151612918565b90506001600160a01b038116611d58576040805162461bcd60e51b815260206004820152600c60248201526b1393d517d25397d0d210531360a21b604482015290519081900360640190fd5b611d74848381518110611d6757fe5b60200260200101516129de565b611d83838381518110611d6757fe5b806001600160a01b03166214ebe76040518163ffffffff1660e01b8152600401600060405180830381600087803b158015611dbd57600080fd5b505af1158015611dd1573d6000803e3d6000fd5b505060019093019250611cd1915050565b5060405160159060008051602061378d83398151915290600090a25050565b6010546001600160a01b031681565b611e18611252565b611e60576040805162461bcd60e51b815260206004820152601460248201527314185d5cd8589b194e881b9bdd081c185d5cd95960621b604482015290519081900360640190fd5b601254601354611e8e918b918b918b918b918b918b918b918b918b916001600160a01b039182169116612a08565b60405160189060008051602061378d83398151915290600090a2505050505050505050565b60009081526006602052604090205490565b601280546001600160a01b0319166001600160a01b03838116918217909255601054604080516319dc7ae560e31b81526004810193909352600160248401525192169163cee3d7289160448082019260009290919082900301818387803b158015611f2f57600080fd5b505af1158015611f43573d6000803e3d6000fd5b50506040516000925060008051602061378d83398151915291508290a250565b611f6b611252565b611fb3576040805162461bcd60e51b815260206004820152601460248201527314185d5cd8589b194e881b9bdd081c185d5cd95960621b604482015290519081900360640190fd5b600b805460ff191690557f5db9ee0a495bf2e6ff9c91a7834c1ba4fdd244a5e8aa4e537bd38aeae4b073aa611fe6612cd9565b604080516001600160a01b039092168252519081900360200190a1565b6001600160a01b0382166000908152600860205260408120600281015480841115612068576040805162461bcd60e51b815260206004820152601060248201526f544f4f5f4c4954544c455f5354414b4560801b604482015290519081900360640190fd5b600061207a828663ffffffff612cdd16565b60028401869055905061208d8682612d3a565b604080518381526020810187905281516001600160a01b038916927febd093d389ab57f3566918d2c379a2b4d9539e8eb95efad9d5e465457833fde6928290030190a295945050505050565b6001600160a01b0381811660008181526008602090815260408083208151808301909252938152600180850154928201928352600980549182018155909352517f6e1540171b6c0c960b71a7020d9f60077f6af931a8bbf590da0223dacf75c7af600290930292830180546001600160a01b031916919095161790935591517f6e1540171b6c0c960b71a7020d9f60077f6af931a8bbf590da0223dacf75c7b09092019190915561218982612dc5565b5050565b612195611252565b156121da576040805162461bcd60e51b815260206004820152601060248201526f14185d5cd8589b194e881c185d5cd95960821b604482015290519081900360640190fd5b600b805460ff191660011790557f62e78cea01bee320cd4e420270b5ea74000d11b0c9f74754ebdbfc544b05a258611fe6612cd9565b6122186136be565b60408051808201909152865186518291612233918888612eeb565b8152602001612252886001602002015188600160200201514387612eeb565b90529695505050505050565b60006122686136e3565b61227189612f89565b60e0820152835161228190611150565b81606001906001600160a01b031690816001600160a01b03168152505083606001516001600160a01b0316633dbcc8d16040518163ffffffff1660e01b815260040160206040518083038186803b1580156122db57600080fd5b505afa1580156122ef573d6000803e3d6000fd5b505050506040513d602081101561230557600080fd5b5051815260608101516040805163380ed4c760e11b815290516001600160a01b039092169163701da98e91600480820192602092909190829003018186803b15801561235057600080fd5b505afa158015612364573d6000803e3d6000fd5b505050506040513d602081101561237a57600080fd5b5051895161238790612fab565b146123cb576040805162461bcd60e51b815260206004820152600f60248201526e0a0a48aacbea6a882a88abe9082a69608b1b604482015290519081900360640190fd5b805160208a015160400151111561241a576040805162461bcd60e51b815260206004820152600e60248201526d12539093d617d41054d517d1539160921b604482015290519081900360640190fd5b83606001516001600160a01b031663dc1b7b1f87878c60200151604001516040518463ffffffff1660e01b815260040180806020018381526020018281038252858582818152602001925080828437600081840152601f19601f820116905080830192505050945050505050604080518083038186803b15801561249d57600080fd5b505afa1580156124b1573d6000803e3d6000fd5b505050506040513d60408110156124c757600080fd5b5080516020909101516101208301526101008201526124e589613040565b81604001818152505061250a84604001518260e0015186602001518460600151613071565b8160c0018181525050600081606001516001600160a01b031663f0dd77ff6040518163ffffffff1660e01b815260040160206040518083038186803b15801561255257600080fd5b505afa158015612566573d6000803e3d6000fd5b505050506040513d602081101561257c57600080fd5b50511160a0820181905215612606576125fc81606001516001600160a01b031663f0dd77ff6040518163ffffffff1660e01b815260040160206040518083038186803b1580156125cb57600080fd5b505afa1580156125df573d6000803e3d6000fd5b505050506040513d60208110156125f557600080fd5b5051611eb3565b6080820152612617565b835161261190611eb3565b60808201525b8360a001516001600160a01b031663d45ab2b56126378b60200151612fab565b6126468c8560400151436131f7565b61264f8d613214565b88600001518660c001516040518663ffffffff1660e01b81526004018086815260200185815260200184815260200183815260200182815260200195505050505050602060405180830381600087803b1580156126ab57600080fd5b505af11580156126bf573d6000803e3d6000fd5b505050506040513d60208110156126d557600080fd5b50516001600160a01b0316602082015260006126ef6113ec565b600101905081606001516001600160a01b0316631bc09d0a826040518263ffffffff1660e01b815260040180828152602001915050600060405180830381600087803b15801561273e57600080fd5b505af1158015612752573d6000803e3d6000fd5b505050506127738260a0015183608001518460400151856101200151613244565b92508383146127c0576040805162461bcd60e51b81526020600482015260146024820152730aa9c8ab0a08a86a88a88be9c9e888abe9082a6960631b604482015290519081900360640190fd5b6127ce8260200151846132ab565b6080850151855160c084015160408051638b8ca19960e01b81526004810186905260248101939093526044830191909152336064830152516001600160a01b0390921691638b8ca1999160848082019260009290919082900301818387803b15801561283957600080fd5b505af115801561284d573d6000803e3d6000fd5b505050505061285f8460000151611eb3565b6128676113ec565b7f8016306209aff73e79f274cf38a41928996f746e2953111902e1f55be1713a5484846040015185600001518661010001518761012001518f8f6040518088815260200187815260200186815260200185815260200184815260200183600260600280828437600083820152601f01601f191690910190508261010080828437600083820152604051601f909101601f1916909201829003995090975050505050505050a350979650505050505050565b6001600160a01b03808316600090815260086020526040808220848416835290822060038201549293919290911680612982576040805162461bcd60e51b81526020600482015260076024820152661393d7d0d2105360ca1b604482015290519081900360640190fd5b60038201546001600160a01b038281169116146129d5576040805162461bcd60e51b815260206004820152600c60248201526b1112519197d25397d0d2105360a21b604482015290519081900360640190fd5b95945050505050565b6001600160a01b0316600090815260086020526040902060030180546001600160a01b0319169055565b6000612a898a8a8080601f01602080910402602001604051908101604052809392919081815260200183838082843760009201919091525050604080516020808e0282810182019093528d82529093508d92508c918291850190849080828437600081840152601f19601f820116905080830192505050505050508d6132f5565b90506000612a968d611150565b9050612aa58c83888a896133f6565b816001600160a01b03166397bdc5106040518163ffffffff1660e01b815260040160206040518083038186803b158015612ade57600080fd5b505afa158015612af2573d6000803e3d6000fd5b505050506040513d6020811015612b0857600080fd5b505114612b4b576040805162461bcd60e51b815260206004820152600c60248201526b434f4e4649524d5f4441544160a01b604482015290519081900360640190fd5b836001600160a01b0316630c7268478c8c8c8c6040518563ffffffff1660e01b81526004018080602001806020018381038352878782818152602001925080828437600083820152601f01601f19169091018481038352858152602090810191508690860280828437600081840152601f19601f8201169050808301925050509650505050505050600060405180830381600087803b158015612bed57600080fd5b505af1158015612c01573d6000803e3d6000fd5b50505050612c1060015461343d565b60018d81558d01600255604080516316b9109b60e01b8152600481018f905290516001600160a01b038516916316b9109b91602480830192600092919082900301818387803b158015612c6257600080fd5b505af1158015612c76573d6000803e3d6000fd5b505050508c7f2400bd6e429cfcd98fe43a75bbbe4702c59c99d636100690130cc1ebb611c5a2838989896040518085815260200184815260200183815260200182815260200194505050505060405180910390a250505050505050505050505050565b3390565b600082821115612d34576040805162461bcd60e51b815260206004820152601e60248201527f536166654d6174683a207375627472616374696f6e206f766572666c6f770000604482015290519081900360640190fd5b50900390565b6001600160a01b0382166000908152600a602052604081205490612d64828463ffffffff6134bf16565b6001600160a01b0385166000818152600a60209081526040918290208490558151868152908101849052815193945091927fa740af14c56e4e04a617b1de1eb20de73270decbaaead14f142aabf3038e5ae29281900390910190a250505050565b6001600160a01b03811660009081526008602052604090208054600780546000198101908110612df157fe5b600091825260209091200154600780546001600160a01b039092169183908110612e1757fe5b9060005260206000200160006101000a8154816001600160a01b0302191690836001600160a01b03160217905550806008600060078481548110612e5757fe5b60009182526020808320909101546001600160a01b031683528201929092526040019020556007805480612e8757fe5b60008281526020808220830160001990810180546001600160a01b03191690559092019092556001600160a01b03949094168152600890935250506040812081815560018101829055600281019190915560030180546001600160a81b0319169055565b612ef3613737565b604080516101208101825285518152865160208201529081018560016020020151815260200185600260048110612f2657fe5b6020020151815260200185600360048110612f3d57fe5b6020020151815260200186600160038110612f5457fe5b6020020151815260200186600260038110612f6b57fe5b60200201518152602001848152602001838152509050949350505050565b805151602082015151600091612fa5919063ffffffff612cdd16565b92915050565b6000816000015182602001518360400151846060015185608001518660a001518760c001518860e00151896101000151604051602001808a81526020018981526020018881526020018781526020018681526020018581526020018481526020018381526020018281526020019950505050505050505050604051602081830303815290604052805190602001209050919050565b80518051602083015151600092612fa592918290039061305f90613520565b61306c8660200151613520565b613555565b6000806130a58661309961308c82600163ffffffff612cdd16565b889063ffffffff6134bf16565b9063ffffffff61359316565b9050613134816131286130be438863ffffffff6134bf16565b866001600160a01b0316632edfb42a6040518163ffffffff1660e01b815260040160206040518083038186803b1580156130f757600080fd5b505afa15801561310b573d6000803e3d6000fd5b505050506040513d602081101561312157600080fd5b50516135fa565b9063ffffffff6134bf16565b91506000836001600160a01b031663f0dd77ff6040518163ffffffff1660e01b815260040160206040518083038186803b15801561317157600080fd5b505afa158015613185573d6000803e3d6000fd5b505050506040513d602081101561319b57600080fd5b5051905080156131ed576131ea836131b283611150565b6001600160a01b0316632edfb42a6040518163ffffffff1660e01b815260040160206040518083038186803b1580156130f757600080fd5b92505b5050949350505050565b600061320c8383866020015160400151613610565b949350505050565b805160a09081015160208301519182015160c08301516060840151608090940151600094612fa5949392916133f6565b60008085613253576000613256565b60015b905080858585604051602001808560ff1660ff1660f81b815260010184815260200183815260200182815260200194505050505060405160208183030381529060405280519060200120915050949350505050565b60038054600101808255600090815260056020908152604080832080546001600160a01b0319166001600160a01b0397909716969096179095559154815260069091529190912055565b81518351600091829184835b838110156133a857600088828151811061331757fe5b60200260200101519050838187011115613367576040805162461bcd60e51b815260206004820152600c60248201526b2220aa20afa7ab22a9292aa760a11b604482015290519081900360640190fd5b6020868b0181018290206040805180840196909652858101919091528051808603820181526060909501905283519301929092209190940193600101613301565b508184146133eb576040805162461bcd60e51b815260206004820152600b60248201526a08882a882be988a9c8ea8960ab1b604482015290519081900360640190fd5b979650505050505050565b60408051602080820197909752808201959095526060850192909252608084019290925260a0808401929092528051808403909201825260c0909201909152805191012090565b60008181526005602052604080822054815163083197ef60e41b815291516001600160a01b03909116926383197ef0926004808201939182900301818387803b15801561348957600080fd5b505af115801561349d573d6000803e3d6000fd5b50505060009182525060056020526040902080546001600160a01b0319169055565b600082820183811015613519576040805162461bcd60e51b815260206004820152601b60248201527f536166654d6174683a206164646974696f6e206f766572666c6f770000000000604482015290519081900360640190fd5b9392505050565b6000612fa58260000151613550846040015185602001518660a0015187606001518860c001518960800151613647565b613692565b604080516020808201969096528082019490945260608401929092526080808401919091528151808403909101815260a09092019052805191012090565b60008082116135e9576040805162461bcd60e51b815260206004820152601a60248201527f536166654d6174683a206469766973696f6e206279207a65726f000000000000604482015290519081900360640190fd5b8183816135f257fe5b049392505050565b60008183116136095781613519565b5090919050565b6040805160208082019590955280820193909352606080840192909252805180840390920182526080909201909152805191012090565b60408051602080820198909852808201969096526060860194909452608085019290925260a084015260c0808401919091528151808403909101815260e09092019052805191012090565b604080516020808201949094528082019290925280518083038201815260609092019052805191012090565b60405180604001604052806136d1613737565b81526020016136de613737565b905290565b6040805161014081018252600080825260208201819052918101829052606081018290526080810182905260a0810182905260c0810182905260e08101829052610100810182905261012081019190915290565b604051806101200160405280600081526020016000801916815260200160008152602001600081526020016000815260200160008019168152602001600080191681526020016000815260200160008152509056feea8787f128d10b2cc0317b0c3960f9ad447f7f6c1ed189db1083ccffd20f456ea26469706673582212205140af610e014fe48ccf2243227e246896e7e89af6d3a7bc0356a4b7de18b84864736f6c634300060b0033",
  "devdoc": {
    "kind": "dev",
    "methods": {
      "amountStaked(address)": {
        "params": {
          "staker": "Staker address to lookup"
        },
        "returns": {
          "_0": "Amount staked of the staker"
        }
      },
      "arbGasSpeedLimitPerBlock()": {
        "details": "this actually returns the avmGasSpeedLimitPerBlock",
        "returns": {
          "_0": "this actually returns the avmGasSpeedLimitPerBlock"
        }
      },
      "currentChallenge(address)": {
        "params": {
          "staker": "Staker address to lookup"
        },
        "returns": {
          "_0": "Current challenge of the staker"
        }
      },
      "firstUnresolvedNode()": {
        "details": "If all nodes have been resolved, this will be latestNodeCreated + 1",
        "returns": {
          "_0": "Index of the first unresolved node"
        }
      },
      "getNode(uint256)": {
        "params": {
          "nodeNum": "Index of the node"
        },
        "returns": {
          "_0": "Address of the Node contract"
        }
      },
      "getNodeHash(uint256)": {
        "returns": {
          "_0": "Node hash as of this node number"
        }
      },
      "getStakerAddress(uint256)": {
        "params": {
          "stakerNum": "Index of the staker"
        },
        "returns": {
          "_0": "Address of the staker"
        }
      },
      "isStaked(address)": {
        "params": {
          "staker": "Staker address to check"
        },
        "returns": {
          "_0": "True or False for whether the staker was staked"
        }
      },
      "lastStakeBlock()": {
        "returns": {
          "_0": "Ethereum block that the most recent stake was created"
        }
      },
      "latestConfirmed()": {
        "returns": {
          "_0": "Index of the latest confirmed node"
        }
      },
      "latestNodeCreated()": {
        "returns": {
          "_0": "Index of the latest rollup node created"
        }
      },
      "latestStakedNode(address)": {
        "params": {
          "staker": "Staker address to lookup"
        },
        "returns": {
          "_0": "Latest node staked of the staker"
        }
      },
      "paused()": {
        "details": "Returns true if the contract is paused, and false otherwise."
      },
      "removeOldOutbox(address)": {
        "params": {
          "_outbox": "Outbox contract to remove"
        }
      },
      "setAvmGasSpeedLimitPerBlock(uint256)": {
        "params": {
          "newAvmGasSpeedLimitPerBlock": "maximum avmgas to be used per block"
        }
      },
      "setBaseStake(uint256)": {
        "params": {
          "newBaseStake": "minimum amount of stake required"
        }
      },
      "setChallengeExecutionBisectionDegree(uint256)": {
        "params": {
          "newChallengeExecutionBisectionDegree": "execution bisection degree"
        }
      },
      "setConfirmPeriodBlocks(uint256)": {
        "params": {
          "newConfirmPeriod": "new number of blocks"
        }
      },
      "setExtraChallengeTimeBlocks(uint256)": {
        "params": {
          "newExtraTimeBlocks": "new number of blocks"
        }
      },
      "setFacets(address,address)": {
        "params": {
          "newAdminFacet": "address of logic that owner of rollup calls",
          "newUserFacet": "address of logic that user of rollup calls"
        }
      },
      "setInbox(address,bool)": {
        "params": {
          "_enabled": "New status of inbox",
          "_inbox": "Inbox contract to add or remove"
        }
      },
      "setIsSequencer(address,bool)": {
        "params": {
          "newSequencer": "new sequencer address to be used"
        }
      },
      "setMinimumAssertionPeriod(uint256)": {
        "params": {
          "newPeriod": "new minimum period for assertions"
        }
      },
      "setOutbox(address)": {
        "params": {
          "_outbox": "Outbox contract to add"
        }
      },
      "setOwner(address)": {
        "params": {
          "newOwner": "address of new rollup owner"
        }
      },
      "setSequencerInboxMaxDelay(uint256,uint256)": {
        "params": {
          "newSequencerInboxMaxDelayBlocks": "max number of blocks",
          "newSequencerInboxMaxDelaySeconds": "max number of seconds"
        }
      },
      "setStakeToken(address)": {
        "details": "Before changing the base stake token, you might need to change the implementation of the Rollup User facet!",
        "params": {
          "newStakeToken": "address of token used for staking"
        }
      },
      "setValidator(address[],bool[])": {
        "details": "It is expected that both arrays are same length, and validator at position i corresponds to the value at position i",
        "params": {
          "_val": "value to set in the whitelist for corresponding address",
          "_validator": "addresses to set in the whitelist"
        }
      },
      "setWhitelistEntries(address,address[],bool[])": {
        "details": "user at position i will be assigned value i",
        "params": {
          "user": "users to be updated in the whitelist",
          "val": "if user is or not allowed in the whitelist",
          "whitelist": "whitelist to be updated"
        }
      },
      "stakerCount()": {
        "returns": {
          "_0": "Number of active stakers currently staked"
        }
      },
      "updateWhitelistConsumers(address,address,address[])": {
        "details": "setting the newWhitelist to address(0) disables it for consumers",
        "params": {
          "newWhitelist": "new whitelist to be used",
          "targets": "whitelist consumers to be triggered",
          "whitelist": "old whitelist to be deprecated"
        }
      },
      "upgradeBeacon(address,address)": {
        "params": {
          "beacon": "address of beacon to be upgraded",
          "newImplementation": "new address of implementation"
        }
      },
      "withdrawableFunds(address)": {
        "params": {
          "owner": "Address to check the funds of"
        },
        "returns": {
          "_0": "Amount of funds withdrawable by owner"
        }
      },
      "zombieAddress(uint256)": {
        "params": {
          "zombieNum": "Index of the zombie to lookup"
        },
        "returns": {
          "_0": "Original staker address of the zombie"
        }
      },
      "zombieCount()": {
        "returns": {
          "_0": "Current number of un-removed zombies"
        }
      },
      "zombieLatestStakedNode(uint256)": {
        "params": {
          "zombieNum": "Index of the zombie to lookup"
        },
        "returns": {
          "_0": "Latest node that the given zombie is staked on"
        }
      }
    },
    "version": 1
  },
  "userdoc": {
    "kind": "user",
    "methods": {
      "amountStaked(address)": {
        "notice": "Get the amount staked of the given staker"
      },
      "arbGasSpeedLimitPerBlock()": {
        "notice": "DEPRECATED -- this method is deprecated but still mantained for backward compatibility"
      },
      "currentChallenge(address)": {
        "notice": "Get the current challenge of the given staker"
      },
      "getNode(uint256)": {
        "notice": "Get the address of the Node contract for the given node"
      },
      "getStakerAddress(uint256)": {
        "notice": "Get the address of the staker at the given index"
      },
      "isStaked(address)": {
        "notice": "Check whether the given staker is staked"
      },
      "latestStakedNode(address)": {
        "notice": "Get the latest staked node of the given staker"
      },
      "pause()": {
        "notice": "Pause interaction with the rollup contract. The time spent paused is not incremented in the rollup's timing for node validation."
      },
      "removeOldOutbox(address)": {
        "notice": "Disable an old outbox from interacting with the bridge"
      },
      "resume()": {
        "notice": "Resume interaction with the rollup contract"
      },
      "setAvmGasSpeedLimitPerBlock(uint256)": {
        "notice": "Set speed limit per block"
      },
      "setBaseStake(uint256)": {
        "notice": "Set base stake required for an assertion"
      },
      "setChallengeExecutionBisectionDegree(uint256)": {
        "notice": "Set execution bisection degree"
      },
      "setConfirmPeriodBlocks(uint256)": {
        "notice": "Set number of blocks until a node is considered confirmed"
      },
      "setExtraChallengeTimeBlocks(uint256)": {
        "notice": "Set number of extra blocks after a challenge"
      },
      "setFacets(address,address)": {
        "notice": "Set the addresses of rollup logic facets called"
      },
      "setInbox(address,bool)": {
        "notice": "Enable or disable an inbox contract"
      },
      "setIsSequencer(address,bool)": {
        "notice": "Updates a sequencer address at the sequencer inbox"
      },
      "setMinimumAssertionPeriod(uint256)": {
        "notice": "Set minimum assertion period for the rollup"
      },
      "setOutbox(address)": {
        "notice": "Add a contract authorized to put messages into this rollup's inbox"
      },
      "setOwner(address)": {
        "notice": "Set a new owner address for the rollup"
      },
      "setSequencerInboxMaxDelay(uint256,uint256)": {
        "notice": "Set max delay for sequencer inbox"
      },
      "setStakeToken(address)": {
        "notice": "Set the token used for stake, where address(0) == eth"
      },
      "setValidator(address[],bool[])": {
        "notice": "Set the addresses of the validator whitelist"
      },
      "setWhitelistEntries(address,address[],bool[])": {
        "notice": "Updates a whitelist's entries"
      },
      "updateWhitelistConsumers(address,address,address[])": {
        "notice": "Updates a whitelist address for its consumers"
      },
      "upgradeBeacon(address,address)": {
        "notice": "Upgrades the implementation of a beacon controlled by the rollup"
      },
      "withdrawableFunds(address)": {
        "notice": "Get the amount of funds withdrawable by the given address"
      },
      "zombieAddress(uint256)": {
        "notice": "Get the original staker address of the zombie at the given index"
      },
      "zombieLatestStakedNode(uint256)": {
        "notice": "Get Latest node that the given zombie at the given index is staked on"
      }
    },
    "version": 1
  },
  "storageLayout": {
    "storage": [
      {
        "astId": 18568,
        "contract": "contracts/rollup/facets/RollupAdmin.sol:RollupAdminFacet",
        "label": "isMasterCopy",
        "offset": 0,
        "slot": "0",
        "type": "t_bool"
      },
      {
        "astId": 23182,
        "contract": "contracts/rollup/facets/RollupAdmin.sol:RollupAdminFacet",
        "label": "_latestConfirmed",
        "offset": 0,
        "slot": "1",
        "type": "t_uint256"
      },
      {
        "astId": 23184,
        "contract": "contracts/rollup/facets/RollupAdmin.sol:RollupAdminFacet",
        "label": "_firstUnresolvedNode",
        "offset": 0,
        "slot": "2",
        "type": "t_uint256"
      },
      {
        "astId": 23186,
        "contract": "contracts/rollup/facets/RollupAdmin.sol:RollupAdminFacet",
        "label": "_latestNodeCreated",
        "offset": 0,
        "slot": "3",
        "type": "t_uint256"
      },
      {
        "astId": 23188,
        "contract": "contracts/rollup/facets/RollupAdmin.sol:RollupAdminFacet",
        "label": "_lastStakeBlock",
        "offset": 0,
        "slot": "4",
        "type": "t_uint256"
      },
      {
        "astId": 23192,
        "contract": "contracts/rollup/facets/RollupAdmin.sol:RollupAdminFacet",
        "label": "_nodes",
        "offset": 0,
        "slot": "5",
        "type": "t_mapping(t_uint256,t_contract(INode)22076)"
      },
      {
        "astId": 23196,
        "contract": "contracts/rollup/facets/RollupAdmin.sol:RollupAdminFacet",
        "label": "_nodeHashes",
        "offset": 0,
        "slot": "6",
        "type": "t_mapping(t_uint256,t_bytes32)"
      },
      {
        "astId": 23199,
        "contract": "contracts/rollup/facets/RollupAdmin.sol:RollupAdminFacet",
        "label": "_stakerList",
        "offset": 0,
        "slot": "7",
        "type": "t_array(t_address_payable)dyn_storage"
      },
      {
        "astId": 23204,
        "contract": "contracts/rollup/facets/RollupAdmin.sol:RollupAdminFacet",
        "label": "_stakerMap",
        "offset": 0,
        "slot": "8",
        "type": "t_mapping(t_address,t_struct(Staker)23180_storage)"
      },
      {
        "astId": 23207,
        "contract": "contracts/rollup/facets/RollupAdmin.sol:RollupAdminFacet",
        "label": "_zombies",
        "offset": 0,
        "slot": "9",
        "type": "t_array(t_struct(Zombie)23169_storage)dyn_storage"
      },
      {
        "astId": 23211,
        "contract": "contracts/rollup/facets/RollupAdmin.sol:RollupAdminFacet",
        "label": "_withdrawableFunds",
        "offset": 0,
        "slot": "10",
        "type": "t_mapping(t_address,t_uint256)"
      },
      {
        "astId": 2064,
        "contract": "contracts/rollup/facets/RollupAdmin.sol:RollupAdminFacet",
        "label": "_paused",
        "offset": 0,
        "slot": "11",
        "type": "t_bool"
      },
      {
        "astId": 22693,
        "contract": "contracts/rollup/facets/RollupAdmin.sol:RollupAdminFacet",
        "label": "confirmPeriodBlocks",
        "offset": 0,
        "slot": "12",
        "type": "t_uint256"
      },
      {
        "astId": 22695,
        "contract": "contracts/rollup/facets/RollupAdmin.sol:RollupAdminFacet",
        "label": "extraChallengeTimeBlocks",
        "offset": 0,
        "slot": "13",
        "type": "t_uint256"
      },
      {
        "astId": 22697,
        "contract": "contracts/rollup/facets/RollupAdmin.sol:RollupAdminFacet",
        "label": "avmGasSpeedLimitPerBlock",
        "offset": 0,
        "slot": "14",
        "type": "t_uint256"
      },
      {
        "astId": 22699,
        "contract": "contracts/rollup/facets/RollupAdmin.sol:RollupAdminFacet",
        "label": "baseStake",
        "offset": 0,
        "slot": "15",
        "type": "t_uint256"
      },
      {
        "astId": 22701,
        "contract": "contracts/rollup/facets/RollupAdmin.sol:RollupAdminFacet",
        "label": "delayedBridge",
        "offset": 0,
        "slot": "16",
        "type": "t_contract(IBridge)16694"
      },
      {
        "astId": 22703,
        "contract": "contracts/rollup/facets/RollupAdmin.sol:RollupAdminFacet",
        "label": "sequencerBridge",
        "offset": 0,
        "slot": "17",
        "type": "t_contract(ISequencerInbox)17026"
      },
      {
        "astId": 22705,
        "contract": "contracts/rollup/facets/RollupAdmin.sol:RollupAdminFacet",
        "label": "outbox",
        "offset": 0,
        "slot": "18",
        "type": "t_contract(IOutbox)16894"
      },
      {
        "astId": 22707,
        "contract": "contracts/rollup/facets/RollupAdmin.sol:RollupAdminFacet",
        "label": "rollupEventBridge",
        "offset": 0,
        "slot": "19",
        "type": "t_contract(RollupEventBridge)25104"
      },
      {
        "astId": 22709,
        "contract": "contracts/rollup/facets/RollupAdmin.sol:RollupAdminFacet",
        "label": "challengeFactory",
        "offset": 0,
        "slot": "20",
        "type": "t_contract(IChallengeFactory)18396"
      },
      {
        "astId": 22711,
        "contract": "contracts/rollup/facets/RollupAdmin.sol:RollupAdminFacet",
        "label": "nodeFactory",
        "offset": 0,
        "slot": "21",
        "type": "t_contract(INodeFactory)22094"
      },
      {
        "astId": 22713,
        "contract": "contracts/rollup/facets/RollupAdmin.sol:RollupAdminFacet",
        "label": "owner",
        "offset": 0,
        "slot": "22",
        "type": "t_address"
      },
      {
        "astId": 22715,
        "contract": "contracts/rollup/facets/RollupAdmin.sol:RollupAdminFacet",
        "label": "stakeToken",
        "offset": 0,
        "slot": "23",
        "type": "t_address"
      },
      {
        "astId": 22717,
        "contract": "contracts/rollup/facets/RollupAdmin.sol:RollupAdminFacet",
        "label": "minimumAssertionPeriod",
        "offset": 0,
        "slot": "24",
        "type": "t_uint256"
      },
      {
        "astId": 22719,
        "contract": "contracts/rollup/facets/RollupAdmin.sol:RollupAdminFacet",
        "label": "STORAGE_GAP_1",
        "offset": 0,
        "slot": "25",
        "type": "t_uint256"
      },
      {
        "astId": 22721,
        "contract": "contracts/rollup/facets/RollupAdmin.sol:RollupAdminFacet",
        "label": "STORAGE_GAP_2",
        "offset": 0,
        "slot": "26",
        "type": "t_uint256"
      },
      {
        "astId": 22723,
        "contract": "contracts/rollup/facets/RollupAdmin.sol:RollupAdminFacet",
        "label": "challengeExecutionBisectionDegree",
        "offset": 0,
        "slot": "27",
        "type": "t_uint256"
      },
      {
        "astId": 22726,
        "contract": "contracts/rollup/facets/RollupAdmin.sol:RollupAdminFacet",
        "label": "facets",
        "offset": 0,
        "slot": "28",
        "type": "t_array(t_address)dyn_storage"
      },
      {
        "astId": 22730,
        "contract": "contracts/rollup/facets/RollupAdmin.sol:RollupAdminFacet",
        "label": "isValidator",
        "offset": 0,
        "slot": "29",
        "type": "t_mapping(t_address,t_bool)"
      }
    ],
    "types": {
      "t_address": {
        "encoding": "inplace",
        "label": "address",
        "numberOfBytes": "20"
      },
      "t_address_payable": {
        "encoding": "inplace",
        "label": "address payable",
        "numberOfBytes": "20"
      },
      "t_array(t_address)dyn_storage": {
        "base": "t_address",
        "encoding": "dynamic_array",
        "label": "address[]",
        "numberOfBytes": "32"
      },
      "t_array(t_address_payable)dyn_storage": {
        "base": "t_address_payable",
        "encoding": "dynamic_array",
        "label": "address payable[]",
        "numberOfBytes": "32"
      },
      "t_array(t_struct(Zombie)23169_storage)dyn_storage": {
        "base": "t_struct(Zombie)23169_storage",
        "encoding": "dynamic_array",
        "label": "struct RollupCore.Zombie[]",
        "numberOfBytes": "32"
      },
      "t_bool": {
        "encoding": "inplace",
        "label": "bool",
        "numberOfBytes": "1"
      },
      "t_bytes32": {
        "encoding": "inplace",
        "label": "bytes32",
        "numberOfBytes": "32"
      },
      "t_contract(IBridge)16694": {
        "encoding": "inplace",
        "label": "contract IBridge",
        "numberOfBytes": "20"
      },
      "t_contract(IChallengeFactory)18396": {
        "encoding": "inplace",
        "label": "contract IChallengeFactory",
        "numberOfBytes": "20"
      },
      "t_contract(INode)22076": {
        "encoding": "inplace",
        "label": "contract INode",
        "numberOfBytes": "20"
      },
      "t_contract(INodeFactory)22094": {
        "encoding": "inplace",
        "label": "contract INodeFactory",
        "numberOfBytes": "20"
      },
      "t_contract(IOutbox)16894": {
        "encoding": "inplace",
        "label": "contract IOutbox",
        "numberOfBytes": "20"
      },
      "t_contract(ISequencerInbox)17026": {
        "encoding": "inplace",
        "label": "contract ISequencerInbox",
        "numberOfBytes": "20"
      },
      "t_contract(RollupEventBridge)25104": {
        "encoding": "inplace",
        "label": "contract RollupEventBridge",
        "numberOfBytes": "20"
      },
      "t_mapping(t_address,t_bool)": {
        "encoding": "mapping",
        "key": "t_address",
        "label": "mapping(address => bool)",
        "numberOfBytes": "32",
        "value": "t_bool"
      },
      "t_mapping(t_address,t_struct(Staker)23180_storage)": {
        "encoding": "mapping",
        "key": "t_address",
        "label": "mapping(address => struct RollupCore.Staker)",
        "numberOfBytes": "32",
        "value": "t_struct(Staker)23180_storage"
      },
      "t_mapping(t_address,t_uint256)": {
        "encoding": "mapping",
        "key": "t_address",
        "label": "mapping(address => uint256)",
        "numberOfBytes": "32",
        "value": "t_uint256"
      },
      "t_mapping(t_uint256,t_bytes32)": {
        "encoding": "mapping",
        "key": "t_uint256",
        "label": "mapping(uint256 => bytes32)",
        "numberOfBytes": "32",
        "value": "t_bytes32"
      },
      "t_mapping(t_uint256,t_contract(INode)22076)": {
        "encoding": "mapping",
        "key": "t_uint256",
        "label": "mapping(uint256 => contract INode)",
        "numberOfBytes": "32",
        "value": "t_contract(INode)22076"
      },
      "t_struct(Staker)23180_storage": {
        "encoding": "inplace",
        "label": "struct RollupCore.Staker",
        "members": [
          {
            "astId": 23171,
            "contract": "contracts/rollup/facets/RollupAdmin.sol:RollupAdminFacet",
            "label": "index",
            "offset": 0,
            "slot": "0",
            "type": "t_uint256"
          },
          {
            "astId": 23173,
            "contract": "contracts/rollup/facets/RollupAdmin.sol:RollupAdminFacet",
            "label": "latestStakedNode",
            "offset": 0,
            "slot": "1",
            "type": "t_uint256"
          },
          {
            "astId": 23175,
            "contract": "contracts/rollup/facets/RollupAdmin.sol:RollupAdminFacet",
            "label": "amountStaked",
            "offset": 0,
            "slot": "2",
            "type": "t_uint256"
          },
          {
            "astId": 23177,
            "contract": "contracts/rollup/facets/RollupAdmin.sol:RollupAdminFacet",
            "label": "currentChallenge",
            "offset": 0,
            "slot": "3",
            "type": "t_address"
          },
          {
            "astId": 23179,
            "contract": "contracts/rollup/facets/RollupAdmin.sol:RollupAdminFacet",
            "label": "isStaked",
            "offset": 20,
            "slot": "3",
            "type": "t_bool"
          }
        ],
        "numberOfBytes": "128"
      },
      "t_struct(Zombie)23169_storage": {
        "encoding": "inplace",
        "label": "struct RollupCore.Zombie",
        "members": [
          {
            "astId": 23166,
            "contract": "contracts/rollup/facets/RollupAdmin.sol:RollupAdminFacet",
            "label": "stakerAddress",
            "offset": 0,
            "slot": "0",
            "type": "t_address"
          },
          {
            "astId": 23168,
            "contract": "contracts/rollup/facets/RollupAdmin.sol:RollupAdminFacet",
            "label": "latestStakedNode",
            "offset": 0,
            "slot": "1",
            "type": "t_uint256"
          }
        ],
        "numberOfBytes": "64"
      },
      "t_uint256": {
        "encoding": "inplace",
        "label": "uint256",
        "numberOfBytes": "32"
      }
    }
  }
}